{"abi":[{"inputs":[{"internalType":"uint256","name":"minimum","type":"uint256"},{"internalType":"address","name":"creator","type":"address"},{"internalType":"string","name":"description","type":"string"}],"stateMutability":"nonpayable","type":"constructor"},{"inputs":[{"internalType":"uint256","name":"index","type":"uint256"}],"name":"approveRequest","outputs":[],"stateMutability":"nonpayable","type":"function"},{"inputs":[],"name":"campaignDescription","outputs":[{"internalType":"string","name":"","type":"string"}],"stateMutability":"view","type":"function"},{"inputs":[],"name":"contribute","outputs":[],"stateMutability":"payable","type":"function"},{"inputs":[],"name":"contributorCount","outputs":[{"internalType":"uint256","name":"","type":"uint256"}],"stateMutability":"view","type":"function"},{"inputs":[{"internalType":"address","name":"","type":"address"}],"name":"contributors","outputs":[{"internalType":"bool","name":"","type":"bool"}],"stateMutability":"view","type":"function"},{"inputs":[{"internalType":"string","name":"description","type":"string"},{"internalType":"uint256","name":"amount","type":"uint256"},{"internalType":"address","name":"recipient","type":"address"}],"name":"createRequest","outputs":[],"stateMutability":"nonpayable","type":"function"},{"inputs":[{"internalType":"uint256","name":"index","type":"uint256"}],"name":"finalizeRequest","outputs":[],"stateMutability":"nonpayable","type":"function"},{"inputs":[],"name":"getSummary","outputs":[{"internalType":"uint256","name":"","type":"uint256"},{"internalType":"uint256","name":"","type":"uint256"},{"internalType":"uint256","name":"","type":"uint256"},{"internalType":"uint256","name":"","type":"uint256"},{"internalType":"address","name":"","type":"address"},{"internalType":"string","name":"","type":"string"}],"stateMutability":"view","type":"function"},{"inputs":[],"name":"manager","outputs":[{"internalType":"address","name":"","type":"address"}],"stateMutability":"view","type":"function"},{"inputs":[],"name":"minimumContribution","outputs":[{"internalType":"uint256","name":"","type":"uint256"}],"stateMutability":"view","type":"function"},{"inputs":[],"name":"numRequests","outputs":[{"internalType":"uint256","name":"","type":"uint256"}],"stateMutability":"view","type":"function"},{"inputs":[{"internalType":"uint256","name":"","type":"uint256"}],"name":"requests","outputs":[{"internalType":"string","name":"description","type":"string"},{"internalType":"uint256","name":"amount","type":"uint256"},{"internalType":"address","name":"recipient","type":"address"},{"internalType":"bool","name":"complete","type":"bool"},{"internalType":"uint256","name":"approvalCount","type":"uint256"}],"stateMutability":"view","type":"function"}],"devdoc":{"kind":"dev","methods":{},"version":1},"evm":{"assembly":"    /* \"Campaign.sol\":644:3857  contract Campaign {... */\n  mstore(0x40, 0x80)\n    /* \"Campaign.sol\":1395:1655  constructor(uint minimum, address creator, string memory description) {... */\n  callvalue\n  dup1\n  iszero\n  tag_1\n  jumpi\n  0x00\n  dup1\n  revert\ntag_1:\n  pop\n  mload(0x40)\n  sub(codesize, bytecodeSize)\n  dup1\n  bytecodeSize\n  dup4\n  codecopy\n  dup2\n  dup2\n  add\n  0x40\n  mstore\n  dup2\n  add\n  swap1\n  tag_2\n  swap2\n  swap1\n  tag_3\n  jump\t// in\ntag_2:\n    /* \"Campaign.sol\":1556:1563  creator */\n  dup2\n    /* \"Campaign.sol\":1546:1553  manager */\n  0x00\n  dup1\n    /* \"Campaign.sol\":1546:1563  manager = creator */\n  0x0100\n  exp\n  dup2\n  sload\n  dup2\n  0xffffffffffffffffffffffffffffffffffffffff\n  mul\n  not\n  and\n  swap1\n  dup4\n  0xffffffffffffffffffffffffffffffffffffffff\n  and\n  mul\n  or\n  swap1\n  sstore\n  pop\n    /* \"Campaign.sol\":1596:1603  minimum */\n  dup3\n    /* \"Campaign.sol\":1574:1593  minimumContribution */\n  0x02\n    /* \"Campaign.sol\":1574:1603  minimumContribution = minimum */\n  dup2\n  swap1\n  sstore\n  pop\n    /* \"Campaign.sol\":1636:1647  description */\n  dup1\n    /* \"Campaign.sol\":1614:1633  campaignDescription */\n  0x01\n    /* \"Campaign.sol\":1614:1647  campaignDescription = description */\n  swap1\n  dup1\n  mload\n  swap1\n  0x20\n  add\n  swap1\n  tag_6\n  swap3\n  swap2\n  swap1\n  tag_7\n  jump\t// in\ntag_6:\n  pop\n    /* \"Campaign.sol\":1395:1655  constructor(uint minimum, address creator, string memory description) {... */\n  pop\n  pop\n  pop\n    /* \"Campaign.sol\":644:3857  contract Campaign {... */\n  jump(tag_8)\ntag_7:\n  dup3\n  dup1\n  sload\n  tag_9\n  swap1\n  tag_10\n  jump\t// in\ntag_9:\n  swap1\n  0x00\n  mstore\n  keccak256(0x00, 0x20)\n  swap1\n  0x1f\n  add\n  0x20\n  swap1\n  div\n  dup2\n  add\n  swap3\n  dup3\n  tag_12\n  jumpi\n  0x00\n  dup6\n  sstore\n  jump(tag_11)\ntag_12:\n  dup3\n  0x1f\n  lt\n  tag_13\n  jumpi\n  dup1\n  mload\n  not(0xff)\n  and\n  dup4\n  dup1\n  add\n  or\n  dup6\n  sstore\n  jump(tag_11)\ntag_13:\n  dup3\n  dup1\n  add\n  0x01\n  add\n  dup6\n  sstore\n  dup3\n  iszero\n  tag_11\n  jumpi\n  swap2\n  dup3\n  add\ntag_14:\n  dup3\n  dup2\n  gt\n  iszero\n  tag_15\n  jumpi\n  dup3\n  mload\n  dup3\n  sstore\n  swap2\n  0x20\n  add\n  swap2\n  swap1\n  0x01\n  add\n  swap1\n  jump(tag_14)\ntag_15:\ntag_11:\n  pop\n  swap1\n  pop\n  tag_16\n  swap2\n  swap1\n  tag_17\n  jump\t// in\ntag_16:\n  pop\n  swap1\n  jump\t// out\ntag_17:\ntag_18:\n  dup1\n  dup3\n  gt\n  iszero\n  tag_19\n  jumpi\n  0x00\n  dup2\n  0x00\n  swap1\n  sstore\n  pop\n  0x01\n  add\n  jump(tag_18)\ntag_19:\n  pop\n  swap1\n  jump\t// out\n    /* \"#utility.yul\":7:82   */\ntag_20:\n    /* \"#utility.yul\":40:46   */\n  0x00\n    /* \"#utility.yul\":73:75   */\n  0x40\n    /* \"#utility.yul\":67:76   */\n  mload\n    /* \"#utility.yul\":57:76   */\n  swap1\n  pop\n    /* \"#utility.yul\":7:82   */\n  swap1\n  jump\t// out\n    /* \"#utility.yul\":88:205   */\ntag_21:\n    /* \"#utility.yul\":197:198   */\n  0x00\n    /* \"#utility.yul\":194:195   */\n  dup1\n    /* \"#utility.yul\":187:199   */\n  revert\n    /* \"#utility.yul\":211:328   */\ntag_22:\n    /* \"#utility.yul\":320:321   */\n  0x00\n    /* \"#utility.yul\":317:318   */\n  dup1\n    /* \"#utility.yul\":310:322   */\n  revert\n    /* \"#utility.yul\":334:411   */\ntag_23:\n    /* \"#utility.yul\":371:378   */\n  0x00\n    /* \"#utility.yul\":400:405   */\n  dup2\n    /* \"#utility.yul\":389:405   */\n  swap1\n  pop\n    /* \"#utility.yul\":334:411   */\n  swap2\n  swap1\n  pop\n  jump\t// out\n    /* \"#utility.yul\":417:539   */\ntag_24:\n    /* \"#utility.yul\":490:514   */\n  tag_47\n    /* \"#utility.yul\":508:513   */\n  dup2\n    /* \"#utility.yul\":490:514   */\n  tag_23\n  jump\t// in\ntag_47:\n    /* \"#utility.yul\":483:488   */\n  dup2\n    /* \"#utility.yul\":480:515   */\n  eq\n    /* \"#utility.yul\":470:533   */\n  tag_48\n  jumpi\n    /* \"#utility.yul\":529:530   */\n  0x00\n    /* \"#utility.yul\":526:527   */\n  dup1\n    /* \"#utility.yul\":519:531   */\n  revert\n    /* \"#utility.yul\":470:533   */\ntag_48:\n    /* \"#utility.yul\":417:539   */\n  pop\n  jump\t// out\n    /* \"#utility.yul\":545:688   */\ntag_25:\n    /* \"#utility.yul\":602:607   */\n  0x00\n    /* \"#utility.yul\":633:639   */\n  dup2\n    /* \"#utility.yul\":627:640   */\n  mload\n    /* \"#utility.yul\":618:640   */\n  swap1\n  pop\n    /* \"#utility.yul\":649:682   */\n  tag_50\n    /* \"#utility.yul\":676:681   */\n  dup2\n    /* \"#utility.yul\":649:682   */\n  tag_24\n  jump\t// in\ntag_50:\n    /* \"#utility.yul\":545:688   */\n  swap3\n  swap2\n  pop\n  pop\n  jump\t// out\n    /* \"#utility.yul\":694:820   */\ntag_26:\n    /* \"#utility.yul\":731:738   */\n  0x00\n    /* \"#utility.yul\":771:813   */\n  0xffffffffffffffffffffffffffffffffffffffff\n    /* \"#utility.yul\":764:769   */\n  dup3\n    /* \"#utility.yul\":760:814   */\n  and\n    /* \"#utility.yul\":749:814   */\n  swap1\n  pop\n    /* \"#utility.yul\":694:820   */\n  swap2\n  swap1\n  pop\n  jump\t// out\n    /* \"#utility.yul\":826:922   */\ntag_27:\n    /* \"#utility.yul\":863:870   */\n  0x00\n    /* \"#utility.yul\":892:916   */\n  tag_53\n    /* \"#utility.yul\":910:915   */\n  dup3\n    /* \"#utility.yul\":892:916   */\n  tag_26\n  jump\t// in\ntag_53:\n    /* \"#utility.yul\":881:916   */\n  swap1\n  pop\n    /* \"#utility.yul\":826:922   */\n  swap2\n  swap1\n  pop\n  jump\t// out\n    /* \"#utility.yul\":928:1050   */\ntag_28:\n    /* \"#utility.yul\":1001:1025   */\n  tag_55\n    /* \"#utility.yul\":1019:1024   */\n  dup2\n    /* \"#utility.yul\":1001:1025   */\n  tag_27\n  jump\t// in\ntag_55:\n    /* \"#utility.yul\":994:999   */\n  dup2\n    /* \"#utility.yul\":991:1026   */\n  eq\n    /* \"#utility.yul\":981:1044   */\n  tag_56\n  jumpi\n    /* \"#utility.yul\":1040:1041   */\n  0x00\n    /* \"#utility.yul\":1037:1038   */\n  dup1\n    /* \"#utility.yul\":1030:1042   */\n  revert\n    /* \"#utility.yul\":981:1044   */\ntag_56:\n    /* \"#utility.yul\":928:1050   */\n  pop\n  jump\t// out\n    /* \"#utility.yul\":1056:1199   */\ntag_29:\n    /* \"#utility.yul\":1113:1118   */\n  0x00\n    /* \"#utility.yul\":1144:1150   */\n  dup2\n    /* \"#utility.yul\":1138:1151   */\n  mload\n    /* \"#utility.yul\":1129:1151   */\n  swap1\n  pop\n    /* \"#utility.yul\":1160:1193   */\n  tag_58\n    /* \"#utility.yul\":1187:1192   */\n  dup2\n    /* \"#utility.yul\":1160:1193   */\n  tag_28\n  jump\t// in\ntag_58:\n    /* \"#utility.yul\":1056:1199   */\n  swap3\n  swap2\n  pop\n  pop\n  jump\t// out\n    /* \"#utility.yul\":1205:1322   */\ntag_30:\n    /* \"#utility.yul\":1314:1315   */\n  0x00\n    /* \"#utility.yul\":1311:1312   */\n  dup1\n    /* \"#utility.yul\":1304:1316   */\n  revert\n    /* \"#utility.yul\":1328:1445   */\ntag_31:\n    /* \"#utility.yul\":1437:1438   */\n  0x00\n    /* \"#utility.yul\":1434:1435   */\n  dup1\n    /* \"#utility.yul\":1427:1439   */\n  revert\n    /* \"#utility.yul\":1451:1553   */\ntag_32:\n    /* \"#utility.yul\":1492:1498   */\n  0x00\n    /* \"#utility.yul\":1543:1545   */\n  0x1f\n    /* \"#utility.yul\":1539:1546   */\n  not\n    /* \"#utility.yul\":1534:1536   */\n  0x1f\n    /* \"#utility.yul\":1527:1532   */\n  dup4\n    /* \"#utility.yul\":1523:1537   */\n  add\n    /* \"#utility.yul\":1519:1547   */\n  and\n    /* \"#utility.yul\":1509:1547   */\n  swap1\n  pop\n    /* \"#utility.yul\":1451:1553   */\n  swap2\n  swap1\n  pop\n  jump\t// out\n    /* \"#utility.yul\":1559:1739   */\ntag_33:\n    /* \"#utility.yul\":1607:1684   */\n  0x4e487b7100000000000000000000000000000000000000000000000000000000\n    /* \"#utility.yul\":1604:1605   */\n  0x00\n    /* \"#utility.yul\":1597:1685   */\n  mstore\n    /* \"#utility.yul\":1704:1708   */\n  0x41\n    /* \"#utility.yul\":1701:1702   */\n  0x04\n    /* \"#utility.yul\":1694:1709   */\n  mstore\n    /* \"#utility.yul\":1728:1732   */\n  0x24\n    /* \"#utility.yul\":1725:1726   */\n  0x00\n    /* \"#utility.yul\":1718:1733   */\n  revert\n    /* \"#utility.yul\":1745:2026   */\ntag_34:\n    /* \"#utility.yul\":1828:1855   */\n  tag_64\n    /* \"#utility.yul\":1850:1854   */\n  dup3\n    /* \"#utility.yul\":1828:1855   */\n  tag_32\n  jump\t// in\ntag_64:\n    /* \"#utility.yul\":1820:1826   */\n  dup2\n    /* \"#utility.yul\":1816:1856   */\n  add\n    /* \"#utility.yul\":1958:1964   */\n  dup2\n    /* \"#utility.yul\":1946:1956   */\n  dup2\n    /* \"#utility.yul\":1943:1965   */\n  lt\n    /* \"#utility.yul\":1922:1940   */\n  0xffffffffffffffff\n    /* \"#utility.yul\":1910:1920   */\n  dup3\n    /* \"#utility.yul\":1907:1941   */\n  gt\n    /* \"#utility.yul\":1904:1966   */\n  or\n    /* \"#utility.yul\":1901:1989   */\n  iszero\n  tag_65\n  jumpi\n    /* \"#utility.yul\":1969:1987   */\n  tag_66\n  tag_33\n  jump\t// in\ntag_66:\n    /* \"#utility.yul\":1901:1989   */\ntag_65:\n    /* \"#utility.yul\":2009:2019   */\n  dup1\n    /* \"#utility.yul\":2005:2007   */\n  0x40\n    /* \"#utility.yul\":1998:2020   */\n  mstore\n    /* \"#utility.yul\":1788:2026   */\n  pop\n    /* \"#utility.yul\":1745:2026   */\n  pop\n  pop\n  jump\t// out\n    /* \"#utility.yul\":2032:2161   */\ntag_35:\n    /* \"#utility.yul\":2066:2072   */\n  0x00\n    /* \"#utility.yul\":2093:2113   */\n  tag_68\n  tag_20\n  jump\t// in\ntag_68:\n    /* \"#utility.yul\":2083:2113   */\n  swap1\n  pop\n    /* \"#utility.yul\":2122:2155   */\n  tag_69\n    /* \"#utility.yul\":2150:2154   */\n  dup3\n    /* \"#utility.yul\":2142:2148   */\n  dup3\n    /* \"#utility.yul\":2122:2155   */\n  tag_34\n  jump\t// in\ntag_69:\n    /* \"#utility.yul\":2032:2161   */\n  swap2\n  swap1\n  pop\n  jump\t// out\n    /* \"#utility.yul\":2167:2475   */\ntag_36:\n    /* \"#utility.yul\":2229:2233   */\n  0x00\n    /* \"#utility.yul\":2319:2337   */\n  0xffffffffffffffff\n    /* \"#utility.yul\":2311:2317   */\n  dup3\n    /* \"#utility.yul\":2308:2338   */\n  gt\n    /* \"#utility.yul\":2305:2361   */\n  iszero\n  tag_71\n  jumpi\n    /* \"#utility.yul\":2341:2359   */\n  tag_72\n  tag_33\n  jump\t// in\ntag_72:\n    /* \"#utility.yul\":2305:2361   */\ntag_71:\n    /* \"#utility.yul\":2379:2408   */\n  tag_73\n    /* \"#utility.yul\":2401:2407   */\n  dup3\n    /* \"#utility.yul\":2379:2408   */\n  tag_32\n  jump\t// in\ntag_73:\n    /* \"#utility.yul\":2371:2408   */\n  swap1\n  pop\n    /* \"#utility.yul\":2463:2467   */\n  0x20\n    /* \"#utility.yul\":2457:2461   */\n  dup2\n    /* \"#utility.yul\":2453:2468   */\n  add\n    /* \"#utility.yul\":2445:2468   */\n  swap1\n  pop\n    /* \"#utility.yul\":2167:2475   */\n  swap2\n  swap1\n  pop\n  jump\t// out\n    /* \"#utility.yul\":2481:2788   */\ntag_37:\n    /* \"#utility.yul\":2549:2550   */\n  0x00\n    /* \"#utility.yul\":2559:2672   */\ntag_75:\n    /* \"#utility.yul\":2573:2579   */\n  dup4\n    /* \"#utility.yul\":2570:2571   */\n  dup2\n    /* \"#utility.yul\":2567:2580   */\n  lt\n    /* \"#utility.yul\":2559:2672   */\n  iszero\n  tag_77\n  jumpi\n    /* \"#utility.yul\":2658:2659   */\n  dup1\n    /* \"#utility.yul\":2653:2656   */\n  dup3\n    /* \"#utility.yul\":2649:2660   */\n  add\n    /* \"#utility.yul\":2643:2661   */\n  mload\n    /* \"#utility.yul\":2639:2640   */\n  dup2\n    /* \"#utility.yul\":2634:2637   */\n  dup5\n    /* \"#utility.yul\":2630:2641   */\n  add\n    /* \"#utility.yul\":2623:2662   */\n  mstore\n    /* \"#utility.yul\":2595:2597   */\n  0x20\n    /* \"#utility.yul\":2592:2593   */\n  dup2\n    /* \"#utility.yul\":2588:2598   */\n  add\n    /* \"#utility.yul\":2583:2598   */\n  swap1\n  pop\n    /* \"#utility.yul\":2559:2672   */\n  jump(tag_75)\ntag_77:\n    /* \"#utility.yul\":2690:2696   */\n  dup4\n    /* \"#utility.yul\":2687:2688   */\n  dup2\n    /* \"#utility.yul\":2684:2697   */\n  gt\n    /* \"#utility.yul\":2681:2782   */\n  iszero\n  tag_78\n  jumpi\n    /* \"#utility.yul\":2770:2771   */\n  0x00\n    /* \"#utility.yul\":2761:2767   */\n  dup5\n    /* \"#utility.yul\":2756:2759   */\n  dup5\n    /* \"#utility.yul\":2752:2768   */\n  add\n    /* \"#utility.yul\":2745:2772   */\n  mstore\n    /* \"#utility.yul\":2681:2782   */\ntag_78:\n    /* \"#utility.yul\":2530:2788   */\n  pop\n    /* \"#utility.yul\":2481:2788   */\n  pop\n  pop\n  pop\n  jump\t// out\n    /* \"#utility.yul\":2794:3215   */\ntag_38:\n    /* \"#utility.yul\":2883:2888   */\n  0x00\n    /* \"#utility.yul\":2908:2974   */\n  tag_80\n    /* \"#utility.yul\":2924:2973   */\n  tag_81\n    /* \"#utility.yul\":2966:2972   */\n  dup5\n    /* \"#utility.yul\":2924:2973   */\n  tag_36\n  jump\t// in\ntag_81:\n    /* \"#utility.yul\":2908:2974   */\n  tag_35\n  jump\t// in\ntag_80:\n    /* \"#utility.yul\":2899:2974   */\n  swap1\n  pop\n    /* \"#utility.yul\":2997:3003   */\n  dup3\n    /* \"#utility.yul\":2990:2995   */\n  dup2\n    /* \"#utility.yul\":2983:3004   */\n  mstore\n    /* \"#utility.yul\":3035:3039   */\n  0x20\n    /* \"#utility.yul\":3028:3033   */\n  dup2\n    /* \"#utility.yul\":3024:3040   */\n  add\n    /* \"#utility.yul\":3073:3076   */\n  dup5\n    /* \"#utility.yul\":3064:3070   */\n  dup5\n    /* \"#utility.yul\":3059:3062   */\n  dup5\n    /* \"#utility.yul\":3055:3071   */\n  add\n    /* \"#utility.yul\":3052:3077   */\n  gt\n    /* \"#utility.yul\":3049:3161   */\n  iszero\n  tag_82\n  jumpi\n    /* \"#utility.yul\":3080:3159   */\n  tag_83\n  tag_31\n  jump\t// in\ntag_83:\n    /* \"#utility.yul\":3049:3161   */\ntag_82:\n    /* \"#utility.yul\":3170:3209   */\n  tag_84\n    /* \"#utility.yul\":3202:3208   */\n  dup5\n    /* \"#utility.yul\":3197:3200   */\n  dup3\n    /* \"#utility.yul\":3192:3195   */\n  dup6\n    /* \"#utility.yul\":3170:3209   */\n  tag_37\n  jump\t// in\ntag_84:\n    /* \"#utility.yul\":2889:3215   */\n  pop\n    /* \"#utility.yul\":2794:3215   */\n  swap4\n  swap3\n  pop\n  pop\n  pop\n  jump\t// out\n    /* \"#utility.yul\":3235:3590   */\ntag_39:\n    /* \"#utility.yul\":3302:3307   */\n  0x00\n    /* \"#utility.yul\":3351:3354   */\n  dup3\n    /* \"#utility.yul\":3344:3348   */\n  0x1f\n    /* \"#utility.yul\":3336:3342   */\n  dup4\n    /* \"#utility.yul\":3332:3349   */\n  add\n    /* \"#utility.yul\":3328:3355   */\n  slt\n    /* \"#utility.yul\":3318:3440   */\n  tag_86\n  jumpi\n    /* \"#utility.yul\":3359:3438   */\n  tag_87\n  tag_30\n  jump\t// in\ntag_87:\n    /* \"#utility.yul\":3318:3440   */\ntag_86:\n    /* \"#utility.yul\":3469:3475   */\n  dup2\n    /* \"#utility.yul\":3463:3476   */\n  mload\n    /* \"#utility.yul\":3494:3584   */\n  tag_88\n    /* \"#utility.yul\":3580:3583   */\n  dup5\n    /* \"#utility.yul\":3572:3578   */\n  dup3\n    /* \"#utility.yul\":3565:3569   */\n  0x20\n    /* \"#utility.yul\":3557:3563   */\n  dup7\n    /* \"#utility.yul\":3553:3570   */\n  add\n    /* \"#utility.yul\":3494:3584   */\n  tag_38\n  jump\t// in\ntag_88:\n    /* \"#utility.yul\":3485:3584   */\n  swap2\n  pop\n    /* \"#utility.yul\":3308:3590   */\n  pop\n    /* \"#utility.yul\":3235:3590   */\n  swap3\n  swap2\n  pop\n  pop\n  jump\t// out\n    /* \"#utility.yul\":3596:4432   */\ntag_3:\n    /* \"#utility.yul\":3694:3700   */\n  0x00\n    /* \"#utility.yul\":3702:3708   */\n  dup1\n    /* \"#utility.yul\":3710:3716   */\n  0x00\n    /* \"#utility.yul\":3759:3761   */\n  0x60\n    /* \"#utility.yul\":3747:3756   */\n  dup5\n    /* \"#utility.yul\":3738:3745   */\n  dup7\n    /* \"#utility.yul\":3734:3757   */\n  sub\n    /* \"#utility.yul\":3730:3762   */\n  slt\n    /* \"#utility.yul\":3727:3846   */\n  iszero\n  tag_90\n  jumpi\n    /* \"#utility.yul\":3765:3844   */\n  tag_91\n  tag_21\n  jump\t// in\ntag_91:\n    /* \"#utility.yul\":3727:3846   */\ntag_90:\n    /* \"#utility.yul\":3885:3886   */\n  0x00\n    /* \"#utility.yul\":3910:3974   */\n  tag_92\n    /* \"#utility.yul\":3966:3973   */\n  dup7\n    /* \"#utility.yul\":3957:3963   */\n  dup3\n    /* \"#utility.yul\":3946:3955   */\n  dup8\n    /* \"#utility.yul\":3942:3964   */\n  add\n    /* \"#utility.yul\":3910:3974   */\n  tag_25\n  jump\t// in\ntag_92:\n    /* \"#utility.yul\":3900:3974   */\n  swap4\n  pop\n    /* \"#utility.yul\":3856:3984   */\n  pop\n    /* \"#utility.yul\":4023:4025   */\n  0x20\n    /* \"#utility.yul\":4049:4113   */\n  tag_93\n    /* \"#utility.yul\":4105:4112   */\n  dup7\n    /* \"#utility.yul\":4096:4102   */\n  dup3\n    /* \"#utility.yul\":4085:4094   */\n  dup8\n    /* \"#utility.yul\":4081:4103   */\n  add\n    /* \"#utility.yul\":4049:4113   */\n  tag_29\n  jump\t// in\ntag_93:\n    /* \"#utility.yul\":4039:4113   */\n  swap3\n  pop\n    /* \"#utility.yul\":3994:4123   */\n  pop\n    /* \"#utility.yul\":4183:4185   */\n  0x40\n    /* \"#utility.yul\":4172:4181   */\n  dup5\n    /* \"#utility.yul\":4168:4186   */\n  add\n    /* \"#utility.yul\":4162:4187   */\n  mload\n    /* \"#utility.yul\":4214:4232   */\n  0xffffffffffffffff\n    /* \"#utility.yul\":4206:4212   */\n  dup2\n    /* \"#utility.yul\":4203:4233   */\n  gt\n    /* \"#utility.yul\":4200:4317   */\n  iszero\n  tag_94\n  jumpi\n    /* \"#utility.yul\":4236:4315   */\n  tag_95\n  tag_22\n  jump\t// in\ntag_95:\n    /* \"#utility.yul\":4200:4317   */\ntag_94:\n    /* \"#utility.yul\":4341:4415   */\n  tag_96\n    /* \"#utility.yul\":4407:4414   */\n  dup7\n    /* \"#utility.yul\":4398:4404   */\n  dup3\n    /* \"#utility.yul\":4387:4396   */\n  dup8\n    /* \"#utility.yul\":4383:4405   */\n  add\n    /* \"#utility.yul\":4341:4415   */\n  tag_39\n  jump\t// in\ntag_96:\n    /* \"#utility.yul\":4331:4415   */\n  swap2\n  pop\n    /* \"#utility.yul\":4133:4425   */\n  pop\n    /* \"#utility.yul\":3596:4432   */\n  swap3\n  pop\n  swap3\n  pop\n  swap3\n  jump\t// out\n    /* \"#utility.yul\":4438:4618   */\ntag_40:\n    /* \"#utility.yul\":4486:4563   */\n  0x4e487b7100000000000000000000000000000000000000000000000000000000\n    /* \"#utility.yul\":4483:4484   */\n  0x00\n    /* \"#utility.yul\":4476:4564   */\n  mstore\n    /* \"#utility.yul\":4583:4587   */\n  0x22\n    /* \"#utility.yul\":4580:4581   */\n  0x04\n    /* \"#utility.yul\":4573:4588   */\n  mstore\n    /* \"#utility.yul\":4607:4611   */\n  0x24\n    /* \"#utility.yul\":4604:4605   */\n  0x00\n    /* \"#utility.yul\":4597:4612   */\n  revert\n    /* \"#utility.yul\":4624:4944   */\ntag_10:\n    /* \"#utility.yul\":4668:4674   */\n  0x00\n    /* \"#utility.yul\":4705:4706   */\n  0x02\n    /* \"#utility.yul\":4699:4703   */\n  dup3\n    /* \"#utility.yul\":4695:4707   */\n  div\n    /* \"#utility.yul\":4685:4707   */\n  swap1\n  pop\n    /* \"#utility.yul\":4752:4753   */\n  0x01\n    /* \"#utility.yul\":4746:4750   */\n  dup3\n    /* \"#utility.yul\":4742:4754   */\n  and\n    /* \"#utility.yul\":4773:4791   */\n  dup1\n    /* \"#utility.yul\":4763:4844   */\n  tag_99\n  jumpi\n    /* \"#utility.yul\":4829:4833   */\n  0x7f\n    /* \"#utility.yul\":4821:4827   */\n  dup3\n    /* \"#utility.yul\":4817:4834   */\n  and\n    /* \"#utility.yul\":4807:4834   */\n  swap2\n  pop\n    /* \"#utility.yul\":4763:4844   */\ntag_99:\n    /* \"#utility.yul\":4891:4893   */\n  0x20\n    /* \"#utility.yul\":4883:4889   */\n  dup3\n    /* \"#utility.yul\":4880:4894   */\n  lt\n    /* \"#utility.yul\":4860:4878   */\n  dup2\n    /* \"#utility.yul\":4857:4895   */\n  sub\n    /* \"#utility.yul\":4854:4938   */\n  tag_100\n  jumpi\n    /* \"#utility.yul\":4910:4928   */\n  tag_101\n  tag_40\n  jump\t// in\ntag_101:\n    /* \"#utility.yul\":4854:4938   */\ntag_100:\n    /* \"#utility.yul\":4675:4944   */\n  pop\n    /* \"#utility.yul\":4624:4944   */\n  swap2\n  swap1\n  pop\n  jump\t// out\n    /* \"Campaign.sol\":644:3857  contract Campaign {... */\ntag_8:\n  dataSize(sub_0)\n  dup1\n  dataOffset(sub_0)\n  0x00\n  codecopy\n  0x00\n  return\nstop\n\nsub_0: assembly {\n        /* \"Campaign.sol\":644:3857  contract Campaign {... */\n      mstore(0x40, 0x80)\n      jumpi(tag_1, lt(calldatasize, 0x04))\n      shr(0xe0, calldataload(0x00))\n      dup1\n      0x8a9cfd55\n      gt\n      tag_14\n      jumpi\n      dup1\n      0x8a9cfd55\n      eq\n      tag_8\n      jumpi\n      dup1\n      0x937e09b1\n      eq\n      tag_9\n      jumpi\n      dup1\n      0x9fb42b1f\n      eq\n      tag_10\n      jumpi\n      dup1\n      0xd7bb99ba\n      eq\n      tag_11\n      jumpi\n      dup1\n      0xd7d1bbdb\n      eq\n      tag_12\n      jumpi\n      dup1\n      0xecfd8928\n      eq\n      tag_13\n      jumpi\n      jump(tag_1)\n    tag_14:\n      dup1\n      0x03441006\n      eq\n      tag_2\n      jumpi\n      dup1\n      0x110842cb\n      eq\n      tag_3\n      jumpi\n      dup1\n      0x1f6d4942\n      eq\n      tag_4\n      jumpi\n      dup1\n      0x4051ddac\n      eq\n      tag_5\n      jumpi\n      dup1\n      0x481c6a75\n      eq\n      tag_6\n      jumpi\n      dup1\n      0x81d12c58\n      eq\n      tag_7\n      jumpi\n    tag_1:\n      0x00\n      dup1\n      revert\n        /* \"Campaign.sol\":3024:3560  function finalizeRequest(uint index) public restricted {... */\n    tag_2:\n      callvalue\n      dup1\n      iszero\n      tag_15\n      jumpi\n      0x00\n      dup1\n      revert\n    tag_15:\n      pop\n      tag_16\n      0x04\n      dup1\n      calldatasize\n      sub\n      dup2\n      add\n      swap1\n      tag_17\n      swap2\n      swap1\n      tag_18\n      jump\t// in\n    tag_17:\n      tag_19\n      jump\t// in\n    tag_16:\n      stop\n        /* \"Campaign.sol\":969:1002  string public campaignDescription */\n    tag_3:\n      callvalue\n      dup1\n      iszero\n      tag_20\n      jumpi\n      0x00\n      dup1\n      revert\n    tag_20:\n      pop\n      tag_21\n      tag_22\n      jump\t// in\n    tag_21:\n      mload(0x40)\n      tag_23\n      swap2\n      swap1\n      tag_24\n      jump\t// in\n    tag_23:\n      mload(0x40)\n      dup1\n      swap2\n      sub\n      swap1\n      return\n        /* \"Campaign.sol\":1047:1091  mapping(address => bool) public contributors */\n    tag_4:\n      callvalue\n      dup1\n      iszero\n      tag_25\n      jumpi\n      0x00\n      dup1\n      revert\n    tag_25:\n      pop\n      tag_26\n      0x04\n      dup1\n      calldatasize\n      sub\n      dup2\n      add\n      swap1\n      tag_27\n      swap2\n      swap1\n      tag_28\n      jump\t// in\n    tag_27:\n      tag_29\n      jump\t// in\n    tag_26:\n      mload(0x40)\n      tag_30\n      swap2\n      swap1\n      tag_31\n      jump\t// in\n    tag_30:\n      mload(0x40)\n      dup1\n      swap2\n      sub\n      swap1\n      return\n        /* \"Campaign.sol\":3568:3854  function getSummary() public view returns(uint, uint, uint, uint, address, string memory) {... */\n    tag_5:\n      callvalue\n      dup1\n      iszero\n      tag_32\n      jumpi\n      0x00\n      dup1\n      revert\n    tag_32:\n      pop\n      tag_33\n      tag_34\n      jump\t// in\n    tag_33:\n      mload(0x40)\n      tag_35\n      swap7\n      swap6\n      swap5\n      swap4\n      swap3\n      swap2\n      swap1\n      tag_36\n      jump\t// in\n    tag_35:\n      mload(0x40)\n      dup1\n      swap2\n      sub\n      swap1\n      return\n        /* \"Campaign.sol\":940:962  address public manager */\n    tag_6:\n      callvalue\n      dup1\n      iszero\n      tag_37\n      jumpi\n      0x00\n      dup1\n      revert\n    tag_37:\n      pop\n      tag_38\n      tag_39\n      jump\t// in\n    tag_38:\n      mload(0x40)\n      tag_40\n      swap2\n      swap1\n      tag_41\n      jump\t// in\n    tag_40:\n      mload(0x40)\n      dup1\n      swap2\n      sub\n      swap1\n      return\n        /* \"Campaign.sol\":1165:1206  mapping (uint => Request) public requests */\n    tag_7:\n      callvalue\n      dup1\n      iszero\n      tag_42\n      jumpi\n      0x00\n      dup1\n      revert\n    tag_42:\n      pop\n      tag_43\n      0x04\n      dup1\n      calldatasize\n      sub\n      dup2\n      add\n      swap1\n      tag_44\n      swap2\n      swap1\n      tag_18\n      jump\t// in\n    tag_44:\n      tag_45\n      jump\t// in\n    tag_43:\n      mload(0x40)\n      tag_46\n      swap6\n      swap5\n      swap4\n      swap3\n      swap2\n      swap1\n      tag_47\n      jump\t// in\n    tag_46:\n      mload(0x40)\n      dup1\n      swap2\n      sub\n      swap1\n      return\n        /* \"Campaign.sol\":1889:2633  function createRequest(string memory description, uint amount, address recipient)... */\n    tag_8:\n      callvalue\n      dup1\n      iszero\n      tag_48\n      jumpi\n      0x00\n      dup1\n      revert\n    tag_48:\n      pop\n      tag_49\n      0x04\n      dup1\n      calldatasize\n      sub\n      dup2\n      add\n      swap1\n      tag_50\n      swap2\n      swap1\n      tag_51\n      jump\t// in\n    tag_50:\n      tag_52\n      jump\t// in\n    tag_49:\n      stop\n        /* \"Campaign.sol\":1009:1040  uint public minimumContribution */\n    tag_9:\n      callvalue\n      dup1\n      iszero\n      tag_53\n      jumpi\n      0x00\n      dup1\n      revert\n    tag_53:\n      pop\n      tag_54\n      tag_55\n      jump\t// in\n    tag_54:\n      mload(0x40)\n      tag_56\n      swap2\n      swap1\n      tag_57\n      jump\t// in\n    tag_56:\n      mload(0x40)\n      dup1\n      swap2\n      sub\n      swap1\n      return\n        /* \"Campaign.sol\":1135:1158  uint public numRequests */\n    tag_10:\n      callvalue\n      dup1\n      iszero\n      tag_58\n      jumpi\n      0x00\n      dup1\n      revert\n    tag_58:\n      pop\n      tag_59\n      tag_60\n      jump\t// in\n    tag_59:\n      mload(0x40)\n      tag_61\n      swap2\n      swap1\n      tag_57\n      jump\t// in\n    tag_61:\n      mload(0x40)\n      dup1\n      swap2\n      sub\n      swap1\n      return\n        /* \"Campaign.sol\":1663:1881  function contribute() public payable {... */\n    tag_11:\n      tag_62\n      tag_63\n      jump\t// in\n    tag_62:\n      stop\n        /* \"Campaign.sol\":2641:3016  function approveRequest(uint index) public {... */\n    tag_12:\n      callvalue\n      dup1\n      iszero\n      tag_64\n      jumpi\n      0x00\n      dup1\n      revert\n    tag_64:\n      pop\n      tag_65\n      0x04\n      dup1\n      calldatasize\n      sub\n      dup2\n      add\n      swap1\n      tag_66\n      swap2\n      swap1\n      tag_18\n      jump\t// in\n    tag_66:\n      tag_67\n      jump\t// in\n    tag_65:\n      stop\n        /* \"Campaign.sol\":1098:1126  uint public contributorCount */\n    tag_13:\n      callvalue\n      dup1\n      iszero\n      tag_68\n      jumpi\n      0x00\n      dup1\n      revert\n    tag_68:\n      pop\n      tag_69\n      tag_70\n      jump\t// in\n    tag_69:\n      mload(0x40)\n      tag_71\n      swap2\n      swap1\n      tag_57\n      jump\t// in\n    tag_71:\n      mload(0x40)\n      dup1\n      swap2\n      sub\n      swap1\n      return\n        /* \"Campaign.sol\":3024:3560  function finalizeRequest(uint index) public restricted {... */\n    tag_19:\n        /* \"Campaign.sol\":1305:1312  manager */\n      0x00\n      dup1\n      sload\n      swap1\n      0x0100\n      exp\n      swap1\n      div\n      0xffffffffffffffffffffffffffffffffffffffff\n      and\n        /* \"Campaign.sol\":1291:1312  msg.sender == manager */\n      0xffffffffffffffffffffffffffffffffffffffff\n      and\n        /* \"Campaign.sol\":1291:1301  msg.sender */\n      caller\n        /* \"Campaign.sol\":1291:1312  msg.sender == manager */\n      0xffffffffffffffffffffffffffffffffffffffff\n      and\n      eq\n        /* \"Campaign.sol\":1283:1313  require(msg.sender == manager) */\n      tag_73\n      jumpi\n      0x00\n      dup1\n      revert\n    tag_73:\n        /* \"Campaign.sol\":3090:3113  Request storage request */\n      0x00\n        /* \"Campaign.sol\":3116:3124  requests */\n      0x06\n        /* \"Campaign.sol\":3116:3131  requests[index] */\n      0x00\n        /* \"Campaign.sol\":3125:3130  index */\n      dup4\n        /* \"Campaign.sol\":3116:3131  requests[index] */\n      dup2\n      mstore\n      0x20\n      add\n      swap1\n      dup2\n      mstore\n      0x20\n      add\n      0x00\n      keccak256\n        /* \"Campaign.sol\":3090:3131  Request storage request = requests[index] */\n      swap1\n      pop\n        /* \"Campaign.sol\":3153:3160  request */\n      dup1\n        /* \"Campaign.sol\":3153:3169  request.complete */\n      0x02\n      add\n      0x14\n      swap1\n      sload\n      swap1\n      0x0100\n      exp\n      swap1\n      div\n      0xff\n      and\n        /* \"Campaign.sol\":3152:3169  !request.complete */\n      iszero\n        /* \"Campaign.sol\":3144:3201  require(!request.complete, \"Request can't be completed!\") */\n      tag_75\n      jumpi\n      mload(0x40)\n      0x08c379a000000000000000000000000000000000000000000000000000000000\n      dup2\n      mstore\n      0x04\n      add\n      tag_76\n      swap1\n      tag_77\n      jump\t// in\n    tag_76:\n      mload(0x40)\n      dup1\n      swap2\n      sub\n      swap1\n      revert\n    tag_75:\n        /* \"Campaign.sol\":3264:3265  2 */\n      0x02\n        /* \"Campaign.sol\":3245:3261  contributorCount */\n      sload(0x04)\n        /* \"Campaign.sol\":3245:3265  contributorCount / 2 */\n      tag_78\n      swap2\n      swap1\n      tag_79\n      jump\t// in\n    tag_78:\n        /* \"Campaign.sol\":3220:3227  request */\n      dup2\n        /* \"Campaign.sol\":3220:3241  request.approvalCount */\n      0x03\n      add\n      sload\n        /* \"Campaign.sol\":3220:3266  request.approvalCount > (contributorCount / 2) */\n      gt\n        /* \"Campaign.sol\":3212:3331  require(request.approvalCount > (contributorCount / 2), \"Request should be approved by more than 50% of contributors!\") */\n      tag_80\n      jumpi\n      mload(0x40)\n      0x08c379a000000000000000000000000000000000000000000000000000000000\n      dup2\n      mstore\n      0x04\n      add\n      tag_81\n      swap1\n      tag_82\n      jump\t// in\n    tag_81:\n      mload(0x40)\n      dup1\n      swap2\n      sub\n      swap1\n      revert\n    tag_80:\n        /* \"Campaign.sol\":3367:3388  address(this).balance */\n      selfbalance\n        /* \"Campaign.sol\":3350:3357  request */\n      dup2\n        /* \"Campaign.sol\":3350:3364  request.amount */\n      0x01\n      add\n      sload\n        /* \"Campaign.sol\":3350:3388  request.amount < address(this).balance */\n      lt\n        /* \"Campaign.sol\":3342:3454  require(request.amount < address(this).balance, \"Contract balance needs to be higher than the required amount!\") */\n      tag_83\n      jumpi\n      mload(0x40)\n      0x08c379a000000000000000000000000000000000000000000000000000000000\n      dup2\n      mstore\n      0x04\n      add\n      tag_84\n      swap1\n      tag_85\n      jump\t// in\n    tag_84:\n      mload(0x40)\n      dup1\n      swap2\n      sub\n      swap1\n      revert\n    tag_83:\n        /* \"Campaign.sol\":3475:3482  request */\n      dup1\n        /* \"Campaign.sol\":3475:3492  request.recipient */\n      0x02\n      add\n      0x00\n      swap1\n      sload\n      swap1\n      0x0100\n      exp\n      swap1\n      div\n      0xffffffffffffffffffffffffffffffffffffffff\n      and\n        /* \"Campaign.sol\":3467:3502  payable(request.recipient).transfer */\n      0xffffffffffffffffffffffffffffffffffffffff\n      and\n        /* \"Campaign.sol\":3467:3518  payable(request.recipient).transfer(request.amount) */\n      0x08fc\n        /* \"Campaign.sol\":3503:3510  request */\n      dup3\n        /* \"Campaign.sol\":3503:3517  request.amount */\n      0x01\n      add\n      sload\n        /* \"Campaign.sol\":3467:3518  payable(request.recipient).transfer(request.amount) */\n      swap1\n      dup2\n      iszero\n      mul\n      swap1\n      mload(0x40)\n      0x00\n      mload(0x40)\n      dup1\n      dup4\n      sub\n      dup2\n      dup6\n      dup9\n      dup9\n      call\n      swap4\n      pop\n      pop\n      pop\n      pop\n      iszero\n      dup1\n      iszero\n      tag_87\n      jumpi\n      returndatasize\n      0x00\n      dup1\n      returndatacopy\n      revert(0x00, returndatasize)\n    tag_87:\n      pop\n        /* \"Campaign.sol\":3548:3552  true */\n      0x01\n        /* \"Campaign.sol\":3529:3536  request */\n      dup2\n        /* \"Campaign.sol\":3529:3545  request.complete */\n      0x02\n      add\n      0x14\n        /* \"Campaign.sol\":3529:3552  request.complete = true */\n      0x0100\n      exp\n      dup2\n      sload\n      dup2\n      0xff\n      mul\n      not\n      and\n      swap1\n      dup4\n      iszero\n      iszero\n      mul\n      or\n      swap1\n      sstore\n      pop\n        /* \"Campaign.sol\":3079:3560  {... */\n      pop\n        /* \"Campaign.sol\":3024:3560  function finalizeRequest(uint index) public restricted {... */\n      pop\n      jump\t// out\n        /* \"Campaign.sol\":969:1002  string public campaignDescription */\n    tag_22:\n      0x01\n      dup1\n      sload\n      tag_88\n      swap1\n      tag_89\n      jump\t// in\n    tag_88:\n      dup1\n      0x1f\n      add\n      0x20\n      dup1\n      swap2\n      div\n      mul\n      0x20\n      add\n      mload(0x40)\n      swap1\n      dup2\n      add\n      0x40\n      mstore\n      dup1\n      swap3\n      swap2\n      swap1\n      dup2\n      dup2\n      mstore\n      0x20\n      add\n      dup3\n      dup1\n      sload\n      tag_90\n      swap1\n      tag_89\n      jump\t// in\n    tag_90:\n      dup1\n      iszero\n      tag_91\n      jumpi\n      dup1\n      0x1f\n      lt\n      tag_92\n      jumpi\n      0x0100\n      dup1\n      dup4\n      sload\n      div\n      mul\n      dup4\n      mstore\n      swap2\n      0x20\n      add\n      swap2\n      jump(tag_91)\n    tag_92:\n      dup3\n      add\n      swap2\n      swap1\n      0x00\n      mstore\n      keccak256(0x00, 0x20)\n      swap1\n    tag_93:\n      dup2\n      sload\n      dup2\n      mstore\n      swap1\n      0x01\n      add\n      swap1\n      0x20\n      add\n      dup1\n      dup4\n      gt\n      tag_93\n      jumpi\n      dup3\n      swap1\n      sub\n      0x1f\n      and\n      dup3\n      add\n      swap2\n    tag_91:\n      pop\n      pop\n      pop\n      pop\n      pop\n      dup2\n      jump\t// out\n        /* \"Campaign.sol\":1047:1091  mapping(address => bool) public contributors */\n    tag_29:\n      mstore(0x20, 0x03)\n      dup1\n      0x00\n      mstore\n      keccak256(0x00, 0x40)\n      0x00\n      swap2\n      pop\n      sload\n      swap1\n      0x0100\n      exp\n      swap1\n      div\n      0xff\n      and\n      dup2\n      jump\t// out\n        /* \"Campaign.sol\":3568:3854  function getSummary() public view returns(uint, uint, uint, uint, address, string memory) {... */\n    tag_34:\n        /* \"Campaign.sol\":3610:3614  uint */\n      0x00\n        /* \"Campaign.sol\":3616:3620  uint */\n      dup1\n        /* \"Campaign.sol\":3622:3626  uint */\n      0x00\n        /* \"Campaign.sol\":3628:3632  uint */\n      dup1\n        /* \"Campaign.sol\":3634:3641  address */\n      0x00\n        /* \"Campaign.sol\":3643:3656  string memory */\n      0x60\n        /* \"Campaign.sol\":3687:3706  minimumContribution */\n      sload(0x02)\n        /* \"Campaign.sol\":3717:3738  address(this).balance */\n      selfbalance\n        /* \"Campaign.sol\":3749:3760  numRequests */\n      sload(0x05)\n        /* \"Campaign.sol\":3771:3787  contributorCount */\n      sload(0x04)\n        /* \"Campaign.sol\":3798:3805  manager */\n      0x00\n      dup1\n      sload\n      swap1\n      0x0100\n      exp\n      swap1\n      div\n      0xffffffffffffffffffffffffffffffffffffffff\n      and\n        /* \"Campaign.sol\":3816:3835  campaignDescription */\n      0x01\n        /* \"Campaign.sol\":3669:3846  return (... */\n      dup1\n      dup1\n      sload\n      tag_95\n      swap1\n      tag_89\n      jump\t// in\n    tag_95:\n      dup1\n      0x1f\n      add\n      0x20\n      dup1\n      swap2\n      div\n      mul\n      0x20\n      add\n      mload(0x40)\n      swap1\n      dup2\n      add\n      0x40\n      mstore\n      dup1\n      swap3\n      swap2\n      swap1\n      dup2\n      dup2\n      mstore\n      0x20\n      add\n      dup3\n      dup1\n      sload\n      tag_96\n      swap1\n      tag_89\n      jump\t// in\n    tag_96:\n      dup1\n      iszero\n      tag_97\n      jumpi\n      dup1\n      0x1f\n      lt\n      tag_98\n      jumpi\n      0x0100\n      dup1\n      dup4\n      sload\n      div\n      mul\n      dup4\n      mstore\n      swap2\n      0x20\n      add\n      swap2\n      jump(tag_97)\n    tag_98:\n      dup3\n      add\n      swap2\n      swap1\n      0x00\n      mstore\n      keccak256(0x00, 0x20)\n      swap1\n    tag_99:\n      dup2\n      sload\n      dup2\n      mstore\n      swap1\n      0x01\n      add\n      swap1\n      0x20\n      add\n      dup1\n      dup4\n      gt\n      tag_99\n      jumpi\n      dup3\n      swap1\n      sub\n      0x1f\n      and\n      dup3\n      add\n      swap2\n    tag_97:\n      pop\n      pop\n      pop\n      pop\n      pop\n      swap1\n      pop\n      swap6\n      pop\n      swap6\n      pop\n      swap6\n      pop\n      swap6\n      pop\n      swap6\n      pop\n      swap6\n      pop\n        /* \"Campaign.sol\":3568:3854  function getSummary() public view returns(uint, uint, uint, uint, address, string memory) {... */\n      swap1\n      swap2\n      swap3\n      swap4\n      swap5\n      swap6\n      jump\t// out\n        /* \"Campaign.sol\":940:962  address public manager */\n    tag_39:\n      0x00\n      dup1\n      sload\n      swap1\n      0x0100\n      exp\n      swap1\n      div\n      0xffffffffffffffffffffffffffffffffffffffff\n      and\n      dup2\n      jump\t// out\n        /* \"Campaign.sol\":1165:1206  mapping (uint => Request) public requests */\n    tag_45:\n      mstore(0x20, 0x06)\n      dup1\n      0x00\n      mstore\n      keccak256(0x00, 0x40)\n      0x00\n      swap2\n      pop\n      swap1\n      pop\n      dup1\n      0x00\n      add\n      dup1\n      sload\n      tag_100\n      swap1\n      tag_89\n      jump\t// in\n    tag_100:\n      dup1\n      0x1f\n      add\n      0x20\n      dup1\n      swap2\n      div\n      mul\n      0x20\n      add\n      mload(0x40)\n      swap1\n      dup2\n      add\n      0x40\n      mstore\n      dup1\n      swap3\n      swap2\n      swap1\n      dup2\n      dup2\n      mstore\n      0x20\n      add\n      dup3\n      dup1\n      sload\n      tag_101\n      swap1\n      tag_89\n      jump\t// in\n    tag_101:\n      dup1\n      iszero\n      tag_102\n      jumpi\n      dup1\n      0x1f\n      lt\n      tag_103\n      jumpi\n      0x0100\n      dup1\n      dup4\n      sload\n      div\n      mul\n      dup4\n      mstore\n      swap2\n      0x20\n      add\n      swap2\n      jump(tag_102)\n    tag_103:\n      dup3\n      add\n      swap2\n      swap1\n      0x00\n      mstore\n      keccak256(0x00, 0x20)\n      swap1\n    tag_104:\n      dup2\n      sload\n      dup2\n      mstore\n      swap1\n      0x01\n      add\n      swap1\n      0x20\n      add\n      dup1\n      dup4\n      gt\n      tag_104\n      jumpi\n      dup3\n      swap1\n      sub\n      0x1f\n      and\n      dup3\n      add\n      swap2\n    tag_102:\n      pop\n      pop\n      pop\n      pop\n      pop\n      swap1\n      dup1\n      0x01\n      add\n      sload\n      swap1\n      dup1\n      0x02\n      add\n      0x00\n      swap1\n      sload\n      swap1\n      0x0100\n      exp\n      swap1\n      div\n      0xffffffffffffffffffffffffffffffffffffffff\n      and\n      swap1\n      dup1\n      0x02\n      add\n      0x14\n      swap1\n      sload\n      swap1\n      0x0100\n      exp\n      swap1\n      div\n      0xff\n      and\n      swap1\n      dup1\n      0x03\n      add\n      sload\n      swap1\n      pop\n      dup6\n      jump\t// out\n        /* \"Campaign.sol\":1889:2633  function createRequest(string memory description, uint amount, address recipient)... */\n    tag_52:\n        /* \"Campaign.sol\":1305:1312  manager */\n      0x00\n      dup1\n      sload\n      swap1\n      0x0100\n      exp\n      swap1\n      div\n      0xffffffffffffffffffffffffffffffffffffffff\n      and\n        /* \"Campaign.sol\":1291:1312  msg.sender == manager */\n      0xffffffffffffffffffffffffffffffffffffffff\n      and\n        /* \"Campaign.sol\":1291:1301  msg.sender */\n      caller\n        /* \"Campaign.sol\":1291:1312  msg.sender == manager */\n      0xffffffffffffffffffffffffffffffffffffffff\n      and\n      eq\n        /* \"Campaign.sol\":1283:1313  require(msg.sender == manager) */\n      tag_106\n      jumpi\n      0x00\n      dup1\n      revert\n    tag_106:\n        /* \"Campaign.sol\":2369:2395  Request storage newRequest */\n      0x00\n        /* \"Campaign.sol\":2398:2406  requests */\n      0x06\n        /* \"Campaign.sol\":2398:2421  requests[numRequests++] */\n      0x00\n        /* \"Campaign.sol\":2407:2418  numRequests */\n      0x05\n      0x00\n        /* \"Campaign.sol\":2407:2420  numRequests++ */\n      dup2\n      sload\n      dup1\n      swap3\n      swap2\n      swap1\n      tag_108\n      swap1\n      tag_109\n      jump\t// in\n    tag_108:\n      swap2\n      swap1\n      pop\n      sstore\n        /* \"Campaign.sol\":2398:2421  requests[numRequests++] */\n      dup2\n      mstore\n      0x20\n      add\n      swap1\n      dup2\n      mstore\n      0x20\n      add\n      0x00\n      keccak256\n        /* \"Campaign.sol\":2369:2421  Request storage newRequest = requests[numRequests++] */\n      swap1\n      pop\n        /* \"Campaign.sol\":2457:2468  description */\n      dup4\n        /* \"Campaign.sol\":2432:2442  newRequest */\n      dup2\n        /* \"Campaign.sol\":2432:2454  newRequest.description */\n      0x00\n      add\n        /* \"Campaign.sol\":2432:2468  newRequest.description = description */\n      swap1\n      dup1\n      mload\n      swap1\n      0x20\n      add\n      swap1\n      tag_110\n      swap3\n      swap2\n      swap1\n      tag_111\n      jump\t// in\n    tag_110:\n      pop\n        /* \"Campaign.sol\":2499:2505  amount */\n      dup3\n        /* \"Campaign.sol\":2479:2489  newRequest */\n      dup2\n        /* \"Campaign.sol\":2479:2496  newRequest.amount */\n      0x01\n      add\n        /* \"Campaign.sol\":2479:2505  newRequest.amount = amount */\n      dup2\n      swap1\n      sstore\n      pop\n        /* \"Campaign.sol\":2539:2548  recipient */\n      dup2\n        /* \"Campaign.sol\":2516:2526  newRequest */\n      dup2\n        /* \"Campaign.sol\":2516:2536  newRequest.recipient */\n      0x02\n      add\n      0x00\n        /* \"Campaign.sol\":2516:2548  newRequest.recipient = recipient */\n      0x0100\n      exp\n      dup2\n      sload\n      dup2\n      0xffffffffffffffffffffffffffffffffffffffff\n      mul\n      not\n      and\n      swap1\n      dup4\n      0xffffffffffffffffffffffffffffffffffffffff\n      and\n      mul\n      or\n      swap1\n      sstore\n      pop\n        /* \"Campaign.sol\":2581:2586  false */\n      0x00\n        /* \"Campaign.sol\":2559:2569  newRequest */\n      dup2\n        /* \"Campaign.sol\":2559:2578  newRequest.complete */\n      0x02\n      add\n      0x14\n        /* \"Campaign.sol\":2559:2586  newRequest.complete = false */\n      0x0100\n      exp\n      dup2\n      sload\n      dup2\n      0xff\n      mul\n      not\n      and\n      swap1\n      dup4\n      iszero\n      iszero\n      mul\n      or\n      swap1\n      sstore\n      pop\n        /* \"Campaign.sol\":2624:2625  0 */\n      0x00\n        /* \"Campaign.sol\":2597:2607  newRequest */\n      dup2\n        /* \"Campaign.sol\":2597:2621  newRequest.approvalCount */\n      0x03\n      add\n        /* \"Campaign.sol\":2597:2625  newRequest.approvalCount = 0 */\n      dup2\n      swap1\n      sstore\n      pop\n        /* \"Campaign.sol\":1994:2633  {... */\n      pop\n        /* \"Campaign.sol\":1889:2633  function createRequest(string memory description, uint amount, address recipient)... */\n      pop\n      pop\n      pop\n      jump\t// out\n        /* \"Campaign.sol\":1009:1040  uint public minimumContribution */\n    tag_55:\n      sload(0x02)\n      dup2\n      jump\t// out\n        /* \"Campaign.sol\":1135:1158  uint public numRequests */\n    tag_60:\n      sload(0x05)\n      dup2\n      jump\t// out\n        /* \"Campaign.sol\":1663:1881  function contribute() public payable {... */\n    tag_63:\n        /* \"Campaign.sol\":1731:1750  minimumContribution */\n      sload(0x02)\n        /* \"Campaign.sol\":1719:1728  msg.value */\n      callvalue\n        /* \"Campaign.sol\":1719:1750  msg.value > minimumContribution */\n      gt\n        /* \"Campaign.sol\":1711:1800  require(msg.value > minimumContribution, \"Must contribute more than the minimum amount!\") */\n      tag_113\n      jumpi\n      mload(0x40)\n      0x08c379a000000000000000000000000000000000000000000000000000000000\n      dup2\n      mstore\n      0x04\n      add\n      tag_114\n      swap1\n      tag_115\n      jump\t// in\n    tag_114:\n      mload(0x40)\n      dup1\n      swap2\n      sub\n      swap1\n      revert\n    tag_113:\n        /* \"Campaign.sol\":1840:1844  true */\n      0x01\n        /* \"Campaign.sol\":1813:1825  contributors */\n      0x03\n        /* \"Campaign.sol\":1813:1837  contributors[msg.sender] */\n      0x00\n        /* \"Campaign.sol\":1826:1836  msg.sender */\n      caller\n        /* \"Campaign.sol\":1813:1837  contributors[msg.sender] */\n      0xffffffffffffffffffffffffffffffffffffffff\n      and\n      0xffffffffffffffffffffffffffffffffffffffff\n      and\n      dup2\n      mstore\n      0x20\n      add\n      swap1\n      dup2\n      mstore\n      0x20\n      add\n      0x00\n      keccak256\n      0x00\n        /* \"Campaign.sol\":1813:1844  contributors[msg.sender] = true */\n      0x0100\n      exp\n      dup2\n      sload\n      dup2\n      0xff\n      mul\n      not\n      and\n      swap1\n      dup4\n      iszero\n      iszero\n      mul\n      or\n      swap1\n      sstore\n      pop\n        /* \"Campaign.sol\":1855:1871  contributorCount */\n      0x04\n      0x00\n        /* \"Campaign.sol\":1855:1873  contributorCount++ */\n      dup2\n      sload\n      dup1\n      swap3\n      swap2\n      swap1\n      tag_116\n      swap1\n      tag_109\n      jump\t// in\n    tag_116:\n      swap2\n      swap1\n      pop\n      sstore\n      pop\n        /* \"Campaign.sol\":1663:1881  function contribute() public payable {... */\n      jump\t// out\n        /* \"Campaign.sol\":2641:3016  function approveRequest(uint index) public {... */\n    tag_67:\n        /* \"Campaign.sol\":2695:2718  Request storage request */\n      0x00\n        /* \"Campaign.sol\":2721:2729  requests */\n      0x06\n        /* \"Campaign.sol\":2721:2736  requests[index] */\n      0x00\n        /* \"Campaign.sol\":2730:2735  index */\n      dup4\n        /* \"Campaign.sol\":2721:2736  requests[index] */\n      dup2\n      mstore\n      0x20\n      add\n      swap1\n      dup2\n      mstore\n      0x20\n      add\n      0x00\n      keccak256\n        /* \"Campaign.sol\":2695:2736  Request storage request = requests[index] */\n      swap1\n      pop\n        /* \"Campaign.sol\":2757:2769  contributors */\n      0x03\n        /* \"Campaign.sol\":2757:2781  contributors[msg.sender] */\n      0x00\n        /* \"Campaign.sol\":2770:2780  msg.sender */\n      caller\n        /* \"Campaign.sol\":2757:2781  contributors[msg.sender] */\n      0xffffffffffffffffffffffffffffffffffffffff\n      and\n      0xffffffffffffffffffffffffffffffffffffffff\n      and\n      dup2\n      mstore\n      0x20\n      add\n      swap1\n      dup2\n      mstore\n      0x20\n      add\n      0x00\n      keccak256\n      0x00\n      swap1\n      sload\n      swap1\n      0x0100\n      exp\n      swap1\n      div\n      0xff\n      and\n        /* \"Campaign.sol\":2749:2828  require(contributors[msg.sender], \"Must be a contributor to approve requests!\") */\n      tag_118\n      jumpi\n      mload(0x40)\n      0x08c379a000000000000000000000000000000000000000000000000000000000\n      dup2\n      mstore\n      0x04\n      add\n      tag_119\n      swap1\n      tag_120\n      jump\t// in\n    tag_119:\n      mload(0x40)\n      dup1\n      swap2\n      sub\n      swap1\n      revert\n    tag_118:\n        /* \"Campaign.sol\":2848:2855  request */\n      dup1\n        /* \"Campaign.sol\":2848:2865  request.approvals */\n      0x04\n      add\n        /* \"Campaign.sol\":2848:2877  request.approvals[msg.sender] */\n      0x00\n        /* \"Campaign.sol\":2866:2876  msg.sender */\n      caller\n        /* \"Campaign.sol\":2848:2877  request.approvals[msg.sender] */\n      0xffffffffffffffffffffffffffffffffffffffff\n      and\n      0xffffffffffffffffffffffffffffffffffffffff\n      and\n      dup2\n      mstore\n      0x20\n      add\n      swap1\n      dup2\n      mstore\n      0x20\n      add\n      0x00\n      keccak256\n      0x00\n      swap1\n      sload\n      swap1\n      0x0100\n      exp\n      swap1\n      div\n      0xff\n      and\n        /* \"Campaign.sol\":2847:2877  !request.approvals[msg.sender] */\n      iszero\n        /* \"Campaign.sol\":2839:2925  require(!request.approvals[msg.sender], \"Must have not approved the request already!\") */\n      tag_121\n      jumpi\n      mload(0x40)\n      0x08c379a000000000000000000000000000000000000000000000000000000000\n      dup2\n      mstore\n      0x04\n      add\n      tag_122\n      swap1\n      tag_123\n      jump\t// in\n    tag_122:\n      mload(0x40)\n      dup1\n      swap2\n      sub\n      swap1\n      revert\n    tag_121:\n        /* \"Campaign.sol\":2970:2974  true */\n      0x01\n        /* \"Campaign.sol\":2938:2945  request */\n      dup2\n        /* \"Campaign.sol\":2938:2955  request.approvals */\n      0x04\n      add\n        /* \"Campaign.sol\":2938:2967  request.approvals[msg.sender] */\n      0x00\n        /* \"Campaign.sol\":2956:2966  msg.sender */\n      caller\n        /* \"Campaign.sol\":2938:2967  request.approvals[msg.sender] */\n      0xffffffffffffffffffffffffffffffffffffffff\n      and\n      0xffffffffffffffffffffffffffffffffffffffff\n      and\n      dup2\n      mstore\n      0x20\n      add\n      swap1\n      dup2\n      mstore\n      0x20\n      add\n      0x00\n      keccak256\n      0x00\n        /* \"Campaign.sol\":2938:2974  request.approvals[msg.sender] = true */\n      0x0100\n      exp\n      dup2\n      sload\n      dup2\n      0xff\n      mul\n      not\n      and\n      swap1\n      dup4\n      iszero\n      iszero\n      mul\n      or\n      swap1\n      sstore\n      pop\n        /* \"Campaign.sol\":2985:2992  request */\n      dup1\n        /* \"Campaign.sol\":2985:3006  request.approvalCount */\n      0x03\n      add\n      0x00\n        /* \"Campaign.sol\":2985:3008  request.approvalCount++ */\n      dup2\n      sload\n      dup1\n      swap3\n      swap2\n      swap1\n      tag_124\n      swap1\n      tag_109\n      jump\t// in\n    tag_124:\n      swap2\n      swap1\n      pop\n      sstore\n      pop\n        /* \"Campaign.sol\":2684:3016  {... */\n      pop\n        /* \"Campaign.sol\":2641:3016  function approveRequest(uint index) public {... */\n      pop\n      jump\t// out\n        /* \"Campaign.sol\":1098:1126  uint public contributorCount */\n    tag_70:\n      sload(0x04)\n      dup2\n      jump\t// out\n    tag_111:\n      dup3\n      dup1\n      sload\n      tag_125\n      swap1\n      tag_89\n      jump\t// in\n    tag_125:\n      swap1\n      0x00\n      mstore\n      keccak256(0x00, 0x20)\n      swap1\n      0x1f\n      add\n      0x20\n      swap1\n      div\n      dup2\n      add\n      swap3\n      dup3\n      tag_127\n      jumpi\n      0x00\n      dup6\n      sstore\n      jump(tag_126)\n    tag_127:\n      dup3\n      0x1f\n      lt\n      tag_128\n      jumpi\n      dup1\n      mload\n      not(0xff)\n      and\n      dup4\n      dup1\n      add\n      or\n      dup6\n      sstore\n      jump(tag_126)\n    tag_128:\n      dup3\n      dup1\n      add\n      0x01\n      add\n      dup6\n      sstore\n      dup3\n      iszero\n      tag_126\n      jumpi\n      swap2\n      dup3\n      add\n    tag_129:\n      dup3\n      dup2\n      gt\n      iszero\n      tag_130\n      jumpi\n      dup3\n      mload\n      dup3\n      sstore\n      swap2\n      0x20\n      add\n      swap2\n      swap1\n      0x01\n      add\n      swap1\n      jump(tag_129)\n    tag_130:\n    tag_126:\n      pop\n      swap1\n      pop\n      tag_131\n      swap2\n      swap1\n      tag_132\n      jump\t// in\n    tag_131:\n      pop\n      swap1\n      jump\t// out\n    tag_132:\n    tag_133:\n      dup1\n      dup3\n      gt\n      iszero\n      tag_134\n      jumpi\n      0x00\n      dup2\n      0x00\n      swap1\n      sstore\n      pop\n      0x01\n      add\n      jump(tag_133)\n    tag_134:\n      pop\n      swap1\n      jump\t// out\n        /* \"#utility.yul\":7:82   */\n    tag_135:\n        /* \"#utility.yul\":40:46   */\n      0x00\n        /* \"#utility.yul\":73:75   */\n      0x40\n        /* \"#utility.yul\":67:76   */\n      mload\n        /* \"#utility.yul\":57:76   */\n      swap1\n      pop\n        /* \"#utility.yul\":7:82   */\n      swap1\n      jump\t// out\n        /* \"#utility.yul\":88:205   */\n    tag_136:\n        /* \"#utility.yul\":197:198   */\n      0x00\n        /* \"#utility.yul\":194:195   */\n      dup1\n        /* \"#utility.yul\":187:199   */\n      revert\n        /* \"#utility.yul\":211:328   */\n    tag_137:\n        /* \"#utility.yul\":320:321   */\n      0x00\n        /* \"#utility.yul\":317:318   */\n      dup1\n        /* \"#utility.yul\":310:322   */\n      revert\n        /* \"#utility.yul\":334:411   */\n    tag_138:\n        /* \"#utility.yul\":371:378   */\n      0x00\n        /* \"#utility.yul\":400:405   */\n      dup2\n        /* \"#utility.yul\":389:405   */\n      swap1\n      pop\n        /* \"#utility.yul\":334:411   */\n      swap2\n      swap1\n      pop\n      jump\t// out\n        /* \"#utility.yul\":417:539   */\n    tag_139:\n        /* \"#utility.yul\":490:514   */\n      tag_184\n        /* \"#utility.yul\":508:513   */\n      dup2\n        /* \"#utility.yul\":490:514   */\n      tag_138\n      jump\t// in\n    tag_184:\n        /* \"#utility.yul\":483:488   */\n      dup2\n        /* \"#utility.yul\":480:515   */\n      eq\n        /* \"#utility.yul\":470:533   */\n      tag_185\n      jumpi\n        /* \"#utility.yul\":529:530   */\n      0x00\n        /* \"#utility.yul\":526:527   */\n      dup1\n        /* \"#utility.yul\":519:531   */\n      revert\n        /* \"#utility.yul\":470:533   */\n    tag_185:\n        /* \"#utility.yul\":417:539   */\n      pop\n      jump\t// out\n        /* \"#utility.yul\":545:684   */\n    tag_140:\n        /* \"#utility.yul\":591:596   */\n      0x00\n        /* \"#utility.yul\":629:635   */\n      dup2\n        /* \"#utility.yul\":616:636   */\n      calldataload\n        /* \"#utility.yul\":607:636   */\n      swap1\n      pop\n        /* \"#utility.yul\":645:678   */\n      tag_187\n        /* \"#utility.yul\":672:677   */\n      dup2\n        /* \"#utility.yul\":645:678   */\n      tag_139\n      jump\t// in\n    tag_187:\n        /* \"#utility.yul\":545:684   */\n      swap3\n      swap2\n      pop\n      pop\n      jump\t// out\n        /* \"#utility.yul\":690:1019   */\n    tag_18:\n        /* \"#utility.yul\":749:755   */\n      0x00\n        /* \"#utility.yul\":798:800   */\n      0x20\n        /* \"#utility.yul\":786:795   */\n      dup3\n        /* \"#utility.yul\":777:784   */\n      dup5\n        /* \"#utility.yul\":773:796   */\n      sub\n        /* \"#utility.yul\":769:801   */\n      slt\n        /* \"#utility.yul\":766:885   */\n      iszero\n      tag_189\n      jumpi\n        /* \"#utility.yul\":804:883   */\n      tag_190\n      tag_136\n      jump\t// in\n    tag_190:\n        /* \"#utility.yul\":766:885   */\n    tag_189:\n        /* \"#utility.yul\":924:925   */\n      0x00\n        /* \"#utility.yul\":949:1002   */\n      tag_191\n        /* \"#utility.yul\":994:1001   */\n      dup5\n        /* \"#utility.yul\":985:991   */\n      dup3\n        /* \"#utility.yul\":974:983   */\n      dup6\n        /* \"#utility.yul\":970:992   */\n      add\n        /* \"#utility.yul\":949:1002   */\n      tag_140\n      jump\t// in\n    tag_191:\n        /* \"#utility.yul\":939:1002   */\n      swap2\n      pop\n        /* \"#utility.yul\":895:1012   */\n      pop\n        /* \"#utility.yul\":690:1019   */\n      swap3\n      swap2\n      pop\n      pop\n      jump\t// out\n        /* \"#utility.yul\":1025:1124   */\n    tag_141:\n        /* \"#utility.yul\":1077:1083   */\n      0x00\n        /* \"#utility.yul\":1111:1116   */\n      dup2\n        /* \"#utility.yul\":1105:1117   */\n      mload\n        /* \"#utility.yul\":1095:1117   */\n      swap1\n      pop\n        /* \"#utility.yul\":1025:1124   */\n      swap2\n      swap1\n      pop\n      jump\t// out\n        /* \"#utility.yul\":1130:1299   */\n    tag_142:\n        /* \"#utility.yul\":1214:1225   */\n      0x00\n        /* \"#utility.yul\":1248:1254   */\n      dup3\n        /* \"#utility.yul\":1243:1246   */\n      dup3\n        /* \"#utility.yul\":1236:1255   */\n      mstore\n        /* \"#utility.yul\":1288:1292   */\n      0x20\n        /* \"#utility.yul\":1283:1286   */\n      dup3\n        /* \"#utility.yul\":1279:1293   */\n      add\n        /* \"#utility.yul\":1264:1293   */\n      swap1\n      pop\n        /* \"#utility.yul\":1130:1299   */\n      swap3\n      swap2\n      pop\n      pop\n      jump\t// out\n        /* \"#utility.yul\":1305:1612   */\n    tag_143:\n        /* \"#utility.yul\":1373:1374   */\n      0x00\n        /* \"#utility.yul\":1383:1496   */\n    tag_195:\n        /* \"#utility.yul\":1397:1403   */\n      dup4\n        /* \"#utility.yul\":1394:1395   */\n      dup2\n        /* \"#utility.yul\":1391:1404   */\n      lt\n        /* \"#utility.yul\":1383:1496   */\n      iszero\n      tag_197\n      jumpi\n        /* \"#utility.yul\":1482:1483   */\n      dup1\n        /* \"#utility.yul\":1477:1480   */\n      dup3\n        /* \"#utility.yul\":1473:1484   */\n      add\n        /* \"#utility.yul\":1467:1485   */\n      mload\n        /* \"#utility.yul\":1463:1464   */\n      dup2\n        /* \"#utility.yul\":1458:1461   */\n      dup5\n        /* \"#utility.yul\":1454:1465   */\n      add\n        /* \"#utility.yul\":1447:1486   */\n      mstore\n        /* \"#utility.yul\":1419:1421   */\n      0x20\n        /* \"#utility.yul\":1416:1417   */\n      dup2\n        /* \"#utility.yul\":1412:1422   */\n      add\n        /* \"#utility.yul\":1407:1422   */\n      swap1\n      pop\n        /* \"#utility.yul\":1383:1496   */\n      jump(tag_195)\n    tag_197:\n        /* \"#utility.yul\":1514:1520   */\n      dup4\n        /* \"#utility.yul\":1511:1512   */\n      dup2\n        /* \"#utility.yul\":1508:1521   */\n      gt\n        /* \"#utility.yul\":1505:1606   */\n      iszero\n      tag_198\n      jumpi\n        /* \"#utility.yul\":1594:1595   */\n      0x00\n        /* \"#utility.yul\":1585:1591   */\n      dup5\n        /* \"#utility.yul\":1580:1583   */\n      dup5\n        /* \"#utility.yul\":1576:1592   */\n      add\n        /* \"#utility.yul\":1569:1596   */\n      mstore\n        /* \"#utility.yul\":1505:1606   */\n    tag_198:\n        /* \"#utility.yul\":1354:1612   */\n      pop\n        /* \"#utility.yul\":1305:1612   */\n      pop\n      pop\n      pop\n      jump\t// out\n        /* \"#utility.yul\":1618:1720   */\n    tag_144:\n        /* \"#utility.yul\":1659:1665   */\n      0x00\n        /* \"#utility.yul\":1710:1712   */\n      0x1f\n        /* \"#utility.yul\":1706:1713   */\n      not\n        /* \"#utility.yul\":1701:1703   */\n      0x1f\n        /* \"#utility.yul\":1694:1699   */\n      dup4\n        /* \"#utility.yul\":1690:1704   */\n      add\n        /* \"#utility.yul\":1686:1714   */\n      and\n        /* \"#utility.yul\":1676:1714   */\n      swap1\n      pop\n        /* \"#utility.yul\":1618:1720   */\n      swap2\n      swap1\n      pop\n      jump\t// out\n        /* \"#utility.yul\":1726:2090   */\n    tag_145:\n        /* \"#utility.yul\":1814:1817   */\n      0x00\n        /* \"#utility.yul\":1842:1881   */\n      tag_201\n        /* \"#utility.yul\":1875:1880   */\n      dup3\n        /* \"#utility.yul\":1842:1881   */\n      tag_141\n      jump\t// in\n    tag_201:\n        /* \"#utility.yul\":1897:1968   */\n      tag_202\n        /* \"#utility.yul\":1961:1967   */\n      dup2\n        /* \"#utility.yul\":1956:1959   */\n      dup6\n        /* \"#utility.yul\":1897:1968   */\n      tag_142\n      jump\t// in\n    tag_202:\n        /* \"#utility.yul\":1890:1968   */\n      swap4\n      pop\n        /* \"#utility.yul\":1977:2029   */\n      tag_203\n        /* \"#utility.yul\":2022:2028   */\n      dup2\n        /* \"#utility.yul\":2017:2020   */\n      dup6\n        /* \"#utility.yul\":2010:2014   */\n      0x20\n        /* \"#utility.yul\":2003:2008   */\n      dup7\n        /* \"#utility.yul\":1999:2015   */\n      add\n        /* \"#utility.yul\":1977:2029   */\n      tag_143\n      jump\t// in\n    tag_203:\n        /* \"#utility.yul\":2054:2083   */\n      tag_204\n        /* \"#utility.yul\":2076:2082   */\n      dup2\n        /* \"#utility.yul\":2054:2083   */\n      tag_144\n      jump\t// in\n    tag_204:\n        /* \"#utility.yul\":2049:2052   */\n      dup5\n        /* \"#utility.yul\":2045:2084   */\n      add\n        /* \"#utility.yul\":2038:2084   */\n      swap2\n      pop\n        /* \"#utility.yul\":1818:2090   */\n      pop\n        /* \"#utility.yul\":1726:2090   */\n      swap3\n      swap2\n      pop\n      pop\n      jump\t// out\n        /* \"#utility.yul\":2096:2409   */\n    tag_24:\n        /* \"#utility.yul\":2209:2213   */\n      0x00\n        /* \"#utility.yul\":2247:2249   */\n      0x20\n        /* \"#utility.yul\":2236:2245   */\n      dup3\n        /* \"#utility.yul\":2232:2250   */\n      add\n        /* \"#utility.yul\":2224:2250   */\n      swap1\n      pop\n        /* \"#utility.yul\":2296:2305   */\n      dup2\n        /* \"#utility.yul\":2290:2294   */\n      dup2\n        /* \"#utility.yul\":2286:2306   */\n      sub\n        /* \"#utility.yul\":2282:2283   */\n      0x00\n        /* \"#utility.yul\":2271:2280   */\n      dup4\n        /* \"#utility.yul\":2267:2284   */\n      add\n        /* \"#utility.yul\":2260:2307   */\n      mstore\n        /* \"#utility.yul\":2324:2402   */\n      tag_206\n        /* \"#utility.yul\":2397:2401   */\n      dup2\n        /* \"#utility.yul\":2388:2394   */\n      dup5\n        /* \"#utility.yul\":2324:2402   */\n      tag_145\n      jump\t// in\n    tag_206:\n        /* \"#utility.yul\":2316:2402   */\n      swap1\n      pop\n        /* \"#utility.yul\":2096:2409   */\n      swap3\n      swap2\n      pop\n      pop\n      jump\t// out\n        /* \"#utility.yul\":2415:2541   */\n    tag_146:\n        /* \"#utility.yul\":2452:2459   */\n      0x00\n        /* \"#utility.yul\":2492:2534   */\n      0xffffffffffffffffffffffffffffffffffffffff\n        /* \"#utility.yul\":2485:2490   */\n      dup3\n        /* \"#utility.yul\":2481:2535   */\n      and\n        /* \"#utility.yul\":2470:2535   */\n      swap1\n      pop\n        /* \"#utility.yul\":2415:2541   */\n      swap2\n      swap1\n      pop\n      jump\t// out\n        /* \"#utility.yul\":2547:2643   */\n    tag_147:\n        /* \"#utility.yul\":2584:2591   */\n      0x00\n        /* \"#utility.yul\":2613:2637   */\n      tag_209\n        /* \"#utility.yul\":2631:2636   */\n      dup3\n        /* \"#utility.yul\":2613:2637   */\n      tag_146\n      jump\t// in\n    tag_209:\n        /* \"#utility.yul\":2602:2637   */\n      swap1\n      pop\n        /* \"#utility.yul\":2547:2643   */\n      swap2\n      swap1\n      pop\n      jump\t// out\n        /* \"#utility.yul\":2649:2771   */\n    tag_148:\n        /* \"#utility.yul\":2722:2746   */\n      tag_211\n        /* \"#utility.yul\":2740:2745   */\n      dup2\n        /* \"#utility.yul\":2722:2746   */\n      tag_147\n      jump\t// in\n    tag_211:\n        /* \"#utility.yul\":2715:2720   */\n      dup2\n        /* \"#utility.yul\":2712:2747   */\n      eq\n        /* \"#utility.yul\":2702:2765   */\n      tag_212\n      jumpi\n        /* \"#utility.yul\":2761:2762   */\n      0x00\n        /* \"#utility.yul\":2758:2759   */\n      dup1\n        /* \"#utility.yul\":2751:2763   */\n      revert\n        /* \"#utility.yul\":2702:2765   */\n    tag_212:\n        /* \"#utility.yul\":2649:2771   */\n      pop\n      jump\t// out\n        /* \"#utility.yul\":2777:2916   */\n    tag_149:\n        /* \"#utility.yul\":2823:2828   */\n      0x00\n        /* \"#utility.yul\":2861:2867   */\n      dup2\n        /* \"#utility.yul\":2848:2868   */\n      calldataload\n        /* \"#utility.yul\":2839:2868   */\n      swap1\n      pop\n        /* \"#utility.yul\":2877:2910   */\n      tag_214\n        /* \"#utility.yul\":2904:2909   */\n      dup2\n        /* \"#utility.yul\":2877:2910   */\n      tag_148\n      jump\t// in\n    tag_214:\n        /* \"#utility.yul\":2777:2916   */\n      swap3\n      swap2\n      pop\n      pop\n      jump\t// out\n        /* \"#utility.yul\":2922:3251   */\n    tag_28:\n        /* \"#utility.yul\":2981:2987   */\n      0x00\n        /* \"#utility.yul\":3030:3032   */\n      0x20\n        /* \"#utility.yul\":3018:3027   */\n      dup3\n        /* \"#utility.yul\":3009:3016   */\n      dup5\n        /* \"#utility.yul\":3005:3028   */\n      sub\n        /* \"#utility.yul\":3001:3033   */\n      slt\n        /* \"#utility.yul\":2998:3117   */\n      iszero\n      tag_216\n      jumpi\n        /* \"#utility.yul\":3036:3115   */\n      tag_217\n      tag_136\n      jump\t// in\n    tag_217:\n        /* \"#utility.yul\":2998:3117   */\n    tag_216:\n        /* \"#utility.yul\":3156:3157   */\n      0x00\n        /* \"#utility.yul\":3181:3234   */\n      tag_218\n        /* \"#utility.yul\":3226:3233   */\n      dup5\n        /* \"#utility.yul\":3217:3223   */\n      dup3\n        /* \"#utility.yul\":3206:3215   */\n      dup6\n        /* \"#utility.yul\":3202:3224   */\n      add\n        /* \"#utility.yul\":3181:3234   */\n      tag_149\n      jump\t// in\n    tag_218:\n        /* \"#utility.yul\":3171:3234   */\n      swap2\n      pop\n        /* \"#utility.yul\":3127:3244   */\n      pop\n        /* \"#utility.yul\":2922:3251   */\n      swap3\n      swap2\n      pop\n      pop\n      jump\t// out\n        /* \"#utility.yul\":3257:3347   */\n    tag_150:\n        /* \"#utility.yul\":3291:3298   */\n      0x00\n        /* \"#utility.yul\":3334:3339   */\n      dup2\n        /* \"#utility.yul\":3327:3340   */\n      iszero\n        /* \"#utility.yul\":3320:3341   */\n      iszero\n        /* \"#utility.yul\":3309:3341   */\n      swap1\n      pop\n        /* \"#utility.yul\":3257:3347   */\n      swap2\n      swap1\n      pop\n      jump\t// out\n        /* \"#utility.yul\":3353:3462   */\n    tag_151:\n        /* \"#utility.yul\":3434:3455   */\n      tag_221\n        /* \"#utility.yul\":3449:3454   */\n      dup2\n        /* \"#utility.yul\":3434:3455   */\n      tag_150\n      jump\t// in\n    tag_221:\n        /* \"#utility.yul\":3429:3432   */\n      dup3\n        /* \"#utility.yul\":3422:3456   */\n      mstore\n        /* \"#utility.yul\":3353:3462   */\n      pop\n      pop\n      jump\t// out\n        /* \"#utility.yul\":3468:3678   */\n    tag_31:\n        /* \"#utility.yul\":3555:3559   */\n      0x00\n        /* \"#utility.yul\":3593:3595   */\n      0x20\n        /* \"#utility.yul\":3582:3591   */\n      dup3\n        /* \"#utility.yul\":3578:3596   */\n      add\n        /* \"#utility.yul\":3570:3596   */\n      swap1\n      pop\n        /* \"#utility.yul\":3606:3671   */\n      tag_223\n        /* \"#utility.yul\":3668:3669   */\n      0x00\n        /* \"#utility.yul\":3657:3666   */\n      dup4\n        /* \"#utility.yul\":3653:3670   */\n      add\n        /* \"#utility.yul\":3644:3650   */\n      dup5\n        /* \"#utility.yul\":3606:3671   */\n      tag_151\n      jump\t// in\n    tag_223:\n        /* \"#utility.yul\":3468:3678   */\n      swap3\n      swap2\n      pop\n      pop\n      jump\t// out\n        /* \"#utility.yul\":3684:3802   */\n    tag_152:\n        /* \"#utility.yul\":3771:3795   */\n      tag_225\n        /* \"#utility.yul\":3789:3794   */\n      dup2\n        /* \"#utility.yul\":3771:3795   */\n      tag_138\n      jump\t// in\n    tag_225:\n        /* \"#utility.yul\":3766:3769   */\n      dup3\n        /* \"#utility.yul\":3759:3796   */\n      mstore\n        /* \"#utility.yul\":3684:3802   */\n      pop\n      pop\n      jump\t// out\n        /* \"#utility.yul\":3808:3926   */\n    tag_153:\n        /* \"#utility.yul\":3895:3919   */\n      tag_227\n        /* \"#utility.yul\":3913:3918   */\n      dup2\n        /* \"#utility.yul\":3895:3919   */\n      tag_147\n      jump\t// in\n    tag_227:\n        /* \"#utility.yul\":3890:3893   */\n      dup3\n        /* \"#utility.yul\":3883:3920   */\n      mstore\n        /* \"#utility.yul\":3808:3926   */\n      pop\n      pop\n      jump\t// out\n        /* \"#utility.yul\":3932:4798   */\n    tag_36:\n        /* \"#utility.yul\":4185:4189   */\n      0x00\n        /* \"#utility.yul\":4223:4226   */\n      0xc0\n        /* \"#utility.yul\":4212:4221   */\n      dup3\n        /* \"#utility.yul\":4208:4227   */\n      add\n        /* \"#utility.yul\":4200:4227   */\n      swap1\n      pop\n        /* \"#utility.yul\":4237:4308   */\n      tag_229\n        /* \"#utility.yul\":4305:4306   */\n      0x00\n        /* \"#utility.yul\":4294:4303   */\n      dup4\n        /* \"#utility.yul\":4290:4307   */\n      add\n        /* \"#utility.yul\":4281:4287   */\n      dup10\n        /* \"#utility.yul\":4237:4308   */\n      tag_152\n      jump\t// in\n    tag_229:\n        /* \"#utility.yul\":4318:4390   */\n      tag_230\n        /* \"#utility.yul\":4386:4388   */\n      0x20\n        /* \"#utility.yul\":4375:4384   */\n      dup4\n        /* \"#utility.yul\":4371:4389   */\n      add\n        /* \"#utility.yul\":4362:4368   */\n      dup9\n        /* \"#utility.yul\":4318:4390   */\n      tag_152\n      jump\t// in\n    tag_230:\n        /* \"#utility.yul\":4400:4472   */\n      tag_231\n        /* \"#utility.yul\":4468:4470   */\n      0x40\n        /* \"#utility.yul\":4457:4466   */\n      dup4\n        /* \"#utility.yul\":4453:4471   */\n      add\n        /* \"#utility.yul\":4444:4450   */\n      dup8\n        /* \"#utility.yul\":4400:4472   */\n      tag_152\n      jump\t// in\n    tag_231:\n        /* \"#utility.yul\":4482:4554   */\n      tag_232\n        /* \"#utility.yul\":4550:4552   */\n      0x60\n        /* \"#utility.yul\":4539:4548   */\n      dup4\n        /* \"#utility.yul\":4535:4553   */\n      add\n        /* \"#utility.yul\":4526:4532   */\n      dup7\n        /* \"#utility.yul\":4482:4554   */\n      tag_152\n      jump\t// in\n    tag_232:\n        /* \"#utility.yul\":4564:4637   */\n      tag_233\n        /* \"#utility.yul\":4632:4635   */\n      0x80\n        /* \"#utility.yul\":4621:4630   */\n      dup4\n        /* \"#utility.yul\":4617:4636   */\n      add\n        /* \"#utility.yul\":4608:4614   */\n      dup6\n        /* \"#utility.yul\":4564:4637   */\n      tag_153\n      jump\t// in\n    tag_233:\n        /* \"#utility.yul\":4685:4694   */\n      dup2\n        /* \"#utility.yul\":4679:4683   */\n      dup2\n        /* \"#utility.yul\":4675:4695   */\n      sub\n        /* \"#utility.yul\":4669:4672   */\n      0xa0\n        /* \"#utility.yul\":4658:4667   */\n      dup4\n        /* \"#utility.yul\":4654:4673   */\n      add\n        /* \"#utility.yul\":4647:4696   */\n      mstore\n        /* \"#utility.yul\":4713:4791   */\n      tag_234\n        /* \"#utility.yul\":4786:4790   */\n      dup2\n        /* \"#utility.yul\":4777:4783   */\n      dup5\n        /* \"#utility.yul\":4713:4791   */\n      tag_145\n      jump\t// in\n    tag_234:\n        /* \"#utility.yul\":4705:4791   */\n      swap1\n      pop\n        /* \"#utility.yul\":3932:4798   */\n      swap8\n      swap7\n      pop\n      pop\n      pop\n      pop\n      pop\n      pop\n      pop\n      jump\t// out\n        /* \"#utility.yul\":4804:5026   */\n    tag_41:\n        /* \"#utility.yul\":4897:4901   */\n      0x00\n        /* \"#utility.yul\":4935:4937   */\n      0x20\n        /* \"#utility.yul\":4924:4933   */\n      dup3\n        /* \"#utility.yul\":4920:4938   */\n      add\n        /* \"#utility.yul\":4912:4938   */\n      swap1\n      pop\n        /* \"#utility.yul\":4948:5019   */\n      tag_236\n        /* \"#utility.yul\":5016:5017   */\n      0x00\n        /* \"#utility.yul\":5005:5014   */\n      dup4\n        /* \"#utility.yul\":5001:5018   */\n      add\n        /* \"#utility.yul\":4992:4998   */\n      dup5\n        /* \"#utility.yul\":4948:5019   */\n      tag_153\n      jump\t// in\n    tag_236:\n        /* \"#utility.yul\":4804:5026   */\n      swap3\n      swap2\n      pop\n      pop\n      jump\t// out\n        /* \"#utility.yul\":5032:5775   */\n    tag_47:\n        /* \"#utility.yul\":5251:5255   */\n      0x00\n        /* \"#utility.yul\":5289:5292   */\n      0xa0\n        /* \"#utility.yul\":5278:5287   */\n      dup3\n        /* \"#utility.yul\":5274:5293   */\n      add\n        /* \"#utility.yul\":5266:5293   */\n      swap1\n      pop\n        /* \"#utility.yul\":5339:5348   */\n      dup2\n        /* \"#utility.yul\":5333:5337   */\n      dup2\n        /* \"#utility.yul\":5329:5349   */\n      sub\n        /* \"#utility.yul\":5325:5326   */\n      0x00\n        /* \"#utility.yul\":5314:5323   */\n      dup4\n        /* \"#utility.yul\":5310:5327   */\n      add\n        /* \"#utility.yul\":5303:5350   */\n      mstore\n        /* \"#utility.yul\":5367:5445   */\n      tag_238\n        /* \"#utility.yul\":5440:5444   */\n      dup2\n        /* \"#utility.yul\":5431:5437   */\n      dup9\n        /* \"#utility.yul\":5367:5445   */\n      tag_145\n      jump\t// in\n    tag_238:\n        /* \"#utility.yul\":5359:5445   */\n      swap1\n      pop\n        /* \"#utility.yul\":5455:5527   */\n      tag_239\n        /* \"#utility.yul\":5523:5525   */\n      0x20\n        /* \"#utility.yul\":5512:5521   */\n      dup4\n        /* \"#utility.yul\":5508:5526   */\n      add\n        /* \"#utility.yul\":5499:5505   */\n      dup8\n        /* \"#utility.yul\":5455:5527   */\n      tag_152\n      jump\t// in\n    tag_239:\n        /* \"#utility.yul\":5537:5609   */\n      tag_240\n        /* \"#utility.yul\":5605:5607   */\n      0x40\n        /* \"#utility.yul\":5594:5603   */\n      dup4\n        /* \"#utility.yul\":5590:5608   */\n      add\n        /* \"#utility.yul\":5581:5587   */\n      dup7\n        /* \"#utility.yul\":5537:5609   */\n      tag_153\n      jump\t// in\n    tag_240:\n        /* \"#utility.yul\":5619:5685   */\n      tag_241\n        /* \"#utility.yul\":5681:5683   */\n      0x60\n        /* \"#utility.yul\":5670:5679   */\n      dup4\n        /* \"#utility.yul\":5666:5684   */\n      add\n        /* \"#utility.yul\":5657:5663   */\n      dup6\n        /* \"#utility.yul\":5619:5685   */\n      tag_151\n      jump\t// in\n    tag_241:\n        /* \"#utility.yul\":5695:5768   */\n      tag_242\n        /* \"#utility.yul\":5763:5766   */\n      0x80\n        /* \"#utility.yul\":5752:5761   */\n      dup4\n        /* \"#utility.yul\":5748:5767   */\n      add\n        /* \"#utility.yul\":5739:5745   */\n      dup5\n        /* \"#utility.yul\":5695:5768   */\n      tag_152\n      jump\t// in\n    tag_242:\n        /* \"#utility.yul\":5032:5775   */\n      swap7\n      swap6\n      pop\n      pop\n      pop\n      pop\n      pop\n      pop\n      jump\t// out\n        /* \"#utility.yul\":5781:5898   */\n    tag_154:\n        /* \"#utility.yul\":5890:5891   */\n      0x00\n        /* \"#utility.yul\":5887:5888   */\n      dup1\n        /* \"#utility.yul\":5880:5892   */\n      revert\n        /* \"#utility.yul\":5904:6021   */\n    tag_155:\n        /* \"#utility.yul\":6013:6014   */\n      0x00\n        /* \"#utility.yul\":6010:6011   */\n      dup1\n        /* \"#utility.yul\":6003:6015   */\n      revert\n        /* \"#utility.yul\":6027:6207   */\n    tag_156:\n        /* \"#utility.yul\":6075:6152   */\n      0x4e487b7100000000000000000000000000000000000000000000000000000000\n        /* \"#utility.yul\":6072:6073   */\n      0x00\n        /* \"#utility.yul\":6065:6153   */\n      mstore\n        /* \"#utility.yul\":6172:6176   */\n      0x41\n        /* \"#utility.yul\":6169:6170   */\n      0x04\n        /* \"#utility.yul\":6162:6177   */\n      mstore\n        /* \"#utility.yul\":6196:6200   */\n      0x24\n        /* \"#utility.yul\":6193:6194   */\n      0x00\n        /* \"#utility.yul\":6186:6201   */\n      revert\n        /* \"#utility.yul\":6213:6494   */\n    tag_157:\n        /* \"#utility.yul\":6296:6323   */\n      tag_247\n        /* \"#utility.yul\":6318:6322   */\n      dup3\n        /* \"#utility.yul\":6296:6323   */\n      tag_144\n      jump\t// in\n    tag_247:\n        /* \"#utility.yul\":6288:6294   */\n      dup2\n        /* \"#utility.yul\":6284:6324   */\n      add\n        /* \"#utility.yul\":6426:6432   */\n      dup2\n        /* \"#utility.yul\":6414:6424   */\n      dup2\n        /* \"#utility.yul\":6411:6433   */\n      lt\n        /* \"#utility.yul\":6390:6408   */\n      0xffffffffffffffff\n        /* \"#utility.yul\":6378:6388   */\n      dup3\n        /* \"#utility.yul\":6375:6409   */\n      gt\n        /* \"#utility.yul\":6372:6434   */\n      or\n        /* \"#utility.yul\":6369:6457   */\n      iszero\n      tag_248\n      jumpi\n        /* \"#utility.yul\":6437:6455   */\n      tag_249\n      tag_156\n      jump\t// in\n    tag_249:\n        /* \"#utility.yul\":6369:6457   */\n    tag_248:\n        /* \"#utility.yul\":6477:6487   */\n      dup1\n        /* \"#utility.yul\":6473:6475   */\n      0x40\n        /* \"#utility.yul\":6466:6488   */\n      mstore\n        /* \"#utility.yul\":6256:6494   */\n      pop\n        /* \"#utility.yul\":6213:6494   */\n      pop\n      pop\n      jump\t// out\n        /* \"#utility.yul\":6500:6629   */\n    tag_158:\n        /* \"#utility.yul\":6534:6540   */\n      0x00\n        /* \"#utility.yul\":6561:6581   */\n      tag_251\n      tag_135\n      jump\t// in\n    tag_251:\n        /* \"#utility.yul\":6551:6581   */\n      swap1\n      pop\n        /* \"#utility.yul\":6590:6623   */\n      tag_252\n        /* \"#utility.yul\":6618:6622   */\n      dup3\n        /* \"#utility.yul\":6610:6616   */\n      dup3\n        /* \"#utility.yul\":6590:6623   */\n      tag_157\n      jump\t// in\n    tag_252:\n        /* \"#utility.yul\":6500:6629   */\n      swap2\n      swap1\n      pop\n      jump\t// out\n        /* \"#utility.yul\":6635:6943   */\n    tag_159:\n        /* \"#utility.yul\":6697:6701   */\n      0x00\n        /* \"#utility.yul\":6787:6805   */\n      0xffffffffffffffff\n        /* \"#utility.yul\":6779:6785   */\n      dup3\n        /* \"#utility.yul\":6776:6806   */\n      gt\n        /* \"#utility.yul\":6773:6829   */\n      iszero\n      tag_254\n      jumpi\n        /* \"#utility.yul\":6809:6827   */\n      tag_255\n      tag_156\n      jump\t// in\n    tag_255:\n        /* \"#utility.yul\":6773:6829   */\n    tag_254:\n        /* \"#utility.yul\":6847:6876   */\n      tag_256\n        /* \"#utility.yul\":6869:6875   */\n      dup3\n        /* \"#utility.yul\":6847:6876   */\n      tag_144\n      jump\t// in\n    tag_256:\n        /* \"#utility.yul\":6839:6876   */\n      swap1\n      pop\n        /* \"#utility.yul\":6931:6935   */\n      0x20\n        /* \"#utility.yul\":6925:6929   */\n      dup2\n        /* \"#utility.yul\":6921:6936   */\n      add\n        /* \"#utility.yul\":6913:6936   */\n      swap1\n      pop\n        /* \"#utility.yul\":6635:6943   */\n      swap2\n      swap1\n      pop\n      jump\t// out\n        /* \"#utility.yul\":6949:7103   */\n    tag_160:\n        /* \"#utility.yul\":7033:7039   */\n      dup3\n        /* \"#utility.yul\":7028:7031   */\n      dup2\n        /* \"#utility.yul\":7023:7026   */\n      dup4\n        /* \"#utility.yul\":7010:7040   */\n      calldatacopy\n        /* \"#utility.yul\":7095:7096   */\n      0x00\n        /* \"#utility.yul\":7086:7092   */\n      dup4\n        /* \"#utility.yul\":7081:7084   */\n      dup4\n        /* \"#utility.yul\":7077:7093   */\n      add\n        /* \"#utility.yul\":7070:7097   */\n      mstore\n        /* \"#utility.yul\":6949:7103   */\n      pop\n      pop\n      pop\n      jump\t// out\n        /* \"#utility.yul\":7109:7521   */\n    tag_161:\n        /* \"#utility.yul\":7187:7192   */\n      0x00\n        /* \"#utility.yul\":7212:7278   */\n      tag_259\n        /* \"#utility.yul\":7228:7277   */\n      tag_260\n        /* \"#utility.yul\":7270:7276   */\n      dup5\n        /* \"#utility.yul\":7228:7277   */\n      tag_159\n      jump\t// in\n    tag_260:\n        /* \"#utility.yul\":7212:7278   */\n      tag_158\n      jump\t// in\n    tag_259:\n        /* \"#utility.yul\":7203:7278   */\n      swap1\n      pop\n        /* \"#utility.yul\":7301:7307   */\n      dup3\n        /* \"#utility.yul\":7294:7299   */\n      dup2\n        /* \"#utility.yul\":7287:7308   */\n      mstore\n        /* \"#utility.yul\":7339:7343   */\n      0x20\n        /* \"#utility.yul\":7332:7337   */\n      dup2\n        /* \"#utility.yul\":7328:7344   */\n      add\n        /* \"#utility.yul\":7377:7380   */\n      dup5\n        /* \"#utility.yul\":7368:7374   */\n      dup5\n        /* \"#utility.yul\":7363:7366   */\n      dup5\n        /* \"#utility.yul\":7359:7375   */\n      add\n        /* \"#utility.yul\":7356:7381   */\n      gt\n        /* \"#utility.yul\":7353:7465   */\n      iszero\n      tag_261\n      jumpi\n        /* \"#utility.yul\":7384:7463   */\n      tag_262\n      tag_155\n      jump\t// in\n    tag_262:\n        /* \"#utility.yul\":7353:7465   */\n    tag_261:\n        /* \"#utility.yul\":7474:7515   */\n      tag_263\n        /* \"#utility.yul\":7508:7514   */\n      dup5\n        /* \"#utility.yul\":7503:7506   */\n      dup3\n        /* \"#utility.yul\":7498:7501   */\n      dup6\n        /* \"#utility.yul\":7474:7515   */\n      tag_160\n      jump\t// in\n    tag_263:\n        /* \"#utility.yul\":7193:7521   */\n      pop\n        /* \"#utility.yul\":7109:7521   */\n      swap4\n      swap3\n      pop\n      pop\n      pop\n      jump\t// out\n        /* \"#utility.yul\":7541:7881   */\n    tag_162:\n        /* \"#utility.yul\":7597:7602   */\n      0x00\n        /* \"#utility.yul\":7646:7649   */\n      dup3\n        /* \"#utility.yul\":7639:7643   */\n      0x1f\n        /* \"#utility.yul\":7631:7637   */\n      dup4\n        /* \"#utility.yul\":7627:7644   */\n      add\n        /* \"#utility.yul\":7623:7650   */\n      slt\n        /* \"#utility.yul\":7613:7735   */\n      tag_265\n      jumpi\n        /* \"#utility.yul\":7654:7733   */\n      tag_266\n      tag_154\n      jump\t// in\n    tag_266:\n        /* \"#utility.yul\":7613:7735   */\n    tag_265:\n        /* \"#utility.yul\":7771:7777   */\n      dup2\n        /* \"#utility.yul\":7758:7778   */\n      calldataload\n        /* \"#utility.yul\":7796:7875   */\n      tag_267\n        /* \"#utility.yul\":7871:7874   */\n      dup5\n        /* \"#utility.yul\":7863:7869   */\n      dup3\n        /* \"#utility.yul\":7856:7860   */\n      0x20\n        /* \"#utility.yul\":7848:7854   */\n      dup7\n        /* \"#utility.yul\":7844:7861   */\n      add\n        /* \"#utility.yul\":7796:7875   */\n      tag_161\n      jump\t// in\n    tag_267:\n        /* \"#utility.yul\":7787:7875   */\n      swap2\n      pop\n        /* \"#utility.yul\":7603:7881   */\n      pop\n        /* \"#utility.yul\":7541:7881   */\n      swap3\n      swap2\n      pop\n      pop\n      jump\t// out\n        /* \"#utility.yul\":7887:8686   */\n    tag_51:\n        /* \"#utility.yul\":7974:7980   */\n      0x00\n        /* \"#utility.yul\":7982:7988   */\n      dup1\n        /* \"#utility.yul\":7990:7996   */\n      0x00\n        /* \"#utility.yul\":8039:8041   */\n      0x60\n        /* \"#utility.yul\":8027:8036   */\n      dup5\n        /* \"#utility.yul\":8018:8025   */\n      dup7\n        /* \"#utility.yul\":8014:8037   */\n      sub\n        /* \"#utility.yul\":8010:8042   */\n      slt\n        /* \"#utility.yul\":8007:8126   */\n      iszero\n      tag_269\n      jumpi\n        /* \"#utility.yul\":8045:8124   */\n      tag_270\n      tag_136\n      jump\t// in\n    tag_270:\n        /* \"#utility.yul\":8007:8126   */\n    tag_269:\n        /* \"#utility.yul\":8193:8194   */\n      0x00\n        /* \"#utility.yul\":8182:8191   */\n      dup5\n        /* \"#utility.yul\":8178:8195   */\n      add\n        /* \"#utility.yul\":8165:8196   */\n      calldataload\n        /* \"#utility.yul\":8223:8241   */\n      0xffffffffffffffff\n        /* \"#utility.yul\":8215:8221   */\n      dup2\n        /* \"#utility.yul\":8212:8242   */\n      gt\n        /* \"#utility.yul\":8209:8326   */\n      iszero\n      tag_271\n      jumpi\n        /* \"#utility.yul\":8245:8324   */\n      tag_272\n      tag_137\n      jump\t// in\n    tag_272:\n        /* \"#utility.yul\":8209:8326   */\n    tag_271:\n        /* \"#utility.yul\":8350:8413   */\n      tag_273\n        /* \"#utility.yul\":8405:8412   */\n      dup7\n        /* \"#utility.yul\":8396:8402   */\n      dup3\n        /* \"#utility.yul\":8385:8394   */\n      dup8\n        /* \"#utility.yul\":8381:8403   */\n      add\n        /* \"#utility.yul\":8350:8413   */\n      tag_162\n      jump\t// in\n    tag_273:\n        /* \"#utility.yul\":8340:8413   */\n      swap4\n      pop\n        /* \"#utility.yul\":8136:8423   */\n      pop\n        /* \"#utility.yul\":8462:8464   */\n      0x20\n        /* \"#utility.yul\":8488:8541   */\n      tag_274\n        /* \"#utility.yul\":8533:8540   */\n      dup7\n        /* \"#utility.yul\":8524:8530   */\n      dup3\n        /* \"#utility.yul\":8513:8522   */\n      dup8\n        /* \"#utility.yul\":8509:8531   */\n      add\n        /* \"#utility.yul\":8488:8541   */\n      tag_140\n      jump\t// in\n    tag_274:\n        /* \"#utility.yul\":8478:8541   */\n      swap3\n      pop\n        /* \"#utility.yul\":8433:8551   */\n      pop\n        /* \"#utility.yul\":8590:8592   */\n      0x40\n        /* \"#utility.yul\":8616:8669   */\n      tag_275\n        /* \"#utility.yul\":8661:8668   */\n      dup7\n        /* \"#utility.yul\":8652:8658   */\n      dup3\n        /* \"#utility.yul\":8641:8650   */\n      dup8\n        /* \"#utility.yul\":8637:8659   */\n      add\n        /* \"#utility.yul\":8616:8669   */\n      tag_149\n      jump\t// in\n    tag_275:\n        /* \"#utility.yul\":8606:8669   */\n      swap2\n      pop\n        /* \"#utility.yul\":8561:8679   */\n      pop\n        /* \"#utility.yul\":7887:8686   */\n      swap3\n      pop\n      swap3\n      pop\n      swap3\n      jump\t// out\n        /* \"#utility.yul\":8692:8914   */\n    tag_57:\n        /* \"#utility.yul\":8785:8789   */\n      0x00\n        /* \"#utility.yul\":8823:8825   */\n      0x20\n        /* \"#utility.yul\":8812:8821   */\n      dup3\n        /* \"#utility.yul\":8808:8826   */\n      add\n        /* \"#utility.yul\":8800:8826   */\n      swap1\n      pop\n        /* \"#utility.yul\":8836:8907   */\n      tag_277\n        /* \"#utility.yul\":8904:8905   */\n      0x00\n        /* \"#utility.yul\":8893:8902   */\n      dup4\n        /* \"#utility.yul\":8889:8906   */\n      add\n        /* \"#utility.yul\":8880:8886   */\n      dup5\n        /* \"#utility.yul\":8836:8907   */\n      tag_152\n      jump\t// in\n    tag_277:\n        /* \"#utility.yul\":8692:8914   */\n      swap3\n      swap2\n      pop\n      pop\n      jump\t// out\n        /* \"#utility.yul\":8920:9097   */\n    tag_163:\n        /* \"#utility.yul\":9060:9089   */\n      0x526571756573742063616e277420626520636f6d706c65746564210000000000\n        /* \"#utility.yul\":9056:9057   */\n      0x00\n        /* \"#utility.yul\":9048:9054   */\n      dup3\n        /* \"#utility.yul\":9044:9058   */\n      add\n        /* \"#utility.yul\":9037:9090   */\n      mstore\n        /* \"#utility.yul\":8920:9097   */\n      pop\n      jump\t// out\n        /* \"#utility.yul\":9103:9469   */\n    tag_164:\n        /* \"#utility.yul\":9245:9248   */\n      0x00\n        /* \"#utility.yul\":9266:9333   */\n      tag_280\n        /* \"#utility.yul\":9330:9332   */\n      0x1b\n        /* \"#utility.yul\":9325:9328   */\n      dup4\n        /* \"#utility.yul\":9266:9333   */\n      tag_142\n      jump\t// in\n    tag_280:\n        /* \"#utility.yul\":9259:9333   */\n      swap2\n      pop\n        /* \"#utility.yul\":9342:9435   */\n      tag_281\n        /* \"#utility.yul\":9431:9434   */\n      dup3\n        /* \"#utility.yul\":9342:9435   */\n      tag_163\n      jump\t// in\n    tag_281:\n        /* \"#utility.yul\":9460:9462   */\n      0x20\n        /* \"#utility.yul\":9455:9458   */\n      dup3\n        /* \"#utility.yul\":9451:9463   */\n      add\n        /* \"#utility.yul\":9444:9463   */\n      swap1\n      pop\n        /* \"#utility.yul\":9103:9469   */\n      swap2\n      swap1\n      pop\n      jump\t// out\n        /* \"#utility.yul\":9475:9894   */\n    tag_77:\n        /* \"#utility.yul\":9641:9645   */\n      0x00\n        /* \"#utility.yul\":9679:9681   */\n      0x20\n        /* \"#utility.yul\":9668:9677   */\n      dup3\n        /* \"#utility.yul\":9664:9682   */\n      add\n        /* \"#utility.yul\":9656:9682   */\n      swap1\n      pop\n        /* \"#utility.yul\":9728:9737   */\n      dup2\n        /* \"#utility.yul\":9722:9726   */\n      dup2\n        /* \"#utility.yul\":9718:9738   */\n      sub\n        /* \"#utility.yul\":9714:9715   */\n      0x00\n        /* \"#utility.yul\":9703:9712   */\n      dup4\n        /* \"#utility.yul\":9699:9716   */\n      add\n        /* \"#utility.yul\":9692:9739   */\n      mstore\n        /* \"#utility.yul\":9756:9887   */\n      tag_283\n        /* \"#utility.yul\":9882:9886   */\n      dup2\n        /* \"#utility.yul\":9756:9887   */\n      tag_164\n      jump\t// in\n    tag_283:\n        /* \"#utility.yul\":9748:9887   */\n      swap1\n      pop\n        /* \"#utility.yul\":9475:9894   */\n      swap2\n      swap1\n      pop\n      jump\t// out\n        /* \"#utility.yul\":9900:10080   */\n    tag_165:\n        /* \"#utility.yul\":9948:10025   */\n      0x4e487b7100000000000000000000000000000000000000000000000000000000\n        /* \"#utility.yul\":9945:9946   */\n      0x00\n        /* \"#utility.yul\":9938:10026   */\n      mstore\n        /* \"#utility.yul\":10045:10049   */\n      0x12\n        /* \"#utility.yul\":10042:10043   */\n      0x04\n        /* \"#utility.yul\":10035:10050   */\n      mstore\n        /* \"#utility.yul\":10069:10073   */\n      0x24\n        /* \"#utility.yul\":10066:10067   */\n      0x00\n        /* \"#utility.yul\":10059:10074   */\n      revert\n        /* \"#utility.yul\":10086:10266   */\n    tag_166:\n        /* \"#utility.yul\":10134:10211   */\n      0x4e487b7100000000000000000000000000000000000000000000000000000000\n        /* \"#utility.yul\":10131:10132   */\n      0x00\n        /* \"#utility.yul\":10124:10212   */\n      mstore\n        /* \"#utility.yul\":10231:10235   */\n      0x11\n        /* \"#utility.yul\":10228:10229   */\n      0x04\n        /* \"#utility.yul\":10221:10236   */\n      mstore\n        /* \"#utility.yul\":10255:10259   */\n      0x24\n        /* \"#utility.yul\":10252:10253   */\n      0x00\n        /* \"#utility.yul\":10245:10260   */\n      revert\n        /* \"#utility.yul\":10272:10457   */\n    tag_79:\n        /* \"#utility.yul\":10312:10313   */\n      0x00\n        /* \"#utility.yul\":10329:10349   */\n      tag_287\n        /* \"#utility.yul\":10347:10348   */\n      dup3\n        /* \"#utility.yul\":10329:10349   */\n      tag_138\n      jump\t// in\n    tag_287:\n        /* \"#utility.yul\":10324:10349   */\n      swap2\n      pop\n        /* \"#utility.yul\":10363:10383   */\n      tag_288\n        /* \"#utility.yul\":10381:10382   */\n      dup4\n        /* \"#utility.yul\":10363:10383   */\n      tag_138\n      jump\t// in\n    tag_288:\n        /* \"#utility.yul\":10358:10383   */\n      swap3\n      pop\n        /* \"#utility.yul\":10402:10403   */\n      dup3\n        /* \"#utility.yul\":10392:10427   */\n      tag_289\n      jumpi\n        /* \"#utility.yul\":10407:10425   */\n      tag_290\n      tag_165\n      jump\t// in\n    tag_290:\n        /* \"#utility.yul\":10392:10427   */\n    tag_289:\n        /* \"#utility.yul\":10449:10450   */\n      dup3\n        /* \"#utility.yul\":10446:10447   */\n      dup3\n        /* \"#utility.yul\":10442:10451   */\n      div\n        /* \"#utility.yul\":10437:10451   */\n      swap1\n      pop\n        /* \"#utility.yul\":10272:10457   */\n      swap3\n      swap2\n      pop\n      pop\n      jump\t// out\n        /* \"#utility.yul\":10463:10710   */\n    tag_167:\n        /* \"#utility.yul\":10603:10637   */\n      0x526571756573742073686f756c6420626520617070726f766564206279206d6f\n        /* \"#utility.yul\":10599:10600   */\n      0x00\n        /* \"#utility.yul\":10591:10597   */\n      dup3\n        /* \"#utility.yul\":10587:10601   */\n      add\n        /* \"#utility.yul\":10580:10638   */\n      mstore\n        /* \"#utility.yul\":10672:10702   */\n      0x7265207468616e20353025206f6620636f6e7472696275746f72732100000000\n        /* \"#utility.yul\":10667:10669   */\n      0x20\n        /* \"#utility.yul\":10659:10665   */\n      dup3\n        /* \"#utility.yul\":10655:10670   */\n      add\n        /* \"#utility.yul\":10648:10703   */\n      mstore\n        /* \"#utility.yul\":10463:10710   */\n      pop\n      jump\t// out\n        /* \"#utility.yul\":10716:11082   */\n    tag_168:\n        /* \"#utility.yul\":10858:10861   */\n      0x00\n        /* \"#utility.yul\":10879:10946   */\n      tag_293\n        /* \"#utility.yul\":10943:10945   */\n      0x3c\n        /* \"#utility.yul\":10938:10941   */\n      dup4\n        /* \"#utility.yul\":10879:10946   */\n      tag_142\n      jump\t// in\n    tag_293:\n        /* \"#utility.yul\":10872:10946   */\n      swap2\n      pop\n        /* \"#utility.yul\":10955:11048   */\n      tag_294\n        /* \"#utility.yul\":11044:11047   */\n      dup3\n        /* \"#utility.yul\":10955:11048   */\n      tag_167\n      jump\t// in\n    tag_294:\n        /* \"#utility.yul\":11073:11075   */\n      0x40\n        /* \"#utility.yul\":11068:11071   */\n      dup3\n        /* \"#utility.yul\":11064:11076   */\n      add\n        /* \"#utility.yul\":11057:11076   */\n      swap1\n      pop\n        /* \"#utility.yul\":10716:11082   */\n      swap2\n      swap1\n      pop\n      jump\t// out\n        /* \"#utility.yul\":11088:11507   */\n    tag_82:\n        /* \"#utility.yul\":11254:11258   */\n      0x00\n        /* \"#utility.yul\":11292:11294   */\n      0x20\n        /* \"#utility.yul\":11281:11290   */\n      dup3\n        /* \"#utility.yul\":11277:11295   */\n      add\n        /* \"#utility.yul\":11269:11295   */\n      swap1\n      pop\n        /* \"#utility.yul\":11341:11350   */\n      dup2\n        /* \"#utility.yul\":11335:11339   */\n      dup2\n        /* \"#utility.yul\":11331:11351   */\n      sub\n        /* \"#utility.yul\":11327:11328   */\n      0x00\n        /* \"#utility.yul\":11316:11325   */\n      dup4\n        /* \"#utility.yul\":11312:11329   */\n      add\n        /* \"#utility.yul\":11305:11352   */\n      mstore\n        /* \"#utility.yul\":11369:11500   */\n      tag_296\n        /* \"#utility.yul\":11495:11499   */\n      dup2\n        /* \"#utility.yul\":11369:11500   */\n      tag_168\n      jump\t// in\n    tag_296:\n        /* \"#utility.yul\":11361:11500   */\n      swap1\n      pop\n        /* \"#utility.yul\":11088:11507   */\n      swap2\n      swap1\n      pop\n      jump\t// out\n        /* \"#utility.yul\":11513:11761   */\n    tag_169:\n        /* \"#utility.yul\":11653:11687   */\n      0x436f6e74726163742062616c616e6365206e6565647320746f20626520686967\n        /* \"#utility.yul\":11649:11650   */\n      0x00\n        /* \"#utility.yul\":11641:11647   */\n      dup3\n        /* \"#utility.yul\":11637:11651   */\n      add\n        /* \"#utility.yul\":11630:11688   */\n      mstore\n        /* \"#utility.yul\":11722:11753   */\n      0x686572207468616e2074686520726571756972656420616d6f756e7421000000\n        /* \"#utility.yul\":11717:11719   */\n      0x20\n        /* \"#utility.yul\":11709:11715   */\n      dup3\n        /* \"#utility.yul\":11705:11720   */\n      add\n        /* \"#utility.yul\":11698:11754   */\n      mstore\n        /* \"#utility.yul\":11513:11761   */\n      pop\n      jump\t// out\n        /* \"#utility.yul\":11767:12133   */\n    tag_170:\n        /* \"#utility.yul\":11909:11912   */\n      0x00\n        /* \"#utility.yul\":11930:11997   */\n      tag_299\n        /* \"#utility.yul\":11994:11996   */\n      0x3d\n        /* \"#utility.yul\":11989:11992   */\n      dup4\n        /* \"#utility.yul\":11930:11997   */\n      tag_142\n      jump\t// in\n    tag_299:\n        /* \"#utility.yul\":11923:11997   */\n      swap2\n      pop\n        /* \"#utility.yul\":12006:12099   */\n      tag_300\n        /* \"#utility.yul\":12095:12098   */\n      dup3\n        /* \"#utility.yul\":12006:12099   */\n      tag_169\n      jump\t// in\n    tag_300:\n        /* \"#utility.yul\":12124:12126   */\n      0x40\n        /* \"#utility.yul\":12119:12122   */\n      dup3\n        /* \"#utility.yul\":12115:12127   */\n      add\n        /* \"#utility.yul\":12108:12127   */\n      swap1\n      pop\n        /* \"#utility.yul\":11767:12133   */\n      swap2\n      swap1\n      pop\n      jump\t// out\n        /* \"#utility.yul\":12139:12558   */\n    tag_85:\n        /* \"#utility.yul\":12305:12309   */\n      0x00\n        /* \"#utility.yul\":12343:12345   */\n      0x20\n        /* \"#utility.yul\":12332:12341   */\n      dup3\n        /* \"#utility.yul\":12328:12346   */\n      add\n        /* \"#utility.yul\":12320:12346   */\n      swap1\n      pop\n        /* \"#utility.yul\":12392:12401   */\n      dup2\n        /* \"#utility.yul\":12386:12390   */\n      dup2\n        /* \"#utility.yul\":12382:12402   */\n      sub\n        /* \"#utility.yul\":12378:12379   */\n      0x00\n        /* \"#utility.yul\":12367:12376   */\n      dup4\n        /* \"#utility.yul\":12363:12380   */\n      add\n        /* \"#utility.yul\":12356:12403   */\n      mstore\n        /* \"#utility.yul\":12420:12551   */\n      tag_302\n        /* \"#utility.yul\":12546:12550   */\n      dup2\n        /* \"#utility.yul\":12420:12551   */\n      tag_170\n      jump\t// in\n    tag_302:\n        /* \"#utility.yul\":12412:12551   */\n      swap1\n      pop\n        /* \"#utility.yul\":12139:12558   */\n      swap2\n      swap1\n      pop\n      jump\t// out\n        /* \"#utility.yul\":12564:12744   */\n    tag_171:\n        /* \"#utility.yul\":12612:12689   */\n      0x4e487b7100000000000000000000000000000000000000000000000000000000\n        /* \"#utility.yul\":12609:12610   */\n      0x00\n        /* \"#utility.yul\":12602:12690   */\n      mstore\n        /* \"#utility.yul\":12709:12713   */\n      0x22\n        /* \"#utility.yul\":12706:12707   */\n      0x04\n        /* \"#utility.yul\":12699:12714   */\n      mstore\n        /* \"#utility.yul\":12733:12737   */\n      0x24\n        /* \"#utility.yul\":12730:12731   */\n      0x00\n        /* \"#utility.yul\":12723:12738   */\n      revert\n        /* \"#utility.yul\":12750:13070   */\n    tag_89:\n        /* \"#utility.yul\":12794:12800   */\n      0x00\n        /* \"#utility.yul\":12831:12832   */\n      0x02\n        /* \"#utility.yul\":12825:12829   */\n      dup3\n        /* \"#utility.yul\":12821:12833   */\n      div\n        /* \"#utility.yul\":12811:12833   */\n      swap1\n      pop\n        /* \"#utility.yul\":12878:12879   */\n      0x01\n        /* \"#utility.yul\":12872:12876   */\n      dup3\n        /* \"#utility.yul\":12868:12880   */\n      and\n        /* \"#utility.yul\":12899:12917   */\n      dup1\n        /* \"#utility.yul\":12889:12970   */\n      tag_305\n      jumpi\n        /* \"#utility.yul\":12955:12959   */\n      0x7f\n        /* \"#utility.yul\":12947:12953   */\n      dup3\n        /* \"#utility.yul\":12943:12960   */\n      and\n        /* \"#utility.yul\":12933:12960   */\n      swap2\n      pop\n        /* \"#utility.yul\":12889:12970   */\n    tag_305:\n        /* \"#utility.yul\":13017:13019   */\n      0x20\n        /* \"#utility.yul\":13009:13015   */\n      dup3\n        /* \"#utility.yul\":13006:13020   */\n      lt\n        /* \"#utility.yul\":12986:13004   */\n      dup2\n        /* \"#utility.yul\":12983:13021   */\n      sub\n        /* \"#utility.yul\":12980:13064   */\n      tag_306\n      jumpi\n        /* \"#utility.yul\":13036:13054   */\n      tag_307\n      tag_171\n      jump\t// in\n    tag_307:\n        /* \"#utility.yul\":12980:13064   */\n    tag_306:\n        /* \"#utility.yul\":12801:13070   */\n      pop\n        /* \"#utility.yul\":12750:13070   */\n      swap2\n      swap1\n      pop\n      jump\t// out\n        /* \"#utility.yul\":13076:13309   */\n    tag_109:\n        /* \"#utility.yul\":13115:13118   */\n      0x00\n        /* \"#utility.yul\":13138:13162   */\n      tag_309\n        /* \"#utility.yul\":13156:13161   */\n      dup3\n        /* \"#utility.yul\":13138:13162   */\n      tag_138\n      jump\t// in\n    tag_309:\n        /* \"#utility.yul\":13129:13162   */\n      swap2\n      pop\n        /* \"#utility.yul\":13184:13250   */\n      0xffffffffffffffffffffffffffffffffffffffffffffffffffffffffffffffff\n        /* \"#utility.yul\":13177:13182   */\n      dup3\n        /* \"#utility.yul\":13174:13251   */\n      sub\n        /* \"#utility.yul\":13171:13274   */\n      tag_310\n      jumpi\n        /* \"#utility.yul\":13254:13272   */\n      tag_311\n      tag_166\n      jump\t// in\n    tag_311:\n        /* \"#utility.yul\":13171:13274   */\n    tag_310:\n        /* \"#utility.yul\":13301:13302   */\n      0x01\n        /* \"#utility.yul\":13294:13299   */\n      dup3\n        /* \"#utility.yul\":13290:13303   */\n      add\n        /* \"#utility.yul\":13283:13303   */\n      swap1\n      pop\n        /* \"#utility.yul\":13076:13309   */\n      swap2\n      swap1\n      pop\n      jump\t// out\n        /* \"#utility.yul\":13315:13547   */\n    tag_172:\n        /* \"#utility.yul\":13455:13489   */\n      0x4d75737420636f6e74726962757465206d6f7265207468616e20746865206d69\n        /* \"#utility.yul\":13451:13452   */\n      0x00\n        /* \"#utility.yul\":13443:13449   */\n      dup3\n        /* \"#utility.yul\":13439:13453   */\n      add\n        /* \"#utility.yul\":13432:13490   */\n      mstore\n        /* \"#utility.yul\":13524:13539   */\n      0x6e696d756d20616d6f756e742100000000000000000000000000000000000000\n        /* \"#utility.yul\":13519:13521   */\n      0x20\n        /* \"#utility.yul\":13511:13517   */\n      dup3\n        /* \"#utility.yul\":13507:13522   */\n      add\n        /* \"#utility.yul\":13500:13540   */\n      mstore\n        /* \"#utility.yul\":13315:13547   */\n      pop\n      jump\t// out\n        /* \"#utility.yul\":13553:13919   */\n    tag_173:\n        /* \"#utility.yul\":13695:13698   */\n      0x00\n        /* \"#utility.yul\":13716:13783   */\n      tag_314\n        /* \"#utility.yul\":13780:13782   */\n      0x2d\n        /* \"#utility.yul\":13775:13778   */\n      dup4\n        /* \"#utility.yul\":13716:13783   */\n      tag_142\n      jump\t// in\n    tag_314:\n        /* \"#utility.yul\":13709:13783   */\n      swap2\n      pop\n        /* \"#utility.yul\":13792:13885   */\n      tag_315\n        /* \"#utility.yul\":13881:13884   */\n      dup3\n        /* \"#utility.yul\":13792:13885   */\n      tag_172\n      jump\t// in\n    tag_315:\n        /* \"#utility.yul\":13910:13912   */\n      0x40\n        /* \"#utility.yul\":13905:13908   */\n      dup3\n        /* \"#utility.yul\":13901:13913   */\n      add\n        /* \"#utility.yul\":13894:13913   */\n      swap1\n      pop\n        /* \"#utility.yul\":13553:13919   */\n      swap2\n      swap1\n      pop\n      jump\t// out\n        /* \"#utility.yul\":13925:14344   */\n    tag_115:\n        /* \"#utility.yul\":14091:14095   */\n      0x00\n        /* \"#utility.yul\":14129:14131   */\n      0x20\n        /* \"#utility.yul\":14118:14127   */\n      dup3\n        /* \"#utility.yul\":14114:14132   */\n      add\n        /* \"#utility.yul\":14106:14132   */\n      swap1\n      pop\n        /* \"#utility.yul\":14178:14187   */\n      dup2\n        /* \"#utility.yul\":14172:14176   */\n      dup2\n        /* \"#utility.yul\":14168:14188   */\n      sub\n        /* \"#utility.yul\":14164:14165   */\n      0x00\n        /* \"#utility.yul\":14153:14162   */\n      dup4\n        /* \"#utility.yul\":14149:14166   */\n      add\n        /* \"#utility.yul\":14142:14189   */\n      mstore\n        /* \"#utility.yul\":14206:14337   */\n      tag_317\n        /* \"#utility.yul\":14332:14336   */\n      dup2\n        /* \"#utility.yul\":14206:14337   */\n      tag_173\n      jump\t// in\n    tag_317:\n        /* \"#utility.yul\":14198:14337   */\n      swap1\n      pop\n        /* \"#utility.yul\":13925:14344   */\n      swap2\n      swap1\n      pop\n      jump\t// out\n        /* \"#utility.yul\":14350:14579   */\n    tag_174:\n        /* \"#utility.yul\":14490:14524   */\n      0x4d757374206265206120636f6e7472696275746f7220746f20617070726f7665\n        /* \"#utility.yul\":14486:14487   */\n      0x00\n        /* \"#utility.yul\":14478:14484   */\n      dup3\n        /* \"#utility.yul\":14474:14488   */\n      add\n        /* \"#utility.yul\":14467:14525   */\n      mstore\n        /* \"#utility.yul\":14559:14571   */\n      0x2072657175657374732100000000000000000000000000000000000000000000\n        /* \"#utility.yul\":14554:14556   */\n      0x20\n        /* \"#utility.yul\":14546:14552   */\n      dup3\n        /* \"#utility.yul\":14542:14557   */\n      add\n        /* \"#utility.yul\":14535:14572   */\n      mstore\n        /* \"#utility.yul\":14350:14579   */\n      pop\n      jump\t// out\n        /* \"#utility.yul\":14585:14951   */\n    tag_175:\n        /* \"#utility.yul\":14727:14730   */\n      0x00\n        /* \"#utility.yul\":14748:14815   */\n      tag_320\n        /* \"#utility.yul\":14812:14814   */\n      0x2a\n        /* \"#utility.yul\":14807:14810   */\n      dup4\n        /* \"#utility.yul\":14748:14815   */\n      tag_142\n      jump\t// in\n    tag_320:\n        /* \"#utility.yul\":14741:14815   */\n      swap2\n      pop\n        /* \"#utility.yul\":14824:14917   */\n      tag_321\n        /* \"#utility.yul\":14913:14916   */\n      dup3\n        /* \"#utility.yul\":14824:14917   */\n      tag_174\n      jump\t// in\n    tag_321:\n        /* \"#utility.yul\":14942:14944   */\n      0x40\n        /* \"#utility.yul\":14937:14940   */\n      dup3\n        /* \"#utility.yul\":14933:14945   */\n      add\n        /* \"#utility.yul\":14926:14945   */\n      swap1\n      pop\n        /* \"#utility.yul\":14585:14951   */\n      swap2\n      swap1\n      pop\n      jump\t// out\n        /* \"#utility.yul\":14957:15376   */\n    tag_120:\n        /* \"#utility.yul\":15123:15127   */\n      0x00\n        /* \"#utility.yul\":15161:15163   */\n      0x20\n        /* \"#utility.yul\":15150:15159   */\n      dup3\n        /* \"#utility.yul\":15146:15164   */\n      add\n        /* \"#utility.yul\":15138:15164   */\n      swap1\n      pop\n        /* \"#utility.yul\":15210:15219   */\n      dup2\n        /* \"#utility.yul\":15204:15208   */\n      dup2\n        /* \"#utility.yul\":15200:15220   */\n      sub\n        /* \"#utility.yul\":15196:15197   */\n      0x00\n        /* \"#utility.yul\":15185:15194   */\n      dup4\n        /* \"#utility.yul\":15181:15198   */\n      add\n        /* \"#utility.yul\":15174:15221   */\n      mstore\n        /* \"#utility.yul\":15238:15369   */\n      tag_323\n        /* \"#utility.yul\":15364:15368   */\n      dup2\n        /* \"#utility.yul\":15238:15369   */\n      tag_175\n      jump\t// in\n    tag_323:\n        /* \"#utility.yul\":15230:15369   */\n      swap1\n      pop\n        /* \"#utility.yul\":14957:15376   */\n      swap2\n      swap1\n      pop\n      jump\t// out\n        /* \"#utility.yul\":15382:15612   */\n    tag_176:\n        /* \"#utility.yul\":15522:15556   */\n      0x4d7573742068617665206e6f7420617070726f76656420746865207265717565\n        /* \"#utility.yul\":15518:15519   */\n      0x00\n        /* \"#utility.yul\":15510:15516   */\n      dup3\n        /* \"#utility.yul\":15506:15520   */\n      add\n        /* \"#utility.yul\":15499:15557   */\n      mstore\n        /* \"#utility.yul\":15591:15604   */\n      0x737420616c726561647921000000000000000000000000000000000000000000\n        /* \"#utility.yul\":15586:15588   */\n      0x20\n        /* \"#utility.yul\":15578:15584   */\n      dup3\n        /* \"#utility.yul\":15574:15589   */\n      add\n        /* \"#utility.yul\":15567:15605   */\n      mstore\n        /* \"#utility.yul\":15382:15612   */\n      pop\n      jump\t// out\n        /* \"#utility.yul\":15618:15984   */\n    tag_177:\n        /* \"#utility.yul\":15760:15763   */\n      0x00\n        /* \"#utility.yul\":15781:15848   */\n      tag_326\n        /* \"#utility.yul\":15845:15847   */\n      0x2b\n        /* \"#utility.yul\":15840:15843   */\n      dup4\n        /* \"#utility.yul\":15781:15848   */\n      tag_142\n      jump\t// in\n    tag_326:\n        /* \"#utility.yul\":15774:15848   */\n      swap2\n      pop\n        /* \"#utility.yul\":15857:15950   */\n      tag_327\n        /* \"#utility.yul\":15946:15949   */\n      dup3\n        /* \"#utility.yul\":15857:15950   */\n      tag_176\n      jump\t// in\n    tag_327:\n        /* \"#utility.yul\":15975:15977   */\n      0x40\n        /* \"#utility.yul\":15970:15973   */\n      dup3\n        /* \"#utility.yul\":15966:15978   */\n      add\n        /* \"#utility.yul\":15959:15978   */\n      swap1\n      pop\n        /* \"#utility.yul\":15618:15984   */\n      swap2\n      swap1\n      pop\n      jump\t// out\n        /* \"#utility.yul\":15990:16409   */\n    tag_123:\n        /* \"#utility.yul\":16156:16160   */\n      0x00\n        /* \"#utility.yul\":16194:16196   */\n      0x20\n        /* \"#utility.yul\":16183:16192   */\n      dup3\n        /* \"#utility.yul\":16179:16197   */\n      add\n        /* \"#utility.yul\":16171:16197   */\n      swap1\n      pop\n        /* \"#utility.yul\":16243:16252   */\n      dup2\n        /* \"#utility.yul\":16237:16241   */\n      dup2\n        /* \"#utility.yul\":16233:16253   */\n      sub\n        /* \"#utility.yul\":16229:16230   */\n      0x00\n        /* \"#utility.yul\":16218:16227   */\n      dup4\n        /* \"#utility.yul\":16214:16231   */\n      add\n        /* \"#utility.yul\":16207:16254   */\n      mstore\n        /* \"#utility.yul\":16271:16402   */\n      tag_329\n        /* \"#utility.yul\":16397:16401   */\n      dup2\n        /* \"#utility.yul\":16271:16402   */\n      tag_177\n      jump\t// in\n    tag_329:\n        /* \"#utility.yul\":16263:16402   */\n      swap1\n      pop\n        /* \"#utility.yul\":15990:16409   */\n      swap2\n      swap1\n      pop\n      jump\t// out\n\n    auxdata: 0xa2646970667358221220b65f4b7b0eb9cd22606d39fc5db7f2f03c28284a4fd01d27aa06ddd187f9cf9b64736f6c634300080d0033\n}\n","bytecode":{"linkReferences":{},"object":"60806040523480156200001157600080fd5b506040516200193d3803806200193d83398181016040528101906200003791906200038d565b816000806101000a81548173ffffffffffffffffffffffffffffffffffffffff021916908373ffffffffffffffffffffffffffffffffffffffff16021790555082600281905550806001908051906020019062000096929190620000a0565b505050506200046c565b828054620000ae9062000437565b90600052602060002090601f016020900481019282620000d257600085556200011e565b82601f10620000ed57805160ff19168380011785556200011e565b828001600101855582156200011e579182015b828111156200011d57825182559160200191906001019062000100565b5b5090506200012d919062000131565b5090565b5b808211156200014c57600081600090555060010162000132565b5090565b6000604051905090565b600080fd5b600080fd5b6000819050919050565b620001798162000164565b81146200018557600080fd5b50565b60008151905062000199816200016e565b92915050565b600073ffffffffffffffffffffffffffffffffffffffff82169050919050565b6000620001cc826200019f565b9050919050565b620001de81620001bf565b8114620001ea57600080fd5b50565b600081519050620001fe81620001d3565b92915050565b600080fd5b600080fd5b6000601f19601f8301169050919050565b7f4e487b7100000000000000000000000000000000000000000000000000000000600052604160045260246000fd5b62000259826200020e565b810181811067ffffffffffffffff821117156200027b576200027a6200021f565b5b80604052505050565b60006200029062000150565b90506200029e82826200024e565b919050565b600067ffffffffffffffff821115620002c157620002c06200021f565b5b620002cc826200020e565b9050602081019050919050565b60005b83811015620002f9578082015181840152602081019050620002dc565b8381111562000309576000848401525b50505050565b6000620003266200032084620002a3565b62000284565b90508281526020810184848401111562000345576200034462000209565b5b62000352848285620002d9565b509392505050565b600082601f83011262000372576200037162000204565b5b8151620003848482602086016200030f565b91505092915050565b600080600060608486031215620003a957620003a86200015a565b5b6000620003b98682870162000188565b9350506020620003cc86828701620001ed565b925050604084015167ffffffffffffffff811115620003f057620003ef6200015f565b5b620003fe868287016200035a565b9150509250925092565b7f4e487b7100000000000000000000000000000000000000000000000000000000600052602260045260246000fd5b600060028204905060018216806200045057607f821691505b60208210810362000466576200046562000408565b5b50919050565b6114c1806200047c6000396000f3fe6080604052600436106100a75760003560e01c80638a9cfd55116100645780638a9cfd55146101d9578063937e09b1146102025780639fb42b1f1461022d578063d7bb99ba14610258578063d7d1bbdb14610262578063ecfd89281461028b576100a7565b806303441006146100ac578063110842cb146100d55780631f6d4942146101005780634051ddac1461013d578063481c6a751461016d57806381d12c5814610198575b600080fd5b3480156100b857600080fd5b506100d360048036038101906100ce9190610bab565b6102b6565b005b3480156100e157600080fd5b506100ea6104a1565b6040516100f79190610c71565b60405180910390f35b34801561010c57600080fd5b5061012760048036038101906101229190610cf1565b61052f565b6040516101349190610d39565b60405180910390f35b34801561014957600080fd5b5061015261054f565b60405161016496959493929190610d72565b60405180910390f35b34801561017957600080fd5b50610182610626565b60405161018f9190610dda565b60405180910390f35b3480156101a457600080fd5b506101bf60048036038101906101ba9190610bab565b61064a565b6040516101d0959493929190610df5565b60405180910390f35b3480156101e557600080fd5b5061020060048036038101906101fb9190610f84565b610735565b005b34801561020e57600080fd5b5061021761084c565b6040516102249190610ff3565b60405180910390f35b34801561023957600080fd5b50610242610852565b60405161024f9190610ff3565b60405180910390f35b610260610858565b005b34801561026e57600080fd5b5061028960048036038101906102849190610bab565b61090e565b005b34801561029757600080fd5b506102a0610ab8565b6040516102ad9190610ff3565b60405180910390f35b60008054906101000a900473ffffffffffffffffffffffffffffffffffffffff1673ffffffffffffffffffffffffffffffffffffffff163373ffffffffffffffffffffffffffffffffffffffff161461030e57600080fd5b60006006600083815260200190815260200160002090508060020160149054906101000a900460ff1615610377576040517f08c379a000000000000000000000000000000000000000000000000000000000815260040161036e9061105a565b60405180910390fd5b600260045461038691906110d8565b8160030154116103cb576040517f08c379a00000000000000000000000000000000000000000000000000000000081526004016103c29061117b565b60405180910390fd5b47816001015410610411576040517f08c379a00000000000000000000000000000000000000000000000000000000081526004016104089061120d565b60405180910390fd5b8060020160009054906101000a900473ffffffffffffffffffffffffffffffffffffffff1673ffffffffffffffffffffffffffffffffffffffff166108fc82600101549081150290604051600060405180830381858888f1935050505015801561047f573d6000803e3d6000fd5b5060018160020160146101000a81548160ff0219169083151502179055505050565b600180546104ae9061125c565b80601f01602080910402602001604051908101604052809291908181526020018280546104da9061125c565b80156105275780601f106104fc57610100808354040283529160200191610527565b820191906000526020600020905b81548152906001019060200180831161050a57829003601f168201915b505050505081565b60036020528060005260406000206000915054906101000a900460ff1681565b600080600080600060606002544760055460045460008054906101000a900473ffffffffffffffffffffffffffffffffffffffff1660018080546105929061125c565b80601f01602080910402602001604051908101604052809291908181526020018280546105be9061125c565b801561060b5780601f106105e05761010080835404028352916020019161060b565b820191906000526020600020905b8154815290600101906020018083116105ee57829003601f168201915b50505050509050955095509550955095509550909192939495565b60008054906101000a900473ffffffffffffffffffffffffffffffffffffffff1681565b600660205280600052604060002060009150905080600001805461066d9061125c565b80601f01602080910402602001604051908101604052809291908181526020018280546106999061125c565b80156106e65780601f106106bb576101008083540402835291602001916106e6565b820191906000526020600020905b8154815290600101906020018083116106c957829003601f168201915b5050505050908060010154908060020160009054906101000a900473ffffffffffffffffffffffffffffffffffffffff16908060020160149054906101000a900460ff16908060030154905085565b60008054906101000a900473ffffffffffffffffffffffffffffffffffffffff1673ffffffffffffffffffffffffffffffffffffffff163373ffffffffffffffffffffffffffffffffffffffff161461078d57600080fd5b600060066000600560008154809291906107a69061128d565b9190505581526020019081526020016000209050838160000190805190602001906107d2929190610abe565b50828160010181905550818160020160006101000a81548173ffffffffffffffffffffffffffffffffffffffff021916908373ffffffffffffffffffffffffffffffffffffffff16021790555060008160020160146101000a81548160ff0219169083151502179055506000816003018190555050505050565b60025481565b60055481565b600254341161089c576040517f08c379a000000000000000000000000000000000000000000000000000000000815260040161089390611347565b60405180910390fd5b6001600360003373ffffffffffffffffffffffffffffffffffffffff1673ffffffffffffffffffffffffffffffffffffffff16815260200190815260200160002060006101000a81548160ff021916908315150217905550600460008154809291906109079061128d565b9190505550565b6000600660008381526020019081526020016000209050600360003373ffffffffffffffffffffffffffffffffffffffff1673ffffffffffffffffffffffffffffffffffffffff16815260200190815260200160002060009054906101000a900460ff166109b1576040517f08c379a00000000000000000000000000000000000000000000000000000000081526004016109a8906113d9565b60405180910390fd5b8060040160003373ffffffffffffffffffffffffffffffffffffffff1673ffffffffffffffffffffffffffffffffffffffff16815260200190815260200160002060009054906101000a900460ff1615610a40576040517f08c379a0000000000000000000000000000000000000000000000000000000008152600401610a379061146b565b60405180910390fd5b60018160040160003373ffffffffffffffffffffffffffffffffffffffff1673ffffffffffffffffffffffffffffffffffffffff16815260200190815260200160002060006101000a81548160ff021916908315150217905550806003016000815480929190610aaf9061128d565b91905055505050565b60045481565b828054610aca9061125c565b90600052602060002090601f016020900481019282610aec5760008555610b33565b82601f10610b0557805160ff1916838001178555610b33565b82800160010185558215610b33579182015b82811115610b32578251825591602001919060010190610b17565b5b509050610b409190610b44565b5090565b5b80821115610b5d576000816000905550600101610b45565b5090565b6000604051905090565b600080fd5b600080fd5b6000819050919050565b610b8881610b75565b8114610b9357600080fd5b50565b600081359050610ba581610b7f565b92915050565b600060208284031215610bc157610bc0610b6b565b5b6000610bcf84828501610b96565b91505092915050565b600081519050919050565b600082825260208201905092915050565b60005b83811015610c12578082015181840152602081019050610bf7565b83811115610c21576000848401525b50505050565b6000601f19601f8301169050919050565b6000610c4382610bd8565b610c4d8185610be3565b9350610c5d818560208601610bf4565b610c6681610c27565b840191505092915050565b60006020820190508181036000830152610c8b8184610c38565b905092915050565b600073ffffffffffffffffffffffffffffffffffffffff82169050919050565b6000610cbe82610c93565b9050919050565b610cce81610cb3565b8114610cd957600080fd5b50565b600081359050610ceb81610cc5565b92915050565b600060208284031215610d0757610d06610b6b565b5b6000610d1584828501610cdc565b91505092915050565b60008115159050919050565b610d3381610d1e565b82525050565b6000602082019050610d4e6000830184610d2a565b92915050565b610d5d81610b75565b82525050565b610d6c81610cb3565b82525050565b600060c082019050610d876000830189610d54565b610d946020830188610d54565b610da16040830187610d54565b610dae6060830186610d54565b610dbb6080830185610d63565b81810360a0830152610dcd8184610c38565b9050979650505050505050565b6000602082019050610def6000830184610d63565b92915050565b600060a0820190508181036000830152610e0f8188610c38565b9050610e1e6020830187610d54565b610e2b6040830186610d63565b610e386060830185610d2a565b610e456080830184610d54565b9695505050505050565b600080fd5b600080fd5b7f4e487b7100000000000000000000000000000000000000000000000000000000600052604160045260246000fd5b610e9182610c27565b810181811067ffffffffffffffff82111715610eb057610eaf610e59565b5b80604052505050565b6000610ec3610b61565b9050610ecf8282610e88565b919050565b600067ffffffffffffffff821115610eef57610eee610e59565b5b610ef882610c27565b9050602081019050919050565b82818337600083830152505050565b6000610f27610f2284610ed4565b610eb9565b905082815260208101848484011115610f4357610f42610e54565b5b610f4e848285610f05565b509392505050565b600082601f830112610f6b57610f6a610e4f565b5b8135610f7b848260208601610f14565b91505092915050565b600080600060608486031215610f9d57610f9c610b6b565b5b600084013567ffffffffffffffff811115610fbb57610fba610b70565b5b610fc786828701610f56565b9350506020610fd886828701610b96565b9250506040610fe986828701610cdc565b9150509250925092565b60006020820190506110086000830184610d54565b92915050565b7f526571756573742063616e277420626520636f6d706c65746564210000000000600082015250565b6000611044601b83610be3565b915061104f8261100e565b602082019050919050565b6000602082019050818103600083015261107381611037565b9050919050565b7f4e487b7100000000000000000000000000000000000000000000000000000000600052601260045260246000fd5b7f4e487b7100000000000000000000000000000000000000000000000000000000600052601160045260246000fd5b60006110e382610b75565b91506110ee83610b75565b9250826110fe576110fd61107a565b5b828204905092915050565b7f526571756573742073686f756c6420626520617070726f766564206279206d6f60008201527f7265207468616e20353025206f6620636f6e7472696275746f72732100000000602082015250565b6000611165603c83610be3565b915061117082611109565b604082019050919050565b6000602082019050818103600083015261119481611158565b9050919050565b7f436f6e74726163742062616c616e6365206e6565647320746f2062652068696760008201527f686572207468616e2074686520726571756972656420616d6f756e7421000000602082015250565b60006111f7603d83610be3565b91506112028261119b565b604082019050919050565b60006020820190508181036000830152611226816111ea565b9050919050565b7f4e487b7100000000000000000000000000000000000000000000000000000000600052602260045260246000fd5b6000600282049050600182168061127457607f821691505b6020821081036112875761128661122d565b5b50919050565b600061129882610b75565b91507fffffffffffffffffffffffffffffffffffffffffffffffffffffffffffffffff82036112ca576112c96110a9565b5b600182019050919050565b7f4d75737420636f6e74726962757465206d6f7265207468616e20746865206d6960008201527f6e696d756d20616d6f756e742100000000000000000000000000000000000000602082015250565b6000611331602d83610be3565b915061133c826112d5565b604082019050919050565b6000602082019050818103600083015261136081611324565b9050919050565b7f4d757374206265206120636f6e7472696275746f7220746f20617070726f766560008201527f2072657175657374732100000000000000000000000000000000000000000000602082015250565b60006113c3602a83610be3565b91506113ce82611367565b604082019050919050565b600060208201905081810360008301526113f2816113b6565b9050919050565b7f4d7573742068617665206e6f7420617070726f7665642074686520726571756560008201527f737420616c726561647921000000000000000000000000000000000000000000602082015250565b6000611455602b83610be3565b9150611460826113f9565b604082019050919050565b6000602082019050818103600083015261148481611448565b905091905056fea2646970667358221220b65f4b7b0eb9cd22606d39fc5db7f2f03c28284a4fd01d27aa06ddd187f9cf9b64736f6c634300080d0033","opcodes":"PUSH1 0x80 PUSH1 0x40 MSTORE CALLVALUE DUP1 ISZERO PUSH3 0x11 JUMPI PUSH1 0x0 DUP1 REVERT JUMPDEST POP PUSH1 0x40 MLOAD PUSH3 0x193D CODESIZE SUB DUP1 PUSH3 0x193D DUP4 CODECOPY DUP2 DUP2 ADD PUSH1 0x40 MSTORE DUP2 ADD SWAP1 PUSH3 0x37 SWAP2 SWAP1 PUSH3 0x38D JUMP JUMPDEST DUP2 PUSH1 0x0 DUP1 PUSH2 0x100 EXP DUP2 SLOAD DUP2 PUSH20 0xFFFFFFFFFFFFFFFFFFFFFFFFFFFFFFFFFFFFFFFF MUL NOT AND SWAP1 DUP4 PUSH20 0xFFFFFFFFFFFFFFFFFFFFFFFFFFFFFFFFFFFFFFFF AND MUL OR SWAP1 SSTORE POP DUP3 PUSH1 0x2 DUP2 SWAP1 SSTORE POP DUP1 PUSH1 0x1 SWAP1 DUP1 MLOAD SWAP1 PUSH1 0x20 ADD SWAP1 PUSH3 0x96 SWAP3 SWAP2 SWAP1 PUSH3 0xA0 JUMP JUMPDEST POP POP POP POP PUSH3 0x46C JUMP JUMPDEST DUP3 DUP1 SLOAD PUSH3 0xAE SWAP1 PUSH3 0x437 JUMP JUMPDEST SWAP1 PUSH1 0x0 MSTORE PUSH1 0x20 PUSH1 0x0 KECCAK256 SWAP1 PUSH1 0x1F ADD PUSH1 0x20 SWAP1 DIV DUP2 ADD SWAP3 DUP3 PUSH3 0xD2 JUMPI PUSH1 0x0 DUP6 SSTORE PUSH3 0x11E JUMP JUMPDEST DUP3 PUSH1 0x1F LT PUSH3 0xED JUMPI DUP1 MLOAD PUSH1 0xFF NOT AND DUP4 DUP1 ADD OR DUP6 SSTORE PUSH3 0x11E JUMP JUMPDEST DUP3 DUP1 ADD PUSH1 0x1 ADD DUP6 SSTORE DUP3 ISZERO PUSH3 0x11E JUMPI SWAP2 DUP3 ADD JUMPDEST DUP3 DUP2 GT ISZERO PUSH3 0x11D JUMPI DUP3 MLOAD DUP3 SSTORE SWAP2 PUSH1 0x20 ADD SWAP2 SWAP1 PUSH1 0x1 ADD SWAP1 PUSH3 0x100 JUMP JUMPDEST JUMPDEST POP SWAP1 POP PUSH3 0x12D SWAP2 SWAP1 PUSH3 0x131 JUMP JUMPDEST POP SWAP1 JUMP JUMPDEST JUMPDEST DUP1 DUP3 GT ISZERO PUSH3 0x14C JUMPI PUSH1 0x0 DUP2 PUSH1 0x0 SWAP1 SSTORE POP PUSH1 0x1 ADD PUSH3 0x132 JUMP JUMPDEST POP SWAP1 JUMP JUMPDEST PUSH1 0x0 PUSH1 0x40 MLOAD SWAP1 POP SWAP1 JUMP JUMPDEST PUSH1 0x0 DUP1 REVERT JUMPDEST PUSH1 0x0 DUP1 REVERT JUMPDEST PUSH1 0x0 DUP2 SWAP1 POP SWAP2 SWAP1 POP JUMP JUMPDEST PUSH3 0x179 DUP2 PUSH3 0x164 JUMP JUMPDEST DUP2 EQ PUSH3 0x185 JUMPI PUSH1 0x0 DUP1 REVERT JUMPDEST POP JUMP JUMPDEST PUSH1 0x0 DUP2 MLOAD SWAP1 POP PUSH3 0x199 DUP2 PUSH3 0x16E JUMP JUMPDEST SWAP3 SWAP2 POP POP JUMP JUMPDEST PUSH1 0x0 PUSH20 0xFFFFFFFFFFFFFFFFFFFFFFFFFFFFFFFFFFFFFFFF DUP3 AND SWAP1 POP SWAP2 SWAP1 POP JUMP JUMPDEST PUSH1 0x0 PUSH3 0x1CC DUP3 PUSH3 0x19F JUMP JUMPDEST SWAP1 POP SWAP2 SWAP1 POP JUMP JUMPDEST PUSH3 0x1DE DUP2 PUSH3 0x1BF JUMP JUMPDEST DUP2 EQ PUSH3 0x1EA JUMPI PUSH1 0x0 DUP1 REVERT JUMPDEST POP JUMP JUMPDEST PUSH1 0x0 DUP2 MLOAD SWAP1 POP PUSH3 0x1FE DUP2 PUSH3 0x1D3 JUMP JUMPDEST SWAP3 SWAP2 POP POP JUMP JUMPDEST PUSH1 0x0 DUP1 REVERT JUMPDEST PUSH1 0x0 DUP1 REVERT JUMPDEST PUSH1 0x0 PUSH1 0x1F NOT PUSH1 0x1F DUP4 ADD AND SWAP1 POP SWAP2 SWAP1 POP JUMP JUMPDEST PUSH32 0x4E487B7100000000000000000000000000000000000000000000000000000000 PUSH1 0x0 MSTORE PUSH1 0x41 PUSH1 0x4 MSTORE PUSH1 0x24 PUSH1 0x0 REVERT JUMPDEST PUSH3 0x259 DUP3 PUSH3 0x20E JUMP JUMPDEST DUP2 ADD DUP2 DUP2 LT PUSH8 0xFFFFFFFFFFFFFFFF DUP3 GT OR ISZERO PUSH3 0x27B JUMPI PUSH3 0x27A PUSH3 0x21F JUMP JUMPDEST JUMPDEST DUP1 PUSH1 0x40 MSTORE POP POP POP JUMP JUMPDEST PUSH1 0x0 PUSH3 0x290 PUSH3 0x150 JUMP JUMPDEST SWAP1 POP PUSH3 0x29E DUP3 DUP3 PUSH3 0x24E JUMP JUMPDEST SWAP2 SWAP1 POP JUMP JUMPDEST PUSH1 0x0 PUSH8 0xFFFFFFFFFFFFFFFF DUP3 GT ISZERO PUSH3 0x2C1 JUMPI PUSH3 0x2C0 PUSH3 0x21F JUMP JUMPDEST JUMPDEST PUSH3 0x2CC DUP3 PUSH3 0x20E JUMP JUMPDEST SWAP1 POP PUSH1 0x20 DUP2 ADD SWAP1 POP SWAP2 SWAP1 POP JUMP JUMPDEST PUSH1 0x0 JUMPDEST DUP4 DUP2 LT ISZERO PUSH3 0x2F9 JUMPI DUP1 DUP3 ADD MLOAD DUP2 DUP5 ADD MSTORE PUSH1 0x20 DUP2 ADD SWAP1 POP PUSH3 0x2DC JUMP JUMPDEST DUP4 DUP2 GT ISZERO PUSH3 0x309 JUMPI PUSH1 0x0 DUP5 DUP5 ADD MSTORE JUMPDEST POP POP POP POP JUMP JUMPDEST PUSH1 0x0 PUSH3 0x326 PUSH3 0x320 DUP5 PUSH3 0x2A3 JUMP JUMPDEST PUSH3 0x284 JUMP JUMPDEST SWAP1 POP DUP3 DUP2 MSTORE PUSH1 0x20 DUP2 ADD DUP5 DUP5 DUP5 ADD GT ISZERO PUSH3 0x345 JUMPI PUSH3 0x344 PUSH3 0x209 JUMP JUMPDEST JUMPDEST PUSH3 0x352 DUP5 DUP3 DUP6 PUSH3 0x2D9 JUMP JUMPDEST POP SWAP4 SWAP3 POP POP POP JUMP JUMPDEST PUSH1 0x0 DUP3 PUSH1 0x1F DUP4 ADD SLT PUSH3 0x372 JUMPI PUSH3 0x371 PUSH3 0x204 JUMP JUMPDEST JUMPDEST DUP2 MLOAD PUSH3 0x384 DUP5 DUP3 PUSH1 0x20 DUP7 ADD PUSH3 0x30F JUMP JUMPDEST SWAP2 POP POP SWAP3 SWAP2 POP POP JUMP JUMPDEST PUSH1 0x0 DUP1 PUSH1 0x0 PUSH1 0x60 DUP5 DUP7 SUB SLT ISZERO PUSH3 0x3A9 JUMPI PUSH3 0x3A8 PUSH3 0x15A JUMP JUMPDEST JUMPDEST PUSH1 0x0 PUSH3 0x3B9 DUP7 DUP3 DUP8 ADD PUSH3 0x188 JUMP JUMPDEST SWAP4 POP POP PUSH1 0x20 PUSH3 0x3CC DUP7 DUP3 DUP8 ADD PUSH3 0x1ED JUMP JUMPDEST SWAP3 POP POP PUSH1 0x40 DUP5 ADD MLOAD PUSH8 0xFFFFFFFFFFFFFFFF DUP2 GT ISZERO PUSH3 0x3F0 JUMPI PUSH3 0x3EF PUSH3 0x15F JUMP JUMPDEST JUMPDEST PUSH3 0x3FE DUP7 DUP3 DUP8 ADD PUSH3 0x35A JUMP JUMPDEST SWAP2 POP POP SWAP3 POP SWAP3 POP SWAP3 JUMP JUMPDEST PUSH32 0x4E487B7100000000000000000000000000000000000000000000000000000000 PUSH1 0x0 MSTORE PUSH1 0x22 PUSH1 0x4 MSTORE PUSH1 0x24 PUSH1 0x0 REVERT JUMPDEST PUSH1 0x0 PUSH1 0x2 DUP3 DIV SWAP1 POP PUSH1 0x1 DUP3 AND DUP1 PUSH3 0x450 JUMPI PUSH1 0x7F DUP3 AND SWAP2 POP JUMPDEST PUSH1 0x20 DUP3 LT DUP2 SUB PUSH3 0x466 JUMPI PUSH3 0x465 PUSH3 0x408 JUMP JUMPDEST JUMPDEST POP SWAP2 SWAP1 POP JUMP JUMPDEST PUSH2 0x14C1 DUP1 PUSH3 0x47C PUSH1 0x0 CODECOPY PUSH1 0x0 RETURN INVALID PUSH1 0x80 PUSH1 0x40 MSTORE PUSH1 0x4 CALLDATASIZE LT PUSH2 0xA7 JUMPI PUSH1 0x0 CALLDATALOAD PUSH1 0xE0 SHR DUP1 PUSH4 0x8A9CFD55 GT PUSH2 0x64 JUMPI DUP1 PUSH4 0x8A9CFD55 EQ PUSH2 0x1D9 JUMPI DUP1 PUSH4 0x937E09B1 EQ PUSH2 0x202 JUMPI DUP1 PUSH4 0x9FB42B1F EQ PUSH2 0x22D JUMPI DUP1 PUSH4 0xD7BB99BA EQ PUSH2 0x258 JUMPI DUP1 PUSH4 0xD7D1BBDB EQ PUSH2 0x262 JUMPI DUP1 PUSH4 0xECFD8928 EQ PUSH2 0x28B JUMPI PUSH2 0xA7 JUMP JUMPDEST DUP1 PUSH4 0x3441006 EQ PUSH2 0xAC JUMPI DUP1 PUSH4 0x110842CB EQ PUSH2 0xD5 JUMPI DUP1 PUSH4 0x1F6D4942 EQ PUSH2 0x100 JUMPI DUP1 PUSH4 0x4051DDAC EQ PUSH2 0x13D JUMPI DUP1 PUSH4 0x481C6A75 EQ PUSH2 0x16D JUMPI DUP1 PUSH4 0x81D12C58 EQ PUSH2 0x198 JUMPI JUMPDEST PUSH1 0x0 DUP1 REVERT JUMPDEST CALLVALUE DUP1 ISZERO PUSH2 0xB8 JUMPI PUSH1 0x0 DUP1 REVERT JUMPDEST POP PUSH2 0xD3 PUSH1 0x4 DUP1 CALLDATASIZE SUB DUP2 ADD SWAP1 PUSH2 0xCE SWAP2 SWAP1 PUSH2 0xBAB JUMP JUMPDEST PUSH2 0x2B6 JUMP JUMPDEST STOP JUMPDEST CALLVALUE DUP1 ISZERO PUSH2 0xE1 JUMPI PUSH1 0x0 DUP1 REVERT JUMPDEST POP PUSH2 0xEA PUSH2 0x4A1 JUMP JUMPDEST PUSH1 0x40 MLOAD PUSH2 0xF7 SWAP2 SWAP1 PUSH2 0xC71 JUMP JUMPDEST PUSH1 0x40 MLOAD DUP1 SWAP2 SUB SWAP1 RETURN JUMPDEST CALLVALUE DUP1 ISZERO PUSH2 0x10C JUMPI PUSH1 0x0 DUP1 REVERT JUMPDEST POP PUSH2 0x127 PUSH1 0x4 DUP1 CALLDATASIZE SUB DUP2 ADD SWAP1 PUSH2 0x122 SWAP2 SWAP1 PUSH2 0xCF1 JUMP JUMPDEST PUSH2 0x52F JUMP JUMPDEST PUSH1 0x40 MLOAD PUSH2 0x134 SWAP2 SWAP1 PUSH2 0xD39 JUMP JUMPDEST PUSH1 0x40 MLOAD DUP1 SWAP2 SUB SWAP1 RETURN JUMPDEST CALLVALUE DUP1 ISZERO PUSH2 0x149 JUMPI PUSH1 0x0 DUP1 REVERT JUMPDEST POP PUSH2 0x152 PUSH2 0x54F JUMP JUMPDEST PUSH1 0x40 MLOAD PUSH2 0x164 SWAP7 SWAP6 SWAP5 SWAP4 SWAP3 SWAP2 SWAP1 PUSH2 0xD72 JUMP JUMPDEST PUSH1 0x40 MLOAD DUP1 SWAP2 SUB SWAP1 RETURN JUMPDEST CALLVALUE DUP1 ISZERO PUSH2 0x179 JUMPI PUSH1 0x0 DUP1 REVERT JUMPDEST POP PUSH2 0x182 PUSH2 0x626 JUMP JUMPDEST PUSH1 0x40 MLOAD PUSH2 0x18F SWAP2 SWAP1 PUSH2 0xDDA JUMP JUMPDEST PUSH1 0x40 MLOAD DUP1 SWAP2 SUB SWAP1 RETURN JUMPDEST CALLVALUE DUP1 ISZERO PUSH2 0x1A4 JUMPI PUSH1 0x0 DUP1 REVERT JUMPDEST POP PUSH2 0x1BF PUSH1 0x4 DUP1 CALLDATASIZE SUB DUP2 ADD SWAP1 PUSH2 0x1BA SWAP2 SWAP1 PUSH2 0xBAB JUMP JUMPDEST PUSH2 0x64A JUMP JUMPDEST PUSH1 0x40 MLOAD PUSH2 0x1D0 SWAP6 SWAP5 SWAP4 SWAP3 SWAP2 SWAP1 PUSH2 0xDF5 JUMP JUMPDEST PUSH1 0x40 MLOAD DUP1 SWAP2 SUB SWAP1 RETURN JUMPDEST CALLVALUE DUP1 ISZERO PUSH2 0x1E5 JUMPI PUSH1 0x0 DUP1 REVERT JUMPDEST POP PUSH2 0x200 PUSH1 0x4 DUP1 CALLDATASIZE SUB DUP2 ADD SWAP1 PUSH2 0x1FB SWAP2 SWAP1 PUSH2 0xF84 JUMP JUMPDEST PUSH2 0x735 JUMP JUMPDEST STOP JUMPDEST CALLVALUE DUP1 ISZERO PUSH2 0x20E JUMPI PUSH1 0x0 DUP1 REVERT JUMPDEST POP PUSH2 0x217 PUSH2 0x84C JUMP JUMPDEST PUSH1 0x40 MLOAD PUSH2 0x224 SWAP2 SWAP1 PUSH2 0xFF3 JUMP JUMPDEST PUSH1 0x40 MLOAD DUP1 SWAP2 SUB SWAP1 RETURN JUMPDEST CALLVALUE DUP1 ISZERO PUSH2 0x239 JUMPI PUSH1 0x0 DUP1 REVERT JUMPDEST POP PUSH2 0x242 PUSH2 0x852 JUMP JUMPDEST PUSH1 0x40 MLOAD PUSH2 0x24F SWAP2 SWAP1 PUSH2 0xFF3 JUMP JUMPDEST PUSH1 0x40 MLOAD DUP1 SWAP2 SUB SWAP1 RETURN JUMPDEST PUSH2 0x260 PUSH2 0x858 JUMP JUMPDEST STOP JUMPDEST CALLVALUE DUP1 ISZERO PUSH2 0x26E JUMPI PUSH1 0x0 DUP1 REVERT JUMPDEST POP PUSH2 0x289 PUSH1 0x4 DUP1 CALLDATASIZE SUB DUP2 ADD SWAP1 PUSH2 0x284 SWAP2 SWAP1 PUSH2 0xBAB JUMP JUMPDEST PUSH2 0x90E JUMP JUMPDEST STOP JUMPDEST CALLVALUE DUP1 ISZERO PUSH2 0x297 JUMPI PUSH1 0x0 DUP1 REVERT JUMPDEST POP PUSH2 0x2A0 PUSH2 0xAB8 JUMP JUMPDEST PUSH1 0x40 MLOAD PUSH2 0x2AD SWAP2 SWAP1 PUSH2 0xFF3 JUMP JUMPDEST PUSH1 0x40 MLOAD DUP1 SWAP2 SUB SWAP1 RETURN JUMPDEST PUSH1 0x0 DUP1 SLOAD SWAP1 PUSH2 0x100 EXP SWAP1 DIV PUSH20 0xFFFFFFFFFFFFFFFFFFFFFFFFFFFFFFFFFFFFFFFF AND PUSH20 0xFFFFFFFFFFFFFFFFFFFFFFFFFFFFFFFFFFFFFFFF AND CALLER PUSH20 0xFFFFFFFFFFFFFFFFFFFFFFFFFFFFFFFFFFFFFFFF AND EQ PUSH2 0x30E JUMPI PUSH1 0x0 DUP1 REVERT JUMPDEST PUSH1 0x0 PUSH1 0x6 PUSH1 0x0 DUP4 DUP2 MSTORE PUSH1 0x20 ADD SWAP1 DUP2 MSTORE PUSH1 0x20 ADD PUSH1 0x0 KECCAK256 SWAP1 POP DUP1 PUSH1 0x2 ADD PUSH1 0x14 SWAP1 SLOAD SWAP1 PUSH2 0x100 EXP SWAP1 DIV PUSH1 0xFF AND ISZERO PUSH2 0x377 JUMPI PUSH1 0x40 MLOAD PUSH32 0x8C379A000000000000000000000000000000000000000000000000000000000 DUP2 MSTORE PUSH1 0x4 ADD PUSH2 0x36E SWAP1 PUSH2 0x105A JUMP JUMPDEST PUSH1 0x40 MLOAD DUP1 SWAP2 SUB SWAP1 REVERT JUMPDEST PUSH1 0x2 PUSH1 0x4 SLOAD PUSH2 0x386 SWAP2 SWAP1 PUSH2 0x10D8 JUMP JUMPDEST DUP2 PUSH1 0x3 ADD SLOAD GT PUSH2 0x3CB JUMPI PUSH1 0x40 MLOAD PUSH32 0x8C379A000000000000000000000000000000000000000000000000000000000 DUP2 MSTORE PUSH1 0x4 ADD PUSH2 0x3C2 SWAP1 PUSH2 0x117B JUMP JUMPDEST PUSH1 0x40 MLOAD DUP1 SWAP2 SUB SWAP1 REVERT JUMPDEST SELFBALANCE DUP2 PUSH1 0x1 ADD SLOAD LT PUSH2 0x411 JUMPI PUSH1 0x40 MLOAD PUSH32 0x8C379A000000000000000000000000000000000000000000000000000000000 DUP2 MSTORE PUSH1 0x4 ADD PUSH2 0x408 SWAP1 PUSH2 0x120D JUMP JUMPDEST PUSH1 0x40 MLOAD DUP1 SWAP2 SUB SWAP1 REVERT JUMPDEST DUP1 PUSH1 0x2 ADD PUSH1 0x0 SWAP1 SLOAD SWAP1 PUSH2 0x100 EXP SWAP1 DIV PUSH20 0xFFFFFFFFFFFFFFFFFFFFFFFFFFFFFFFFFFFFFFFF AND PUSH20 0xFFFFFFFFFFFFFFFFFFFFFFFFFFFFFFFFFFFFFFFF AND PUSH2 0x8FC DUP3 PUSH1 0x1 ADD SLOAD SWAP1 DUP2 ISZERO MUL SWAP1 PUSH1 0x40 MLOAD PUSH1 0x0 PUSH1 0x40 MLOAD DUP1 DUP4 SUB DUP2 DUP6 DUP9 DUP9 CALL SWAP4 POP POP POP POP ISZERO DUP1 ISZERO PUSH2 0x47F JUMPI RETURNDATASIZE PUSH1 0x0 DUP1 RETURNDATACOPY RETURNDATASIZE PUSH1 0x0 REVERT JUMPDEST POP PUSH1 0x1 DUP2 PUSH1 0x2 ADD PUSH1 0x14 PUSH2 0x100 EXP DUP2 SLOAD DUP2 PUSH1 0xFF MUL NOT AND SWAP1 DUP4 ISZERO ISZERO MUL OR SWAP1 SSTORE POP POP POP JUMP JUMPDEST PUSH1 0x1 DUP1 SLOAD PUSH2 0x4AE SWAP1 PUSH2 0x125C JUMP JUMPDEST DUP1 PUSH1 0x1F ADD PUSH1 0x20 DUP1 SWAP2 DIV MUL PUSH1 0x20 ADD PUSH1 0x40 MLOAD SWAP1 DUP2 ADD PUSH1 0x40 MSTORE DUP1 SWAP3 SWAP2 SWAP1 DUP2 DUP2 MSTORE PUSH1 0x20 ADD DUP3 DUP1 SLOAD PUSH2 0x4DA SWAP1 PUSH2 0x125C JUMP JUMPDEST DUP1 ISZERO PUSH2 0x527 JUMPI DUP1 PUSH1 0x1F LT PUSH2 0x4FC JUMPI PUSH2 0x100 DUP1 DUP4 SLOAD DIV MUL DUP4 MSTORE SWAP2 PUSH1 0x20 ADD SWAP2 PUSH2 0x527 JUMP JUMPDEST DUP3 ADD SWAP2 SWAP1 PUSH1 0x0 MSTORE PUSH1 0x20 PUSH1 0x0 KECCAK256 SWAP1 JUMPDEST DUP2 SLOAD DUP2 MSTORE SWAP1 PUSH1 0x1 ADD SWAP1 PUSH1 0x20 ADD DUP1 DUP4 GT PUSH2 0x50A JUMPI DUP3 SWAP1 SUB PUSH1 0x1F AND DUP3 ADD SWAP2 JUMPDEST POP POP POP POP POP DUP2 JUMP JUMPDEST PUSH1 0x3 PUSH1 0x20 MSTORE DUP1 PUSH1 0x0 MSTORE PUSH1 0x40 PUSH1 0x0 KECCAK256 PUSH1 0x0 SWAP2 POP SLOAD SWAP1 PUSH2 0x100 EXP SWAP1 DIV PUSH1 0xFF AND DUP2 JUMP JUMPDEST PUSH1 0x0 DUP1 PUSH1 0x0 DUP1 PUSH1 0x0 PUSH1 0x60 PUSH1 0x2 SLOAD SELFBALANCE PUSH1 0x5 SLOAD PUSH1 0x4 SLOAD PUSH1 0x0 DUP1 SLOAD SWAP1 PUSH2 0x100 EXP SWAP1 DIV PUSH20 0xFFFFFFFFFFFFFFFFFFFFFFFFFFFFFFFFFFFFFFFF AND PUSH1 0x1 DUP1 DUP1 SLOAD PUSH2 0x592 SWAP1 PUSH2 0x125C JUMP JUMPDEST DUP1 PUSH1 0x1F ADD PUSH1 0x20 DUP1 SWAP2 DIV MUL PUSH1 0x20 ADD PUSH1 0x40 MLOAD SWAP1 DUP2 ADD PUSH1 0x40 MSTORE DUP1 SWAP3 SWAP2 SWAP1 DUP2 DUP2 MSTORE PUSH1 0x20 ADD DUP3 DUP1 SLOAD PUSH2 0x5BE SWAP1 PUSH2 0x125C JUMP JUMPDEST DUP1 ISZERO PUSH2 0x60B JUMPI DUP1 PUSH1 0x1F LT PUSH2 0x5E0 JUMPI PUSH2 0x100 DUP1 DUP4 SLOAD DIV MUL DUP4 MSTORE SWAP2 PUSH1 0x20 ADD SWAP2 PUSH2 0x60B JUMP JUMPDEST DUP3 ADD SWAP2 SWAP1 PUSH1 0x0 MSTORE PUSH1 0x20 PUSH1 0x0 KECCAK256 SWAP1 JUMPDEST DUP2 SLOAD DUP2 MSTORE SWAP1 PUSH1 0x1 ADD SWAP1 PUSH1 0x20 ADD DUP1 DUP4 GT PUSH2 0x5EE JUMPI DUP3 SWAP1 SUB PUSH1 0x1F AND DUP3 ADD SWAP2 JUMPDEST POP POP POP POP POP SWAP1 POP SWAP6 POP SWAP6 POP SWAP6 POP SWAP6 POP SWAP6 POP SWAP6 POP SWAP1 SWAP2 SWAP3 SWAP4 SWAP5 SWAP6 JUMP JUMPDEST PUSH1 0x0 DUP1 SLOAD SWAP1 PUSH2 0x100 EXP SWAP1 DIV PUSH20 0xFFFFFFFFFFFFFFFFFFFFFFFFFFFFFFFFFFFFFFFF AND DUP2 JUMP JUMPDEST PUSH1 0x6 PUSH1 0x20 MSTORE DUP1 PUSH1 0x0 MSTORE PUSH1 0x40 PUSH1 0x0 KECCAK256 PUSH1 0x0 SWAP2 POP SWAP1 POP DUP1 PUSH1 0x0 ADD DUP1 SLOAD PUSH2 0x66D SWAP1 PUSH2 0x125C JUMP JUMPDEST DUP1 PUSH1 0x1F ADD PUSH1 0x20 DUP1 SWAP2 DIV MUL PUSH1 0x20 ADD PUSH1 0x40 MLOAD SWAP1 DUP2 ADD PUSH1 0x40 MSTORE DUP1 SWAP3 SWAP2 SWAP1 DUP2 DUP2 MSTORE PUSH1 0x20 ADD DUP3 DUP1 SLOAD PUSH2 0x699 SWAP1 PUSH2 0x125C JUMP JUMPDEST DUP1 ISZERO PUSH2 0x6E6 JUMPI DUP1 PUSH1 0x1F LT PUSH2 0x6BB JUMPI PUSH2 0x100 DUP1 DUP4 SLOAD DIV MUL DUP4 MSTORE SWAP2 PUSH1 0x20 ADD SWAP2 PUSH2 0x6E6 JUMP JUMPDEST DUP3 ADD SWAP2 SWAP1 PUSH1 0x0 MSTORE PUSH1 0x20 PUSH1 0x0 KECCAK256 SWAP1 JUMPDEST DUP2 SLOAD DUP2 MSTORE SWAP1 PUSH1 0x1 ADD SWAP1 PUSH1 0x20 ADD DUP1 DUP4 GT PUSH2 0x6C9 JUMPI DUP3 SWAP1 SUB PUSH1 0x1F AND DUP3 ADD SWAP2 JUMPDEST POP POP POP POP POP SWAP1 DUP1 PUSH1 0x1 ADD SLOAD SWAP1 DUP1 PUSH1 0x2 ADD PUSH1 0x0 SWAP1 SLOAD SWAP1 PUSH2 0x100 EXP SWAP1 DIV PUSH20 0xFFFFFFFFFFFFFFFFFFFFFFFFFFFFFFFFFFFFFFFF AND SWAP1 DUP1 PUSH1 0x2 ADD PUSH1 0x14 SWAP1 SLOAD SWAP1 PUSH2 0x100 EXP SWAP1 DIV PUSH1 0xFF AND SWAP1 DUP1 PUSH1 0x3 ADD SLOAD SWAP1 POP DUP6 JUMP JUMPDEST PUSH1 0x0 DUP1 SLOAD SWAP1 PUSH2 0x100 EXP SWAP1 DIV PUSH20 0xFFFFFFFFFFFFFFFFFFFFFFFFFFFFFFFFFFFFFFFF AND PUSH20 0xFFFFFFFFFFFFFFFFFFFFFFFFFFFFFFFFFFFFFFFF AND CALLER PUSH20 0xFFFFFFFFFFFFFFFFFFFFFFFFFFFFFFFFFFFFFFFF AND EQ PUSH2 0x78D JUMPI PUSH1 0x0 DUP1 REVERT JUMPDEST PUSH1 0x0 PUSH1 0x6 PUSH1 0x0 PUSH1 0x5 PUSH1 0x0 DUP2 SLOAD DUP1 SWAP3 SWAP2 SWAP1 PUSH2 0x7A6 SWAP1 PUSH2 0x128D JUMP JUMPDEST SWAP2 SWAP1 POP SSTORE DUP2 MSTORE PUSH1 0x20 ADD SWAP1 DUP2 MSTORE PUSH1 0x20 ADD PUSH1 0x0 KECCAK256 SWAP1 POP DUP4 DUP2 PUSH1 0x0 ADD SWAP1 DUP1 MLOAD SWAP1 PUSH1 0x20 ADD SWAP1 PUSH2 0x7D2 SWAP3 SWAP2 SWAP1 PUSH2 0xABE JUMP JUMPDEST POP DUP3 DUP2 PUSH1 0x1 ADD DUP2 SWAP1 SSTORE POP DUP2 DUP2 PUSH1 0x2 ADD PUSH1 0x0 PUSH2 0x100 EXP DUP2 SLOAD DUP2 PUSH20 0xFFFFFFFFFFFFFFFFFFFFFFFFFFFFFFFFFFFFFFFF MUL NOT AND SWAP1 DUP4 PUSH20 0xFFFFFFFFFFFFFFFFFFFFFFFFFFFFFFFFFFFFFFFF AND MUL OR SWAP1 SSTORE POP PUSH1 0x0 DUP2 PUSH1 0x2 ADD PUSH1 0x14 PUSH2 0x100 EXP DUP2 SLOAD DUP2 PUSH1 0xFF MUL NOT AND SWAP1 DUP4 ISZERO ISZERO MUL OR SWAP1 SSTORE POP PUSH1 0x0 DUP2 PUSH1 0x3 ADD DUP2 SWAP1 SSTORE POP POP POP POP POP JUMP JUMPDEST PUSH1 0x2 SLOAD DUP2 JUMP JUMPDEST PUSH1 0x5 SLOAD DUP2 JUMP JUMPDEST PUSH1 0x2 SLOAD CALLVALUE GT PUSH2 0x89C JUMPI PUSH1 0x40 MLOAD PUSH32 0x8C379A000000000000000000000000000000000000000000000000000000000 DUP2 MSTORE PUSH1 0x4 ADD PUSH2 0x893 SWAP1 PUSH2 0x1347 JUMP JUMPDEST PUSH1 0x40 MLOAD DUP1 SWAP2 SUB SWAP1 REVERT JUMPDEST PUSH1 0x1 PUSH1 0x3 PUSH1 0x0 CALLER PUSH20 0xFFFFFFFFFFFFFFFFFFFFFFFFFFFFFFFFFFFFFFFF AND PUSH20 0xFFFFFFFFFFFFFFFFFFFFFFFFFFFFFFFFFFFFFFFF AND DUP2 MSTORE PUSH1 0x20 ADD SWAP1 DUP2 MSTORE PUSH1 0x20 ADD PUSH1 0x0 KECCAK256 PUSH1 0x0 PUSH2 0x100 EXP DUP2 SLOAD DUP2 PUSH1 0xFF MUL NOT AND SWAP1 DUP4 ISZERO ISZERO MUL OR SWAP1 SSTORE POP PUSH1 0x4 PUSH1 0x0 DUP2 SLOAD DUP1 SWAP3 SWAP2 SWAP1 PUSH2 0x907 SWAP1 PUSH2 0x128D JUMP JUMPDEST SWAP2 SWAP1 POP SSTORE POP JUMP JUMPDEST PUSH1 0x0 PUSH1 0x6 PUSH1 0x0 DUP4 DUP2 MSTORE PUSH1 0x20 ADD SWAP1 DUP2 MSTORE PUSH1 0x20 ADD PUSH1 0x0 KECCAK256 SWAP1 POP PUSH1 0x3 PUSH1 0x0 CALLER PUSH20 0xFFFFFFFFFFFFFFFFFFFFFFFFFFFFFFFFFFFFFFFF AND PUSH20 0xFFFFFFFFFFFFFFFFFFFFFFFFFFFFFFFFFFFFFFFF AND DUP2 MSTORE PUSH1 0x20 ADD SWAP1 DUP2 MSTORE PUSH1 0x20 ADD PUSH1 0x0 KECCAK256 PUSH1 0x0 SWAP1 SLOAD SWAP1 PUSH2 0x100 EXP SWAP1 DIV PUSH1 0xFF AND PUSH2 0x9B1 JUMPI PUSH1 0x40 MLOAD PUSH32 0x8C379A000000000000000000000000000000000000000000000000000000000 DUP2 MSTORE PUSH1 0x4 ADD PUSH2 0x9A8 SWAP1 PUSH2 0x13D9 JUMP JUMPDEST PUSH1 0x40 MLOAD DUP1 SWAP2 SUB SWAP1 REVERT JUMPDEST DUP1 PUSH1 0x4 ADD PUSH1 0x0 CALLER PUSH20 0xFFFFFFFFFFFFFFFFFFFFFFFFFFFFFFFFFFFFFFFF AND PUSH20 0xFFFFFFFFFFFFFFFFFFFFFFFFFFFFFFFFFFFFFFFF AND DUP2 MSTORE PUSH1 0x20 ADD SWAP1 DUP2 MSTORE PUSH1 0x20 ADD PUSH1 0x0 KECCAK256 PUSH1 0x0 SWAP1 SLOAD SWAP1 PUSH2 0x100 EXP SWAP1 DIV PUSH1 0xFF AND ISZERO PUSH2 0xA40 JUMPI PUSH1 0x40 MLOAD PUSH32 0x8C379A000000000000000000000000000000000000000000000000000000000 DUP2 MSTORE PUSH1 0x4 ADD PUSH2 0xA37 SWAP1 PUSH2 0x146B JUMP JUMPDEST PUSH1 0x40 MLOAD DUP1 SWAP2 SUB SWAP1 REVERT JUMPDEST PUSH1 0x1 DUP2 PUSH1 0x4 ADD PUSH1 0x0 CALLER PUSH20 0xFFFFFFFFFFFFFFFFFFFFFFFFFFFFFFFFFFFFFFFF AND PUSH20 0xFFFFFFFFFFFFFFFFFFFFFFFFFFFFFFFFFFFFFFFF AND DUP2 MSTORE PUSH1 0x20 ADD SWAP1 DUP2 MSTORE PUSH1 0x20 ADD PUSH1 0x0 KECCAK256 PUSH1 0x0 PUSH2 0x100 EXP DUP2 SLOAD DUP2 PUSH1 0xFF MUL NOT AND SWAP1 DUP4 ISZERO ISZERO MUL OR SWAP1 SSTORE POP DUP1 PUSH1 0x3 ADD PUSH1 0x0 DUP2 SLOAD DUP1 SWAP3 SWAP2 SWAP1 PUSH2 0xAAF SWAP1 PUSH2 0x128D JUMP JUMPDEST SWAP2 SWAP1 POP SSTORE POP POP POP JUMP JUMPDEST PUSH1 0x4 SLOAD DUP2 JUMP JUMPDEST DUP3 DUP1 SLOAD PUSH2 0xACA SWAP1 PUSH2 0x125C JUMP JUMPDEST SWAP1 PUSH1 0x0 MSTORE PUSH1 0x20 PUSH1 0x0 KECCAK256 SWAP1 PUSH1 0x1F ADD PUSH1 0x20 SWAP1 DIV DUP2 ADD SWAP3 DUP3 PUSH2 0xAEC JUMPI PUSH1 0x0 DUP6 SSTORE PUSH2 0xB33 JUMP JUMPDEST DUP3 PUSH1 0x1F LT PUSH2 0xB05 JUMPI DUP1 MLOAD PUSH1 0xFF NOT AND DUP4 DUP1 ADD OR DUP6 SSTORE PUSH2 0xB33 JUMP JUMPDEST DUP3 DUP1 ADD PUSH1 0x1 ADD DUP6 SSTORE DUP3 ISZERO PUSH2 0xB33 JUMPI SWAP2 DUP3 ADD JUMPDEST DUP3 DUP2 GT ISZERO PUSH2 0xB32 JUMPI DUP3 MLOAD DUP3 SSTORE SWAP2 PUSH1 0x20 ADD SWAP2 SWAP1 PUSH1 0x1 ADD SWAP1 PUSH2 0xB17 JUMP JUMPDEST JUMPDEST POP SWAP1 POP PUSH2 0xB40 SWAP2 SWAP1 PUSH2 0xB44 JUMP JUMPDEST POP SWAP1 JUMP JUMPDEST JUMPDEST DUP1 DUP3 GT ISZERO PUSH2 0xB5D JUMPI PUSH1 0x0 DUP2 PUSH1 0x0 SWAP1 SSTORE POP PUSH1 0x1 ADD PUSH2 0xB45 JUMP JUMPDEST POP SWAP1 JUMP JUMPDEST PUSH1 0x0 PUSH1 0x40 MLOAD SWAP1 POP SWAP1 JUMP JUMPDEST PUSH1 0x0 DUP1 REVERT JUMPDEST PUSH1 0x0 DUP1 REVERT JUMPDEST PUSH1 0x0 DUP2 SWAP1 POP SWAP2 SWAP1 POP JUMP JUMPDEST PUSH2 0xB88 DUP2 PUSH2 0xB75 JUMP JUMPDEST DUP2 EQ PUSH2 0xB93 JUMPI PUSH1 0x0 DUP1 REVERT JUMPDEST POP JUMP JUMPDEST PUSH1 0x0 DUP2 CALLDATALOAD SWAP1 POP PUSH2 0xBA5 DUP2 PUSH2 0xB7F JUMP JUMPDEST SWAP3 SWAP2 POP POP JUMP JUMPDEST PUSH1 0x0 PUSH1 0x20 DUP3 DUP5 SUB SLT ISZERO PUSH2 0xBC1 JUMPI PUSH2 0xBC0 PUSH2 0xB6B JUMP JUMPDEST JUMPDEST PUSH1 0x0 PUSH2 0xBCF DUP5 DUP3 DUP6 ADD PUSH2 0xB96 JUMP JUMPDEST SWAP2 POP POP SWAP3 SWAP2 POP POP JUMP JUMPDEST PUSH1 0x0 DUP2 MLOAD SWAP1 POP SWAP2 SWAP1 POP JUMP JUMPDEST PUSH1 0x0 DUP3 DUP3 MSTORE PUSH1 0x20 DUP3 ADD SWAP1 POP SWAP3 SWAP2 POP POP JUMP JUMPDEST PUSH1 0x0 JUMPDEST DUP4 DUP2 LT ISZERO PUSH2 0xC12 JUMPI DUP1 DUP3 ADD MLOAD DUP2 DUP5 ADD MSTORE PUSH1 0x20 DUP2 ADD SWAP1 POP PUSH2 0xBF7 JUMP JUMPDEST DUP4 DUP2 GT ISZERO PUSH2 0xC21 JUMPI PUSH1 0x0 DUP5 DUP5 ADD MSTORE JUMPDEST POP POP POP POP JUMP JUMPDEST PUSH1 0x0 PUSH1 0x1F NOT PUSH1 0x1F DUP4 ADD AND SWAP1 POP SWAP2 SWAP1 POP JUMP JUMPDEST PUSH1 0x0 PUSH2 0xC43 DUP3 PUSH2 0xBD8 JUMP JUMPDEST PUSH2 0xC4D DUP2 DUP6 PUSH2 0xBE3 JUMP JUMPDEST SWAP4 POP PUSH2 0xC5D DUP2 DUP6 PUSH1 0x20 DUP7 ADD PUSH2 0xBF4 JUMP JUMPDEST PUSH2 0xC66 DUP2 PUSH2 0xC27 JUMP JUMPDEST DUP5 ADD SWAP2 POP POP SWAP3 SWAP2 POP POP JUMP JUMPDEST PUSH1 0x0 PUSH1 0x20 DUP3 ADD SWAP1 POP DUP2 DUP2 SUB PUSH1 0x0 DUP4 ADD MSTORE PUSH2 0xC8B DUP2 DUP5 PUSH2 0xC38 JUMP JUMPDEST SWAP1 POP SWAP3 SWAP2 POP POP JUMP JUMPDEST PUSH1 0x0 PUSH20 0xFFFFFFFFFFFFFFFFFFFFFFFFFFFFFFFFFFFFFFFF DUP3 AND SWAP1 POP SWAP2 SWAP1 POP JUMP JUMPDEST PUSH1 0x0 PUSH2 0xCBE DUP3 PUSH2 0xC93 JUMP JUMPDEST SWAP1 POP SWAP2 SWAP1 POP JUMP JUMPDEST PUSH2 0xCCE DUP2 PUSH2 0xCB3 JUMP JUMPDEST DUP2 EQ PUSH2 0xCD9 JUMPI PUSH1 0x0 DUP1 REVERT JUMPDEST POP JUMP JUMPDEST PUSH1 0x0 DUP2 CALLDATALOAD SWAP1 POP PUSH2 0xCEB DUP2 PUSH2 0xCC5 JUMP JUMPDEST SWAP3 SWAP2 POP POP JUMP JUMPDEST PUSH1 0x0 PUSH1 0x20 DUP3 DUP5 SUB SLT ISZERO PUSH2 0xD07 JUMPI PUSH2 0xD06 PUSH2 0xB6B JUMP JUMPDEST JUMPDEST PUSH1 0x0 PUSH2 0xD15 DUP5 DUP3 DUP6 ADD PUSH2 0xCDC JUMP JUMPDEST SWAP2 POP POP SWAP3 SWAP2 POP POP JUMP JUMPDEST PUSH1 0x0 DUP2 ISZERO ISZERO SWAP1 POP SWAP2 SWAP1 POP JUMP JUMPDEST PUSH2 0xD33 DUP2 PUSH2 0xD1E JUMP JUMPDEST DUP3 MSTORE POP POP JUMP JUMPDEST PUSH1 0x0 PUSH1 0x20 DUP3 ADD SWAP1 POP PUSH2 0xD4E PUSH1 0x0 DUP4 ADD DUP5 PUSH2 0xD2A JUMP JUMPDEST SWAP3 SWAP2 POP POP JUMP JUMPDEST PUSH2 0xD5D DUP2 PUSH2 0xB75 JUMP JUMPDEST DUP3 MSTORE POP POP JUMP JUMPDEST PUSH2 0xD6C DUP2 PUSH2 0xCB3 JUMP JUMPDEST DUP3 MSTORE POP POP JUMP JUMPDEST PUSH1 0x0 PUSH1 0xC0 DUP3 ADD SWAP1 POP PUSH2 0xD87 PUSH1 0x0 DUP4 ADD DUP10 PUSH2 0xD54 JUMP JUMPDEST PUSH2 0xD94 PUSH1 0x20 DUP4 ADD DUP9 PUSH2 0xD54 JUMP JUMPDEST PUSH2 0xDA1 PUSH1 0x40 DUP4 ADD DUP8 PUSH2 0xD54 JUMP JUMPDEST PUSH2 0xDAE PUSH1 0x60 DUP4 ADD DUP7 PUSH2 0xD54 JUMP JUMPDEST PUSH2 0xDBB PUSH1 0x80 DUP4 ADD DUP6 PUSH2 0xD63 JUMP JUMPDEST DUP2 DUP2 SUB PUSH1 0xA0 DUP4 ADD MSTORE PUSH2 0xDCD DUP2 DUP5 PUSH2 0xC38 JUMP JUMPDEST SWAP1 POP SWAP8 SWAP7 POP POP POP POP POP POP POP JUMP JUMPDEST PUSH1 0x0 PUSH1 0x20 DUP3 ADD SWAP1 POP PUSH2 0xDEF PUSH1 0x0 DUP4 ADD DUP5 PUSH2 0xD63 JUMP JUMPDEST SWAP3 SWAP2 POP POP JUMP JUMPDEST PUSH1 0x0 PUSH1 0xA0 DUP3 ADD SWAP1 POP DUP2 DUP2 SUB PUSH1 0x0 DUP4 ADD MSTORE PUSH2 0xE0F DUP2 DUP9 PUSH2 0xC38 JUMP JUMPDEST SWAP1 POP PUSH2 0xE1E PUSH1 0x20 DUP4 ADD DUP8 PUSH2 0xD54 JUMP JUMPDEST PUSH2 0xE2B PUSH1 0x40 DUP4 ADD DUP7 PUSH2 0xD63 JUMP JUMPDEST PUSH2 0xE38 PUSH1 0x60 DUP4 ADD DUP6 PUSH2 0xD2A JUMP JUMPDEST PUSH2 0xE45 PUSH1 0x80 DUP4 ADD DUP5 PUSH2 0xD54 JUMP JUMPDEST SWAP7 SWAP6 POP POP POP POP POP POP JUMP JUMPDEST PUSH1 0x0 DUP1 REVERT JUMPDEST PUSH1 0x0 DUP1 REVERT JUMPDEST PUSH32 0x4E487B7100000000000000000000000000000000000000000000000000000000 PUSH1 0x0 MSTORE PUSH1 0x41 PUSH1 0x4 MSTORE PUSH1 0x24 PUSH1 0x0 REVERT JUMPDEST PUSH2 0xE91 DUP3 PUSH2 0xC27 JUMP JUMPDEST DUP2 ADD DUP2 DUP2 LT PUSH8 0xFFFFFFFFFFFFFFFF DUP3 GT OR ISZERO PUSH2 0xEB0 JUMPI PUSH2 0xEAF PUSH2 0xE59 JUMP JUMPDEST JUMPDEST DUP1 PUSH1 0x40 MSTORE POP POP POP JUMP JUMPDEST PUSH1 0x0 PUSH2 0xEC3 PUSH2 0xB61 JUMP JUMPDEST SWAP1 POP PUSH2 0xECF DUP3 DUP3 PUSH2 0xE88 JUMP JUMPDEST SWAP2 SWAP1 POP JUMP JUMPDEST PUSH1 0x0 PUSH8 0xFFFFFFFFFFFFFFFF DUP3 GT ISZERO PUSH2 0xEEF JUMPI PUSH2 0xEEE PUSH2 0xE59 JUMP JUMPDEST JUMPDEST PUSH2 0xEF8 DUP3 PUSH2 0xC27 JUMP JUMPDEST SWAP1 POP PUSH1 0x20 DUP2 ADD SWAP1 POP SWAP2 SWAP1 POP JUMP JUMPDEST DUP3 DUP2 DUP4 CALLDATACOPY PUSH1 0x0 DUP4 DUP4 ADD MSTORE POP POP POP JUMP JUMPDEST PUSH1 0x0 PUSH2 0xF27 PUSH2 0xF22 DUP5 PUSH2 0xED4 JUMP JUMPDEST PUSH2 0xEB9 JUMP JUMPDEST SWAP1 POP DUP3 DUP2 MSTORE PUSH1 0x20 DUP2 ADD DUP5 DUP5 DUP5 ADD GT ISZERO PUSH2 0xF43 JUMPI PUSH2 0xF42 PUSH2 0xE54 JUMP JUMPDEST JUMPDEST PUSH2 0xF4E DUP5 DUP3 DUP6 PUSH2 0xF05 JUMP JUMPDEST POP SWAP4 SWAP3 POP POP POP JUMP JUMPDEST PUSH1 0x0 DUP3 PUSH1 0x1F DUP4 ADD SLT PUSH2 0xF6B JUMPI PUSH2 0xF6A PUSH2 0xE4F JUMP JUMPDEST JUMPDEST DUP2 CALLDATALOAD PUSH2 0xF7B DUP5 DUP3 PUSH1 0x20 DUP7 ADD PUSH2 0xF14 JUMP JUMPDEST SWAP2 POP POP SWAP3 SWAP2 POP POP JUMP JUMPDEST PUSH1 0x0 DUP1 PUSH1 0x0 PUSH1 0x60 DUP5 DUP7 SUB SLT ISZERO PUSH2 0xF9D JUMPI PUSH2 0xF9C PUSH2 0xB6B JUMP JUMPDEST JUMPDEST PUSH1 0x0 DUP5 ADD CALLDATALOAD PUSH8 0xFFFFFFFFFFFFFFFF DUP2 GT ISZERO PUSH2 0xFBB JUMPI PUSH2 0xFBA PUSH2 0xB70 JUMP JUMPDEST JUMPDEST PUSH2 0xFC7 DUP7 DUP3 DUP8 ADD PUSH2 0xF56 JUMP JUMPDEST SWAP4 POP POP PUSH1 0x20 PUSH2 0xFD8 DUP7 DUP3 DUP8 ADD PUSH2 0xB96 JUMP JUMPDEST SWAP3 POP POP PUSH1 0x40 PUSH2 0xFE9 DUP7 DUP3 DUP8 ADD PUSH2 0xCDC JUMP JUMPDEST SWAP2 POP POP SWAP3 POP SWAP3 POP SWAP3 JUMP JUMPDEST PUSH1 0x0 PUSH1 0x20 DUP3 ADD SWAP1 POP PUSH2 0x1008 PUSH1 0x0 DUP4 ADD DUP5 PUSH2 0xD54 JUMP JUMPDEST SWAP3 SWAP2 POP POP JUMP JUMPDEST PUSH32 0x526571756573742063616E277420626520636F6D706C65746564210000000000 PUSH1 0x0 DUP3 ADD MSTORE POP JUMP JUMPDEST PUSH1 0x0 PUSH2 0x1044 PUSH1 0x1B DUP4 PUSH2 0xBE3 JUMP JUMPDEST SWAP2 POP PUSH2 0x104F DUP3 PUSH2 0x100E JUMP JUMPDEST PUSH1 0x20 DUP3 ADD SWAP1 POP SWAP2 SWAP1 POP JUMP JUMPDEST PUSH1 0x0 PUSH1 0x20 DUP3 ADD SWAP1 POP DUP2 DUP2 SUB PUSH1 0x0 DUP4 ADD MSTORE PUSH2 0x1073 DUP2 PUSH2 0x1037 JUMP JUMPDEST SWAP1 POP SWAP2 SWAP1 POP JUMP JUMPDEST PUSH32 0x4E487B7100000000000000000000000000000000000000000000000000000000 PUSH1 0x0 MSTORE PUSH1 0x12 PUSH1 0x4 MSTORE PUSH1 0x24 PUSH1 0x0 REVERT JUMPDEST PUSH32 0x4E487B7100000000000000000000000000000000000000000000000000000000 PUSH1 0x0 MSTORE PUSH1 0x11 PUSH1 0x4 MSTORE PUSH1 0x24 PUSH1 0x0 REVERT JUMPDEST PUSH1 0x0 PUSH2 0x10E3 DUP3 PUSH2 0xB75 JUMP JUMPDEST SWAP2 POP PUSH2 0x10EE DUP4 PUSH2 0xB75 JUMP JUMPDEST SWAP3 POP DUP3 PUSH2 0x10FE JUMPI PUSH2 0x10FD PUSH2 0x107A JUMP JUMPDEST JUMPDEST DUP3 DUP3 DIV SWAP1 POP SWAP3 SWAP2 POP POP JUMP JUMPDEST PUSH32 0x526571756573742073686F756C6420626520617070726F766564206279206D6F PUSH1 0x0 DUP3 ADD MSTORE PUSH32 0x7265207468616E20353025206F6620636F6E7472696275746F72732100000000 PUSH1 0x20 DUP3 ADD MSTORE POP JUMP JUMPDEST PUSH1 0x0 PUSH2 0x1165 PUSH1 0x3C DUP4 PUSH2 0xBE3 JUMP JUMPDEST SWAP2 POP PUSH2 0x1170 DUP3 PUSH2 0x1109 JUMP JUMPDEST PUSH1 0x40 DUP3 ADD SWAP1 POP SWAP2 SWAP1 POP JUMP JUMPDEST PUSH1 0x0 PUSH1 0x20 DUP3 ADD SWAP1 POP DUP2 DUP2 SUB PUSH1 0x0 DUP4 ADD MSTORE PUSH2 0x1194 DUP2 PUSH2 0x1158 JUMP JUMPDEST SWAP1 POP SWAP2 SWAP1 POP JUMP JUMPDEST PUSH32 0x436F6E74726163742062616C616E6365206E6565647320746F20626520686967 PUSH1 0x0 DUP3 ADD MSTORE PUSH32 0x686572207468616E2074686520726571756972656420616D6F756E7421000000 PUSH1 0x20 DUP3 ADD MSTORE POP JUMP JUMPDEST PUSH1 0x0 PUSH2 0x11F7 PUSH1 0x3D DUP4 PUSH2 0xBE3 JUMP JUMPDEST SWAP2 POP PUSH2 0x1202 DUP3 PUSH2 0x119B JUMP JUMPDEST PUSH1 0x40 DUP3 ADD SWAP1 POP SWAP2 SWAP1 POP JUMP JUMPDEST PUSH1 0x0 PUSH1 0x20 DUP3 ADD SWAP1 POP DUP2 DUP2 SUB PUSH1 0x0 DUP4 ADD MSTORE PUSH2 0x1226 DUP2 PUSH2 0x11EA JUMP JUMPDEST SWAP1 POP SWAP2 SWAP1 POP JUMP JUMPDEST PUSH32 0x4E487B7100000000000000000000000000000000000000000000000000000000 PUSH1 0x0 MSTORE PUSH1 0x22 PUSH1 0x4 MSTORE PUSH1 0x24 PUSH1 0x0 REVERT JUMPDEST PUSH1 0x0 PUSH1 0x2 DUP3 DIV SWAP1 POP PUSH1 0x1 DUP3 AND DUP1 PUSH2 0x1274 JUMPI PUSH1 0x7F DUP3 AND SWAP2 POP JUMPDEST PUSH1 0x20 DUP3 LT DUP2 SUB PUSH2 0x1287 JUMPI PUSH2 0x1286 PUSH2 0x122D JUMP JUMPDEST JUMPDEST POP SWAP2 SWAP1 POP JUMP JUMPDEST PUSH1 0x0 PUSH2 0x1298 DUP3 PUSH2 0xB75 JUMP JUMPDEST SWAP2 POP PUSH32 0xFFFFFFFFFFFFFFFFFFFFFFFFFFFFFFFFFFFFFFFFFFFFFFFFFFFFFFFFFFFFFFFF DUP3 SUB PUSH2 0x12CA JUMPI PUSH2 0x12C9 PUSH2 0x10A9 JUMP JUMPDEST JUMPDEST PUSH1 0x1 DUP3 ADD SWAP1 POP SWAP2 SWAP1 POP JUMP JUMPDEST PUSH32 0x4D75737420636F6E74726962757465206D6F7265207468616E20746865206D69 PUSH1 0x0 DUP3 ADD MSTORE PUSH32 0x6E696D756D20616D6F756E742100000000000000000000000000000000000000 PUSH1 0x20 DUP3 ADD MSTORE POP JUMP JUMPDEST PUSH1 0x0 PUSH2 0x1331 PUSH1 0x2D DUP4 PUSH2 0xBE3 JUMP JUMPDEST SWAP2 POP PUSH2 0x133C DUP3 PUSH2 0x12D5 JUMP JUMPDEST PUSH1 0x40 DUP3 ADD SWAP1 POP SWAP2 SWAP1 POP JUMP JUMPDEST PUSH1 0x0 PUSH1 0x20 DUP3 ADD SWAP1 POP DUP2 DUP2 SUB PUSH1 0x0 DUP4 ADD MSTORE PUSH2 0x1360 DUP2 PUSH2 0x1324 JUMP JUMPDEST SWAP1 POP SWAP2 SWAP1 POP JUMP JUMPDEST PUSH32 0x4D757374206265206120636F6E7472696275746F7220746F20617070726F7665 PUSH1 0x0 DUP3 ADD MSTORE PUSH32 0x2072657175657374732100000000000000000000000000000000000000000000 PUSH1 0x20 DUP3 ADD MSTORE POP JUMP JUMPDEST PUSH1 0x0 PUSH2 0x13C3 PUSH1 0x2A DUP4 PUSH2 0xBE3 JUMP JUMPDEST SWAP2 POP PUSH2 0x13CE DUP3 PUSH2 0x1367 JUMP JUMPDEST PUSH1 0x40 DUP3 ADD SWAP1 POP SWAP2 SWAP1 POP JUMP JUMPDEST PUSH1 0x0 PUSH1 0x20 DUP3 ADD SWAP1 POP DUP2 DUP2 SUB PUSH1 0x0 DUP4 ADD MSTORE PUSH2 0x13F2 DUP2 PUSH2 0x13B6 JUMP JUMPDEST SWAP1 POP SWAP2 SWAP1 POP JUMP JUMPDEST PUSH32 0x4D7573742068617665206E6F7420617070726F76656420746865207265717565 PUSH1 0x0 DUP3 ADD MSTORE PUSH32 0x737420616C726561647921000000000000000000000000000000000000000000 PUSH1 0x20 DUP3 ADD MSTORE POP JUMP JUMPDEST PUSH1 0x0 PUSH2 0x1455 PUSH1 0x2B DUP4 PUSH2 0xBE3 JUMP JUMPDEST SWAP2 POP PUSH2 0x1460 DUP3 PUSH2 0x13F9 JUMP JUMPDEST PUSH1 0x40 DUP3 ADD SWAP1 POP SWAP2 SWAP1 POP JUMP JUMPDEST PUSH1 0x0 PUSH1 0x20 DUP3 ADD SWAP1 POP DUP2 DUP2 SUB PUSH1 0x0 DUP4 ADD MSTORE PUSH2 0x1484 DUP2 PUSH2 0x1448 JUMP JUMPDEST SWAP1 POP SWAP2 SWAP1 POP JUMP INVALID LOG2 PUSH5 0x6970667358 0x22 SLT KECCAK256 0xB6 0x5F 0x4B PUSH28 0xEB9CD22606D39FC5DB7F2F03C28284A4FD01D27AA06DDD187F9CF9B PUSH5 0x736F6C6343 STOP ADDMOD 0xD STOP CALLER "},"gasEstimates":{"creation":{"codeDepositCost":"1062600","executionCost":"infinite","totalCost":"infinite"},"external":{"approveRequest(uint256)":"infinite","campaignDescription()":"infinite","contribute()":"51021","contributorCount()":"2539","contributors(address)":"2890","createRequest(string,uint256,address)":"infinite","finalizeRequest(uint256)":"infinite","getSummary()":"infinite","manager()":"2600","minimumContribution()":"2451","numRequests()":"2473","requests(uint256)":"infinite"}},"methodIdentifiers":{"approveRequest(uint256)":"d7d1bbdb","campaignDescription()":"110842cb","contribute()":"d7bb99ba","contributorCount()":"ecfd8928","contributors(address)":"1f6d4942","createRequest(string,uint256,address)":"8a9cfd55","finalizeRequest(uint256)":"03441006","getSummary()":"4051ddac","manager()":"481c6a75","minimumContribution()":"937e09b1","numRequests()":"9fb42b1f","requests(uint256)":"81d12c58"}},"storageLayout":{"storage":[{"astId":60,"contract":"Campaign.sol:Campaign","label":"manager","offset":0,"slot":"0","type":"t_address"},{"astId":62,"contract":"Campaign.sol:Campaign","label":"campaignDescription","offset":0,"slot":"1","type":"t_string_storage"},{"astId":64,"contract":"Campaign.sol:Campaign","label":"minimumContribution","offset":0,"slot":"2","type":"t_uint256"},{"astId":68,"contract":"Campaign.sol:Campaign","label":"contributors","offset":0,"slot":"3","type":"t_mapping(t_address,t_bool)"},{"astId":70,"contract":"Campaign.sol:Campaign","label":"contributorCount","offset":0,"slot":"4","type":"t_uint256"},{"astId":72,"contract":"Campaign.sol:Campaign","label":"numRequests","offset":0,"slot":"5","type":"t_uint256"},{"astId":77,"contract":"Campaign.sol:Campaign","label":"requests","offset":0,"slot":"6","type":"t_mapping(t_uint256,t_struct(Request)58_storage)"}],"types":{"t_address":{"encoding":"inplace","label":"address","numberOfBytes":"20"},"t_bool":{"encoding":"inplace","label":"bool","numberOfBytes":"1"},"t_mapping(t_address,t_bool)":{"encoding":"mapping","key":"t_address","label":"mapping(address => bool)","numberOfBytes":"32","value":"t_bool"},"t_mapping(t_uint256,t_struct(Request)58_storage)":{"encoding":"mapping","key":"t_uint256","label":"mapping(uint256 => struct Campaign.Request)","numberOfBytes":"32","value":"t_struct(Request)58_storage"},"t_string_storage":{"encoding":"bytes","label":"string","numberOfBytes":"32"},"t_struct(Request)58_storage":{"encoding":"inplace","label":"struct Campaign.Request","members":[{"astId":45,"contract":"Campaign.sol:Campaign","label":"description","offset":0,"slot":"0","type":"t_string_storage"},{"astId":47,"contract":"Campaign.sol:Campaign","label":"amount","offset":0,"slot":"1","type":"t_uint256"},{"astId":49,"contract":"Campaign.sol:Campaign","label":"recipient","offset":0,"slot":"2","type":"t_address"},{"astId":51,"contract":"Campaign.sol:Campaign","label":"complete","offset":20,"slot":"2","type":"t_bool"},{"astId":53,"contract":"Campaign.sol:Campaign","label":"approvalCount","offset":0,"slot":"3","type":"t_uint256"},{"astId":57,"contract":"Campaign.sol:Campaign","label":"approvals","offset":0,"slot":"4","type":"t_mapping(t_address,t_bool)"}],"numberOfBytes":"160"},"t_uint256":{"encoding":"inplace","label":"uint256","numberOfBytes":"32"}}},"userdoc":{"kind":"user","methods":{},"version":1}}